{
  "_format": "hh-sol-artifact-1",
  "contractName": "EventTicketManager",
  "sourceName": "contracts/EventTicketManager.sol",
  "abi": [
    {
      "inputs": [
        {
          "internalType": "address",
          "name": "_usdToken",
          "type": "address"
        }
      ],
      "stateMutability": "nonpayable",
      "type": "constructor"
    },
    {
      "inputs": [
        {
          "internalType": "address",
          "name": "sender",
          "type": "address"
        },
        {
          "internalType": "uint256",
          "name": "balance",
          "type": "uint256"
        },
        {
          "internalType": "uint256",
          "name": "needed",
          "type": "uint256"
        },
        {
          "internalType": "uint256",
          "name": "tokenId",
          "type": "uint256"
        }
      ],
      "name": "ERC1155InsufficientBalance",
      "type": "error"
    },
    {
      "inputs": [
        {
          "internalType": "address",
          "name": "approver",
          "type": "address"
        }
      ],
      "name": "ERC1155InvalidApprover",
      "type": "error"
    },
    {
      "inputs": [
        {
          "internalType": "uint256",
          "name": "idsLength",
          "type": "uint256"
        },
        {
          "internalType": "uint256",
          "name": "valuesLength",
          "type": "uint256"
        }
      ],
      "name": "ERC1155InvalidArrayLength",
      "type": "error"
    },
    {
      "inputs": [
        {
          "internalType": "address",
          "name": "operator",
          "type": "address"
        }
      ],
      "name": "ERC1155InvalidOperator",
      "type": "error"
    },
    {
      "inputs": [
        {
          "internalType": "address",
          "name": "receiver",
          "type": "address"
        }
      ],
      "name": "ERC1155InvalidReceiver",
      "type": "error"
    },
    {
      "inputs": [
        {
          "internalType": "address",
          "name": "sender",
          "type": "address"
        }
      ],
      "name": "ERC1155InvalidSender",
      "type": "error"
    },
    {
      "inputs": [
        {
          "internalType": "address",
          "name": "operator",
          "type": "address"
        },
        {
          "internalType": "address",
          "name": "owner",
          "type": "address"
        }
      ],
      "name": "ERC1155MissingApprovalForAll",
      "type": "error"
    },
    {
      "inputs": [],
      "name": "EnforcedPause",
      "type": "error"
    },
    {
      "inputs": [],
      "name": "ExpectedPause",
      "type": "error"
    },
    {
      "inputs": [
        {
          "internalType": "address",
          "name": "owner",
          "type": "address"
        }
      ],
      "name": "OwnableInvalidOwner",
      "type": "error"
    },
    {
      "inputs": [
        {
          "internalType": "address",
          "name": "account",
          "type": "address"
        }
      ],
      "name": "OwnableUnauthorizedAccount",
      "type": "error"
    },
    {
      "inputs": [],
      "name": "ReentrancyGuardReentrantCall",
      "type": "error"
    },
    {
      "anonymous": false,
      "inputs": [
        {
          "indexed": true,
          "internalType": "address",
          "name": "account",
          "type": "address"
        },
        {
          "indexed": true,
          "internalType": "address",
          "name": "operator",
          "type": "address"
        },
        {
          "indexed": false,
          "internalType": "bool",
          "name": "approved",
          "type": "bool"
        }
      ],
      "name": "ApprovalForAll",
      "type": "event"
    },
    {
      "anonymous": false,
      "inputs": [
        {
          "indexed": false,
          "internalType": "string",
          "name": "eventId",
          "type": "string"
        },
        {
          "indexed": true,
          "internalType": "address",
          "name": "creator",
          "type": "address"
        },
        {
          "indexed": false,
          "internalType": "string",
          "name": "name",
          "type": "string"
        }
      ],
      "name": "EventCreated",
      "type": "event"
    },
    {
      "anonymous": false,
      "inputs": [
        {
          "indexed": false,
          "internalType": "string",
          "name": "eventId",
          "type": "string"
        },
        {
          "indexed": false,
          "internalType": "enum EventTicketBase.EventStatus",
          "name": "status",
          "type": "uint8"
        }
      ],
      "name": "EventStatusUpdated",
      "type": "event"
    },
    {
      "anonymous": false,
      "inputs": [
        {
          "indexed": true,
          "internalType": "address",
          "name": "recipient",
          "type": "address"
        },
        {
          "indexed": false,
          "internalType": "uint256",
          "name": "ethAmount",
          "type": "uint256"
        },
        {
          "indexed": false,
          "internalType": "uint256",
          "name": "usdAmount",
          "type": "uint256"
        }
      ],
      "name": "FeesWithdrawn",
      "type": "event"
    },
    {
      "anonymous": false,
      "inputs": [
        {
          "indexed": true,
          "internalType": "address",
          "name": "organizer",
          "type": "address"
        },
        {
          "indexed": false,
          "internalType": "uint256",
          "name": "ethBalance",
          "type": "uint256"
        },
        {
          "indexed": false,
          "internalType": "uint256",
          "name": "usdBalance",
          "type": "uint256"
        }
      ],
      "name": "OrganizerBalanceUpdated",
      "type": "event"
    },
    {
      "anonymous": false,
      "inputs": [
        {
          "indexed": true,
          "internalType": "address",
          "name": "previousOwner",
          "type": "address"
        },
        {
          "indexed": true,
          "internalType": "address",
          "name": "newOwner",
          "type": "address"
        }
      ],
      "name": "OwnershipTransferred",
      "type": "event"
    },
    {
      "anonymous": false,
      "inputs": [
        {
          "indexed": false,
          "internalType": "address",
          "name": "account",
          "type": "address"
        }
      ],
      "name": "Paused",
      "type": "event"
    },
    {
      "anonymous": false,
      "inputs": [
        {
          "indexed": false,
          "internalType": "string",
          "name": "eventId",
          "type": "string"
        },
        {
          "indexed": false,
          "internalType": "string",
          "name": "tierId",
          "type": "string"
        },
        {
          "indexed": true,
          "internalType": "address",
          "name": "recipient",
          "type": "address"
        },
        {
          "indexed": false,
          "internalType": "uint256",
          "name": "price",
          "type": "uint256"
        }
      ],
      "name": "TicketMinted",
      "type": "event"
    },
    {
      "anonymous": false,
      "inputs": [
        {
          "indexed": false,
          "internalType": "string",
          "name": "eventId",
          "type": "string"
        },
        {
          "indexed": false,
          "internalType": "string",
          "name": "tierId",
          "type": "string"
        },
        {
          "indexed": false,
          "internalType": "bool",
          "name": "isActive",
          "type": "bool"
        }
      ],
      "name": "TierStatusUpdated",
      "type": "event"
    },
    {
      "anonymous": false,
      "inputs": [
        {
          "indexed": true,
          "internalType": "address",
          "name": "operator",
          "type": "address"
        },
        {
          "indexed": true,
          "internalType": "address",
          "name": "from",
          "type": "address"
        },
        {
          "indexed": true,
          "internalType": "address",
          "name": "to",
          "type": "address"
        },
        {
          "indexed": false,
          "internalType": "uint256[]",
          "name": "ids",
          "type": "uint256[]"
        },
        {
          "indexed": false,
          "internalType": "uint256[]",
          "name": "values",
          "type": "uint256[]"
        }
      ],
      "name": "TransferBatch",
      "type": "event"
    },
    {
      "anonymous": false,
      "inputs": [
        {
          "indexed": true,
          "internalType": "address",
          "name": "operator",
          "type": "address"
        },
        {
          "indexed": true,
          "internalType": "address",
          "name": "from",
          "type": "address"
        },
        {
          "indexed": true,
          "internalType": "address",
          "name": "to",
          "type": "address"
        },
        {
          "indexed": false,
          "internalType": "uint256",
          "name": "id",
          "type": "uint256"
        },
        {
          "indexed": false,
          "internalType": "uint256",
          "name": "value",
          "type": "uint256"
        }
      ],
      "name": "TransferSingle",
      "type": "event"
    },
    {
      "anonymous": false,
      "inputs": [
        {
          "indexed": false,
          "internalType": "string",
          "name": "value",
          "type": "string"
        },
        {
          "indexed": true,
          "internalType": "uint256",
          "name": "id",
          "type": "uint256"
        }
      ],
      "name": "URI",
      "type": "event"
    },
    {
      "anonymous": false,
      "inputs": [
        {
          "indexed": false,
          "internalType": "address",
          "name": "account",
          "type": "address"
        }
      ],
      "name": "Unpaused",
      "type": "event"
    },
    {
      "inputs": [],
      "name": "MAX_MINTS_PER_WINDOW",
      "outputs": [
        {
          "internalType": "uint256",
          "name": "",
          "type": "uint256"
        }
      ],
      "stateMutability": "view",
      "type": "function"
    },
    {
      "inputs": [],
      "name": "MIN_TIME_BETWEEN_MINTS",
      "outputs": [
        {
          "internalType": "uint256",
          "name": "",
          "type": "uint256"
        }
      ],
      "stateMutability": "view",
      "type": "function"
    },
    {
      "inputs": [],
      "name": "RATE_LIMIT_WINDOW",
      "outputs": [
        {
          "internalType": "uint256",
          "name": "",
          "type": "uint256"
        }
      ],
      "stateMutability": "view",
      "type": "function"
    },
    {
      "inputs": [
        {
          "internalType": "address",
          "name": "account",
          "type": "address"
        },
        {
          "internalType": "uint256",
          "name": "id",
          "type": "uint256"
        }
      ],
      "name": "balanceOf",
      "outputs": [
        {
          "internalType": "uint256",
          "name": "",
          "type": "uint256"
        }
      ],
      "stateMutability": "view",
      "type": "function"
    },
    {
      "inputs": [
        {
          "internalType": "address[]",
          "name": "accounts",
          "type": "address[]"
        },
        {
          "internalType": "uint256[]",
          "name": "ids",
          "type": "uint256[]"
        }
      ],
      "name": "balanceOfBatch",
      "outputs": [
        {
          "internalType": "uint256[]",
          "name": "",
          "type": "uint256[]"
        }
      ],
      "stateMutability": "view",
      "type": "function"
    },
    {
      "inputs": [
        {
          "internalType": "string",
          "name": "eventId",
          "type": "string"
        },
        {
          "internalType": "string",
          "name": "name",
          "type": "string"
        },
        {
          "internalType": "string",
          "name": "description",
          "type": "string"
        },
        {
          "internalType": "uint256",
          "name": "startTime",
          "type": "uint256"
        },
        {
          "internalType": "uint256",
          "name": "endTime",
          "type": "uint256"
        },
        {
          "internalType": "string[]",
          "name": "tierIds",
          "type": "string[]"
        },
        {
          "internalType": "uint256[]",
          "name": "prices",
          "type": "uint256[]"
        },
        {
          "internalType": "uint256[]",
          "name": "maxQuantities",
          "type": "uint256[]"
        },
        {
          "internalType": "enum EventTicketBase.PaymentCurrency",
          "name": "currency",
          "type": "uint8"
        },
        {
          "internalType": "uint256",
          "name": "commissionPercentage",
          "type": "uint256"
        },
        {
          "internalType": "address",
          "name": "commissionAddress",
          "type": "address"
        }
      ],
      "name": "createEvent",
      "outputs": [],
      "stateMutability": "nonpayable",
      "type": "function"
    },
    {
      "inputs": [
        {
          "internalType": "string",
          "name": "eventId",
          "type": "string"
        }
      ],
      "name": "eventExists",
      "outputs": [
        {
          "internalType": "bool",
          "name": "",
          "type": "bool"
        }
      ],
      "stateMutability": "view",
      "type": "function"
    },
    {
      "inputs": [
        {
          "internalType": "string",
          "name": "eventId",
          "type": "string"
        }
      ],
      "name": "getEventDetails",
      "outputs": [
        {
          "internalType": "address",
          "name": "creator",
          "type": "address"
        },
        {
          "internalType": "bool",
          "name": "isActive",
          "type": "bool"
        },
        {
          "internalType": "uint256",
          "name": "totalTiers",
          "type": "uint256"
        },
        {
          "internalType": "uint256",
          "name": "commissionPercentage",
          "type": "uint256"
        },
        {
          "internalType": "address",
          "name": "commissionAddress",
          "type": "address"
        }
      ],
      "stateMutability": "view",
      "type": "function"
    },
    {
      "inputs": [
        {
          "internalType": "string",
          "name": "eventId",
          "type": "string"
        },
        {
          "internalType": "string",
          "name": "tierId",
          "type": "string"
        }
      ],
      "name": "getEventTierDetails",
      "outputs": [
        {
          "internalType": "uint256",
          "name": "price",
          "type": "uint256"
        },
        {
          "internalType": "uint256",
          "name": "maxQuantity",
          "type": "uint256"
        },
        {
          "internalType": "uint256",
          "name": "soldCount",
          "type": "uint256"
        },
        {
          "internalType": "bool",
          "name": "isActive",
          "type": "bool"
        }
      ],
      "stateMutability": "view",
      "type": "function"
    },
    {
      "inputs": [
        {
          "internalType": "address",
          "name": "account",
          "type": "address"
        },
        {
          "internalType": "address",
          "name": "operator",
          "type": "address"
        }
      ],
      "name": "isApprovedForAll",
      "outputs": [
        {
          "internalType": "bool",
          "name": "",
          "type": "bool"
        }
      ],
      "stateMutability": "view",
      "type": "function"
    },
    {
      "inputs": [
        {
          "internalType": "string",
          "name": "eventId",
          "type": "string"
        },
        {
          "internalType": "string",
          "name": "tierId",
          "type": "string"
        },
        {
          "internalType": "address",
          "name": "recipient",
          "type": "address"
        }
      ],
      "name": "mintTicket",
      "outputs": [],
      "stateMutability": "payable",
      "type": "function"
    },
    {
      "inputs": [],
      "name": "owner",
      "outputs": [
        {
          "internalType": "address",
          "name": "",
          "type": "address"
        }
      ],
      "stateMutability": "view",
      "type": "function"
    },
    {
      "inputs": [],
      "name": "paused",
      "outputs": [
        {
          "internalType": "bool",
          "name": "",
          "type": "bool"
        }
      ],
      "stateMutability": "view",
      "type": "function"
    },
    {
      "inputs": [],
      "name": "renounceOwnership",
      "outputs": [],
      "stateMutability": "nonpayable",
      "type": "function"
    },
    {
      "inputs": [
        {
          "internalType": "address",
          "name": "from",
          "type": "address"
        },
        {
          "internalType": "address",
          "name": "to",
          "type": "address"
        },
        {
          "internalType": "uint256[]",
          "name": "ids",
          "type": "uint256[]"
        },
        {
          "internalType": "uint256[]",
          "name": "values",
          "type": "uint256[]"
        },
        {
          "internalType": "bytes",
          "name": "data",
          "type": "bytes"
        }
      ],
      "name": "safeBatchTransferFrom",
      "outputs": [],
      "stateMutability": "nonpayable",
      "type": "function"
    },
    {
      "inputs": [
        {
          "internalType": "address",
          "name": "from",
          "type": "address"
        },
        {
          "internalType": "address",
          "name": "to",
          "type": "address"
        },
        {
          "internalType": "uint256",
          "name": "id",
          "type": "uint256"
        },
        {
          "internalType": "uint256",
          "name": "value",
          "type": "uint256"
        },
        {
          "internalType": "bytes",
          "name": "data",
          "type": "bytes"
        }
      ],
      "name": "safeTransferFrom",
      "outputs": [],
      "stateMutability": "nonpayable",
      "type": "function"
    },
    {
      "inputs": [
        {
          "internalType": "address",
          "name": "operator",
          "type": "address"
        },
        {
          "internalType": "bool",
          "name": "approved",
          "type": "bool"
        }
      ],
      "name": "setApprovalForAll",
      "outputs": [],
      "stateMutability": "nonpayable",
      "type": "function"
    },
    {
      "inputs": [
        {
          "internalType": "bytes4",
          "name": "interfaceId",
          "type": "bytes4"
        }
      ],
      "name": "supportsInterface",
      "outputs": [
        {
          "internalType": "bool",
          "name": "",
          "type": "bool"
        }
      ],
      "stateMutability": "view",
      "type": "function"
    },
    {
      "inputs": [
        {
          "internalType": "address",
          "name": "newOwner",
          "type": "address"
        }
      ],
      "name": "transferOwnership",
      "outputs": [],
      "stateMutability": "nonpayable",
      "type": "function"
    },
    {
      "inputs": [
        {
          "internalType": "string",
          "name": "eventId",
          "type": "string"
        },
        {
          "internalType": "string",
          "name": "tierId",
          "type": "string"
        },
        {
          "internalType": "uint256",
          "name": "newPrice",
          "type": "uint256"
        }
      ],
      "name": "updateTierPrice",
      "outputs": [],
      "stateMutability": "nonpayable",
      "type": "function"
    },
    {
      "inputs": [
        {
          "internalType": "uint256",
          "name": "",
          "type": "uint256"
        }
      ],
      "name": "uri",
      "outputs": [
        {
          "internalType": "string",
          "name": "",
          "type": "string"
        }
      ],
      "stateMutability": "view",
      "type": "function"
    },
    {
      "inputs": [],
      "name": "usdToken",
      "outputs": [
        {
          "internalType": "contract IERC20",
          "name": "",
          "type": "address"
        }
      ],
      "stateMutability": "view",
      "type": "function"
    },
    {
      "inputs": [
        {
          "internalType": "address payable",
          "name": "recipient",
          "type": "address"
        }
      ],
      "name": "withdrawPlatformFees",
      "outputs": [],
      "stateMutability": "nonpayable",
      "type": "function"
    }
  ],
  "bytecode": "0x6101206040523480156200001257600080fd5b50604051620035d8380380620035d88339810160408190526200003591620001b8565b80336040518060200160405280600081525062000058816200015460201b60201c565b506001600160a01b0381166200008857604051631e4fbdf760e01b81526000600482015260240160405180910390fd5b620000938162000166565b50600160049081556005805460ff191690556001600160a01b038216610100819052600a608052655af3107a400060a05268056bc75e2d6310000060c0526040805163313ce56760e01b81529051919263313ce5679282820192602092908290030181865afa1580156200010b573d6000803e3d6000fd5b505050506040513d601f19601f82011682018060405250810190620001319190620001ea565b60ff1660e052506200014d610e10600955600a8055603c600b55565b5062000380565b6002620001628282620002b4565b5050565b600380546001600160a01b038381166001600160a01b0319831681179093556040519116919082907f8be0079c531659141344cd1fd0a4f28419497f9722a3daafe3b4186f6b6457e090600090a35050565b600060208284031215620001cb57600080fd5b81516001600160a01b0381168114620001e357600080fd5b9392505050565b600060208284031215620001fd57600080fd5b815160ff81168114620001e357600080fd5b634e487b7160e01b600052604160045260246000fd5b600181811c908216806200023a57607f821691505b6020821081036200025b57634e487b7160e01b600052602260045260246000fd5b50919050565b601f821115620002af57600081815260208120601f850160051c810160208610156200028a5750805b601f850160051c820191505b81811015620002ab5782815560010162000296565b5050505b505050565b81516001600160401b03811115620002d057620002d06200020f565b620002e881620002e1845462000225565b8462000261565b602080601f831160018114620003205760008415620003075750858301515b600019600386901b1c1916600185901b178555620002ab565b600085815260208120601f198616915b82811015620003515788860151825594840194600190910190840162000330565b5085821015620003705787850151600019600388901b60f8161c191681555b5050505050600190811b01905550565b60805160a05160c05160e051610100516131db620003fd6000396000818161045f0152818161123c0152818161137e015281816117830152818161186a015281816119a60152611a8f0152600081816115f601528181611624015261166901526000610f0801526000610ec401526000610cc801526131db6000f3fe60806040526004361061013f5760003560e01c8063715018a6116100b6578063e985e9c51161006f578063e985e9c5146103cd578063ec3889b5146103ed578063f242432a1461040d578063f2fde38b1461042d578063f897a22b1461044d578063fd5186a01461048157600080fd5b8063715018a6146102f85780638da5cb5b1461030d5780639970ea801461033f5780639c61320414610355578063a22cb46514610397578063e39eb109146103b757600080fd5b80634730a190116101085780634730a190146102095780634e1273f4146102295780635069da2614610256578063514facc9146102aa5780635c975abb146102ca5780637130dfc9146102e257600080fd5b8062fdd58e1461014457806301ffc9a7146101775780630b42caff146101a75780630e89341c146101bc5780632eb2c2d6146101e9575b600080fd5b34801561015057600080fd5b5061016461015f3660046124f6565b6104a1565b6040519081526020015b60405180910390f35b34801561018357600080fd5b50610197610192366004612538565b6104c9565b604051901515815260200161016e565b6101ba6101b536600461260a565b610519565b005b3480156101c857600080fd5b506101dc6101d7366004612681565b6108a1565b60405161016e91906126ea565b3480156101f557600080fd5b506101ba61020436600461278b565b610935565b34801561021557600080fd5b506101ba610224366004612838565b61099c565b34801561023557600080fd5b506102496102443660046128a4565b610ad5565b60405161016e91906129a0565b34801561026257600080fd5b506102766102713660046129b3565b610ba9565b604080516001600160a01b03968716815294151560208601528401929092526060830152909116608082015260a00161016e565b3480156102b657600080fd5b506101ba6102c5366004612a7d565b610c13565b3480156102d657600080fd5b5060055460ff16610197565b3480156102ee57600080fd5b5061016460095481565b34801561030457600080fd5b506101ba611102565b34801561031957600080fd5b506003546001600160a01b03165b6040516001600160a01b03909116815260200161016e565b34801561034b57600080fd5b50610164600b5481565b34801561036157600080fd5b50610375610370366004612bb8565b611116565b604080519485526020850193909352918301521515606082015260800161016e565b3480156103a357600080fd5b506101ba6103b2366004612c1f565b61118b565b3480156103c357600080fd5b50610164600a5481565b3480156103d957600080fd5b506101976103e8366004612c58565b61119a565b3480156103f957600080fd5b506101ba610408366004612c86565b6111c8565b34801561041957600080fd5b506101ba610428366004612ca3565b611481565b34801561043957600080fd5b506101ba610448366004612c86565b6114e0565b34801561045957600080fd5b506103277f000000000000000000000000000000000000000000000000000000000000000081565b34801561048d57600080fd5b5061019761049c3660046129b3565b61151b565b6000818152602081815260408083206001600160a01b03861684529091529020545b92915050565b60006001600160e01b03198216636cdb3d1360e11b14806104fa57506001600160e01b031982166303a24d0760e21b145b806104c357506301ffc9a760e01b6001600160e01b03198316146104c3565b61052161155b565b610529611585565b600060068460405161053b9190612d0b565b908152604051908190036020019020600481015490915060ff600160b01b909104166105a15760405162461bcd60e51b815260206004820152601060248201526f4576656e74206e6f742061637469766560801b60448201526064015b60405180910390fd5b6105aa816115a9565b6105f65760405162461bcd60e51b815260206004820152601d60248201527f4576656e74206e6f7420696e206163746976652074696d656672616d650000006044820152606401610598565b6000816007018460405161060a9190612d0b565b908152604051908190036020019020600381015490915060ff166106625760405162461bcd60e51b815260206004820152600f60248201526e54696572206e6f742061637469766560881b6044820152606401610598565b80600101548160020154106106a95760405162461bcd60e51b815260206004820152600d60248201526c151a595c881cdbdb19081bdd5d609a1b6044820152606401610598565b600085856040516020016106be929190612d27565b60408051601f198184030181529190528051602090910120905060016004840154600160a81b900460ff1660018111156106fa576106fa612d55565b036107c057600061070e83600001546115f0565b9050600081116107605760405162461bcd60e51b815260206004820152601760248201527f5363616c656420616d6f756e7420746f6f20736d616c6c0000000000000000006044820152606401610598565b61076c816001336116a8565b6107ae5760405162461bcd60e51b81526020600482015260136024820152721554d110c81c185e5b595b9d0819985a5b1959606a1b6044820152606401610598565b6107ba84826001611942565b50610813565b815434146108075760405162461bcd60e51b8152602060048201526014602482015273125b98dbdc9c9958dd0811551208185b5bdd5b9d60621b6044820152606401610598565b61081383346000611942565b61082f8482600160405180602001604052806000815250611ca1565b60028201805490600061084183612d81565b9190505550836001600160a01b03167fe9f05434d3cc2769f3182e5b4d237c815d331d3e22588fd86201639fd5ffda338787856000015460405161088793929190612d9a565b60405180910390a250505061089c6001600455565b505050565b6060600280546108b090612dd0565b80601f01602080910402602001604051908101604052809291908181526020018280546108dc90612dd0565b80156109295780601f106108fe57610100808354040283529160200191610929565b820191906000526020600020905b81548152906001019060200180831161090c57829003601f168201915b50505050509050919050565b336001600160a01b03861681148015906109565750610954868261119a565b155b156109875760405163711bec9160e11b81526001600160a01b03808316600483015287166024820152604401610598565b6109948686868686611cfe565b505050505050565b60006006846040516109ae9190612d0b565b90815260405190819003602001902060048101549091506001600160a01b03163314610a125760405162461bcd60e51b81526020600482015260136024820152722737ba1032bb32b73a1037b933b0b734bd32b960691b6044820152606401610598565b6004810154600160b01b900460ff16610a605760405162461bcd60e51b815260206004820152601060248201526f4576656e74206e6f742061637469766560801b6044820152606401610598565b60008160070184604051610a749190612d0b565b908152604051908190036020019020600381015490915060ff16610acc5760405162461bcd60e51b815260206004820152600f60248201526e54696572206e6f742061637469766560881b6044820152606401610598565b91909155505050565b60608151835114610b065781518351604051635b05999160e01b815260048101929092526024820152604401610598565b600083516001600160401b03811115610b2157610b21612555565b604051908082528060200260200182016040528015610b4a578160200160208202803683370190505b50905060005b8451811015610ba157602080820286010151610b74906020808402870101516104a1565b828281518110610b8657610b86612e0a565b6020908102919091010152610b9a81612d81565b9050610b50565b509392505050565b600080600080600080600687604051610bc29190612d0b565b9081526040516020918190039190910190206004810154600882015460058301546006909301546001600160a01b038084169c600160b01b90940460ff169b50919950929750909116945092505050565b610c1b611585565b610c248b61151b565b15610c685760405162461bcd60e51b81526020600482015260146024820152734576656e7420616c72656164792065786973747360601b6044820152606401610598565b83518551148015610c7a575085518551145b610cba5760405162461bcd60e51b8152602060048201526011602482015270496e76616c69642074696572206461746160781b6044820152606401610598565b60008551118015610cec57507f0000000000000000000000000000000000000000000000000000000000000000855111155b610d2d5760405162461bcd60e51b8152602060048201526012602482015271125b9d985b1a59081d1a595c8818dbdd5b9d60721b6044820152606401610598565b6064821115610d735760405162461bcd60e51b8152602060048201526012602482015271496e76616c69642070657263656e7461676560701b6044820152606401610598565b6001600160a01b038116610dc95760405162461bcd60e51b815260206004820152601a60248201527f496e76616c696420636f6d6d697373696f6e20616464726573730000000000006044820152606401610598565b610dd38888611d5e565b600060068c604051610de59190612d0b565b908152604051908190036020019020905080610e018c82612e66565b5060018101610e108b82612e66565b5060028101899055600381018890556004810180546001600160a81b0319163360ff60a01b191617600160a01b1780825585919060ff60a81b1916600160a81b836001811115610e6257610e62612d55565b021790555060048101805460ff60b01b1916600160b01b1790558651610e9190600883019060208a0190612419565b50600581018390556006810180546001600160a01b0319166001600160a01b03841617905560005b86518110156110b0577f0000000000000000000000000000000000000000000000000000000000000000878281518110610ef557610ef5612e0a565b602002602001015110158015610f4457507f0000000000000000000000000000000000000000000000000000000000000000878281518110610f3957610f39612e0a565b602002602001015111155b610f805760405162461bcd60e51b815260206004820152600d60248201526c496e76616c696420707269636560981b6044820152606401610598565b6000868281518110610f9457610f94612e0a565b602002602001015111610fdc5760405162461bcd60e51b815260206004820152601060248201526f496e76616c6964207175616e7469747960801b6044820152606401610598565b6040518060800160405280888381518110610ff957610ff9612e0a565b6020026020010151815260200187838151811061101857611018612e0a565b6020026020010151815260200160008152602001600115158152508260070189838151811061104957611049612e0a565b602002602001015160405161105e9190612d0b565b90815260408051602092819003830190208351815591830151600183015582015160028201556060909101516003909101805460ff1916911515919091179055806110a881612d81565b915050610eb9565b50336001600160a01b03167f6eaac9c7d729bb21d48767f3bafc064db7e03c7b92fdc0ee2adbf878f5180c408d8d6040516110ec929190612d27565b60405180910390a2505050505050505050505050565b61110a611e06565b6111146000611e33565b565b600080600080600060068760405161112e9190612d0b565b90815260200160405180910390209050600081600701876040516111529190612d0b565b908152604051908190036020019020805460018201546002830154600390930154919850965090945060ff169250505092959194509250565b611196338383611e85565b5050565b6001600160a01b03918216600090815260016020908152604080832093909416825291909152205460ff1690565b6111d0611e06565b6111d861155b565b6001600160a01b0381166112225760405162461bcd60e51b8152602060048201526011602482015270125b9d985b1a59081c9958da5c1a595b9d607a1b6044820152606401610598565b6040516370a0823160e01b815230600482015247906000907f00000000000000000000000000000000000000000000000000000000000000006001600160a01b0316906370a0823190602401602060405180830381865afa15801561128b573d6000803e3d6000fd5b505050506040513d601f19601f820116820180604052508101906112af9190612f25565b90508115611352576000836001600160a01b03168360405160006040518083038185875af1925050503d8060008114611304576040519150601f19603f3d011682016040523d82523d6000602084013e611309565b606091505b50509050806113505760405162461bcd60e51b8152602060048201526013602482015272115512081d1c985b9cd9995c8819985a5b1959606a1b6044820152606401610598565b505b801561142e5760405163a9059cbb60e01b81526001600160a01b038481166004830152602482018390527f0000000000000000000000000000000000000000000000000000000000000000169063a9059cbb906044016020604051808303816000875af11580156113c7573d6000803e3d6000fd5b505050506040513d601f19601f820116820180604052508101906113eb9190612f3e565b61142e5760405162461bcd60e51b81526020600482015260146024820152731554d110c81d1c985b9cd9995c8819985a5b195960621b6044820152606401610598565b60408051838152602081018390526001600160a01b038516917fdeb5099d7943aa2b4c1142e5d53d2f7636aa8f7bd130ec79816f151572bcdf45910160405180910390a2505061147e6001600455565b50565b336001600160a01b03861681148015906114a257506114a0868261119a565b155b156114d35760405163711bec9160e11b81526001600160a01b03808316600483015287166024820152604401610598565b6109948686868686611f1b565b6114e8611e06565b6001600160a01b03811661151257604051631e4fbdf760e01b815260006004820152602401610598565b61147e81611e33565b6000806001600160a01b03166006836040516115379190612d0b565b908152604051908190036020019020600401546001600160a01b0316141592915050565b60026004540361157e57604051633ee5aeb560e01b815260040160405180910390fd5b6002600455565b60055460ff16156111145760405163d93c066560e01b815260040160405180910390fd5b600060016004830154600160a01b900460ff1660038111156115cd576115cd612d55565b1480156115de575081600201544210155b80156104c35750506003015442111590565b600060127f000000000000000000000000000000000000000000000000000000000000000060ff16116116605761164b60ff7f0000000000000000000000000000000000000000000000000000000000000000166012612f5b565b61165690600a613052565b6104c39083613074565b61168e601260ff7f000000000000000000000000000000000000000000000000000000000000000016612f5b565b61169990600a613052565b6104c39083613096565b919050565b60006001600160a01b0382166116f95760405162461bcd60e51b8152602060048201526016602482015275496e76616c69642073656e646572206164647265737360501b6044820152606401610598565b600084116117495760405162461bcd60e51b815260206004820152601d60248201527f416d6f756e74206d7573742062652067726561746572207468616e20300000006044820152606401610598565b600183600181111561175d5761175d612d55565b036118de576040516370a0823160e01b81526001600160a01b03838116600483015285917f0000000000000000000000000000000000000000000000000000000000000000909116906370a0823190602401602060405180830381865afa1580156117cc573d6000803e3d6000fd5b505050506040513d601f19601f820116820180604052508101906117f09190612f25565b101561183e5760405162461bcd60e51b815260206004820152601960248201527f496e73756666696369656e7420555344432062616c616e6365000000000000006044820152606401610598565b6040516323b872dd60e01b81526001600160a01b038381166004830152306024830152604482018690527f000000000000000000000000000000000000000000000000000000000000000016906323b872dd906064016020604051808303816000875af11580156118b3573d6000803e3d6000fd5b505050506040513d601f19601f820116820180604052508101906118d79190612f3e565b905061193b565b60008360018111156118f2576118f2612d55565b03611900575034831461193b565b60405162461bcd60e51b815260206004820152601060248201526f496e76616c69642063757272656e637960801b6044820152606401610598565b9392505050565b6000806064856005015485028161195b5761195b61305e565b04915050808303600183600181111561197657611976612d55565b03611b4d57600685015460405163a9059cbb60e01b81526001600160a01b039182166004820152602481018490527f00000000000000000000000000000000000000000000000000000000000000009091169063a9059cbb906044016020604051808303816000875af11580156119f1573d6000803e3d6000fd5b505050506040513d601f19601f82011682018060405250810190611a159190612f3e565b611a615760405162461bcd60e51b815260206004820152601f60248201527f436f6d6d697373696f6e2055534443207472616e73666572206661696c6564006044820152606401610598565b60048581015460405163a9059cbb60e01b81526001600160a01b0391821692810192909252602482018390527f0000000000000000000000000000000000000000000000000000000000000000169063a9059cbb906044016020604051808303816000875af1158015611ad8573d6000803e3d6000fd5b505050506040513d601f19601f82011682018060405250810190611afc9190612f3e565b611b485760405162461bcd60e51b815260206004820152601c60248201527f43726561746f722055534443207472616e73666572206661696c6564000000006044820152606401610598565b611c9a565b60068501546040516000916001600160a01b03169084908381818185875af1925050503d8060008114611b9c576040519150601f19603f3d011682016040523d82523d6000602084013e611ba1565b606091505b5050905080611bf25760405162461bcd60e51b815260206004820152601e60248201527f436f6d6d697373696f6e20455448207472616e73666572206661696c656400006044820152606401610598565b60048601546040516000916001600160a01b03169084908381818185875af1925050503d8060008114611c41576040519150601f19603f3d011682016040523d82523d6000602084013e611c46565b606091505b5050905080611c975760405162461bcd60e51b815260206004820152601b60248201527f43726561746f7220455448207472616e73666572206661696c656400000000006044820152606401610598565b50505b5050505050565b6001600160a01b038416611ccb57604051632bfa23e760e11b815260006004820152602401610598565b60408051600180825260208201869052818301908152606082018590526080820190925290610994600087848487611f9c565b6001600160a01b038416611d2857604051632bfa23e760e11b815260006004820152602401610598565b6001600160a01b038516611d5157604051626a0d4560e21b815260006004820152602401610598565b611c9a8585858585611f9c565b428211611dad5760405162461bcd60e51b815260206004820152601c60248201527f53746172742074696d65206d75737420626520696e20667574757265000000006044820152606401610598565b8181116111965760405162461bcd60e51b815260206004820152602160248201527f456e642074696d65206d7573742062652061667465722073746172742074696d6044820152606560f81b6064820152608401610598565b6003546001600160a01b031633146111145760405163118cdaa760e01b8152336004820152602401610598565b600380546001600160a01b038381166001600160a01b0319831681179093556040519116919082907f8be0079c531659141344cd1fd0a4f28419497f9722a3daafe3b4186f6b6457e090600090a35050565b6001600160a01b038216611eae5760405162ced3e160e81b815260006004820152602401610598565b6001600160a01b03838116600081815260016020908152604080832094871680845294825291829020805460ff191686151590811790915591519182527f17307eab39ab6107e8899845ad3d59bd9653f200f220920489ca2b5937696c31910160405180910390a3505050565b6001600160a01b038416611f4557604051632bfa23e760e11b815260006004820152602401610598565b6001600160a01b038516611f6e57604051626a0d4560e21b815260006004820152602401610598565b60408051600180825260208201869052818301908152606082018590526080820190925290611c9787878484875b611fa885858585611fef565b6001600160a01b03841615611c9a5782513390600103611fe15760208481015190840151611fda83898985858961220c565b5050610994565b610994818787878787612330565b805182511461201e5781518151604051635b05999160e01b815260048101929092526024820152604401610598565b3360005b835181101561212d576020818102858101820151908501909101516001600160a01b038816156120d5576000828152602081815260408083206001600160a01b038c168452909152902054818110156120ae576040516303dee4c560e01b81526001600160a01b038a166004820152602481018290526044810183905260648101849052608401610598565b6000838152602081815260408083206001600160a01b038d16845290915290209082900390555b6001600160a01b0387161561211a576000828152602081815260408083206001600160a01b038b168452909152812080548392906121149084906130ad565b90915550505b50508061212690612d81565b9050612022565b5082516001036121ae5760208301516000906020840151909150856001600160a01b0316876001600160a01b0316846001600160a01b03167fc3d58168c5ae7397731d063d5bbf3d657854427343f4c083240f7aacaa2d0f62858560405161219f929190918252602082015260400190565b60405180910390a45050611c9a565b836001600160a01b0316856001600160a01b0316826001600160a01b03167f4a39dc06d4c0dbc64b70af90fd698a233a518aa5d07e595d983b8c0526c8f7fb86866040516121fd9291906130c0565b60405180910390a45050505050565b6001600160a01b0384163b156109945760405163f23a6e6160e01b81526001600160a01b0385169063f23a6e619061225090899089908890889088906004016130e5565b6020604051808303816000875af192505050801561228b575060408051601f3d908101601f191682019092526122889181019061312a565b60015b6122f4573d8080156122b9576040519150601f19603f3d011682016040523d82523d6000602084013e6122be565b606091505b5080516000036122ec57604051632bfa23e760e11b81526001600160a01b0386166004820152602401610598565b805181602001fd5b6001600160e01b0319811663f23a6e6160e01b14611c9757604051632bfa23e760e11b81526001600160a01b0386166004820152602401610598565b6001600160a01b0384163b156109945760405163bc197c8160e01b81526001600160a01b0385169063bc197c81906123749089908990889088908890600401613147565b6020604051808303816000875af19250505080156123af575060408051601f3d908101601f191682019092526123ac9181019061312a565b60015b6123dd573d8080156122b9576040519150601f19603f3d011682016040523d82523d6000602084013e6122be565b6001600160e01b0319811663bc197c8160e01b14611c9757604051632bfa23e760e11b81526001600160a01b0386166004820152602401610598565b82805482825590600052602060002090810192821561245f579160200282015b8281111561245f578251829061244f9082612e66565b5091602001919060010190612439565b5061246b92915061246f565b5090565b8082111561246b576000612483828261248c565b5060010161246f565b50805461249890612dd0565b6000825580601f106124a8575050565b601f01602090049060005260206000209081019061147e91905b8082111561246b57600081556001016124c2565b6001600160a01b038116811461147e57600080fd5b80356116a3816124d6565b6000806040838503121561250957600080fd5b8235612514816124d6565b946020939093013593505050565b6001600160e01b03198116811461147e57600080fd5b60006020828403121561254a57600080fd5b813561193b81612522565b634e487b7160e01b600052604160045260246000fd5b604051601f8201601f191681016001600160401b038111828210171561259357612593612555565b604052919050565b600082601f8301126125ac57600080fd5b81356001600160401b038111156125c5576125c5612555565b6125d8601f8201601f191660200161256b565b8181528460208386010111156125ed57600080fd5b816020850160208301376000918101602001919091529392505050565b60008060006060848603121561261f57600080fd5b83356001600160401b038082111561263657600080fd5b6126428783880161259b565b9450602086013591508082111561265857600080fd5b506126658682870161259b565b9250506040840135612676816124d6565b809150509250925092565b60006020828403121561269357600080fd5b5035919050565b60005b838110156126b557818101518382015260200161269d565b50506000910152565b600081518084526126d681602086016020860161269a565b601f01601f19169290920160200192915050565b60208152600061193b60208301846126be565b60006001600160401b0382111561271657612716612555565b5060051b60200190565b600082601f83011261273157600080fd5b81356020612746612741836126fd565b61256b565b82815260059290921b8401810191818101908684111561276557600080fd5b8286015b848110156127805780358352918301918301612769565b509695505050505050565b600080600080600060a086880312156127a357600080fd5b85356127ae816124d6565b945060208601356127be816124d6565b935060408601356001600160401b03808211156127da57600080fd5b6127e689838a01612720565b945060608801359150808211156127fc57600080fd5b61280889838a01612720565b9350608088013591508082111561281e57600080fd5b5061282b8882890161259b565b9150509295509295909350565b60008060006060848603121561284d57600080fd5b83356001600160401b038082111561286457600080fd5b6128708783880161259b565b9450602086013591508082111561288657600080fd5b506128938682870161259b565b925050604084013590509250925092565b600080604083850312156128b757600080fd5b82356001600160401b03808211156128ce57600080fd5b818501915085601f8301126128e257600080fd5b813560206128f2612741836126fd565b82815260059290921b8401810191818101908984111561291157600080fd5b948201945b83861015612938578535612929816124d6565b82529482019490820190612916565b9650508601359250508082111561294e57600080fd5b5061295b85828601612720565b9150509250929050565b600081518084526020808501945080840160005b8381101561299557815187529582019590820190600101612979565b509495945050505050565b60208152600061193b6020830184612965565b6000602082840312156129c557600080fd5b81356001600160401b038111156129db57600080fd5b6129e78482850161259b565b949350505050565b600082601f830112612a0057600080fd5b81356020612a10612741836126fd565b82815260059290921b84018101918181019086841115612a2f57600080fd5b8286015b848110156127805780356001600160401b03811115612a525760008081fd5b612a608986838b010161259b565b845250918301918301612a33565b8035600281106116a357600080fd5b60008060008060008060008060008060006101608c8e031215612a9f57600080fd5b6001600160401b03808d351115612ab557600080fd5b612ac28e8e358f0161259b565b9b508060208e01351115612ad557600080fd5b612ae58e60208f01358f0161259b565b9a508060408e01351115612af857600080fd5b612b088e60408f01358f0161259b565b995060608d0135985060808d013597508060a08e01351115612b2957600080fd5b612b398e60a08f01358f016129ef565b96508060c08e01351115612b4c57600080fd5b612b5c8e60c08f01358f01612720565b95508060e08e01351115612b6f57600080fd5b50612b808d60e08e01358e01612720565b9350612b8f6101008d01612a6e565b92506101208c01359150612ba66101408d016124eb565b90509295989b509295989b9093969950565b60008060408385031215612bcb57600080fd5b82356001600160401b0380821115612be257600080fd5b612bee8683870161259b565b93506020850135915080821115612c0457600080fd5b5061295b8582860161259b565b801515811461147e57600080fd5b60008060408385031215612c3257600080fd5b8235612c3d816124d6565b91506020830135612c4d81612c11565b809150509250929050565b60008060408385031215612c6b57600080fd5b8235612c76816124d6565b91506020830135612c4d816124d6565b600060208284031215612c9857600080fd5b813561193b816124d6565b600080600080600060a08688031215612cbb57600080fd5b8535612cc6816124d6565b94506020860135612cd6816124d6565b9350604086013592506060860135915060808601356001600160401b03811115612cff57600080fd5b61282b8882890161259b565b60008251612d1d81846020870161269a565b9190910192915050565b604081526000612d3a60408301856126be565b8281036020840152612d4c81856126be565b95945050505050565b634e487b7160e01b600052602160045260246000fd5b634e487b7160e01b600052601160045260246000fd5b600060018201612d9357612d93612d6b565b5060010190565b606081526000612dad60608301866126be565b8281036020840152612dbf81866126be565b915050826040830152949350505050565b600181811c90821680612de457607f821691505b602082108103612e0457634e487b7160e01b600052602260045260246000fd5b50919050565b634e487b7160e01b600052603260045260246000fd5b601f82111561089c57600081815260208120601f850160051c81016020861015612e475750805b601f850160051c820191505b8181101561099457828155600101612e53565b81516001600160401b03811115612e7f57612e7f612555565b612e9381612e8d8454612dd0565b84612e20565b602080601f831160018114612ec85760008415612eb05750858301515b600019600386901b1c1916600185901b178555610994565b600085815260208120601f198616915b82811015612ef757888601518255948401946001909101908401612ed8565b5085821015612f155787850151600019600388901b60f8161c191681555b5050505050600190811b01905550565b600060208284031215612f3757600080fd5b5051919050565b600060208284031215612f5057600080fd5b815161193b81612c11565b818103818111156104c3576104c3612d6b565b600181815b80851115612fa9578160001904821115612f8f57612f8f612d6b565b80851615612f9c57918102915b93841c9390800290612f73565b509250929050565b600082612fc0575060016104c3565b81612fcd575060006104c3565b8160018114612fe35760028114612fed57613009565b60019150506104c3565b60ff841115612ffe57612ffe612d6b565b50506001821b6104c3565b5060208310610133831016604e8410600b841016171561302c575081810a6104c3565b6130368383612f6e565b806000190482111561304a5761304a612d6b565b029392505050565b600061193b8383612fb1565b634e487b7160e01b600052601260045260246000fd5b60008261309157634e487b7160e01b600052601260045260246000fd5b500490565b80820281158282048414176104c3576104c3612d6b565b808201808211156104c3576104c3612d6b565b6040815260006130d36040830185612965565b8281036020840152612d4c8185612965565b6001600160a01b03868116825285166020820152604081018490526060810183905260a06080820181905260009061311f908301846126be565b979650505050505050565b60006020828403121561313c57600080fd5b815161193b81612522565b6001600160a01b0386811682528516602082015260a06040820181905260009061317390830186612965565b82810360608401526131858186612965565b9050828103608084015261319981856126be565b9897505050505050505056fea26469706673582212201c66820fbb833110dd65e3275a5d06961d9a55cb48090fa71068cf0ed88b997f64736f6c63430008140033",
  "linkReferences": {},
  "deployedLinkReferences": {}
}