{
  "_format": "hh-sol-artifact-1",
  "contractName": "CraftiaxNFT",
  "sourceName": "contracts/CNFT.sol",
  "abi": [
    {
      "inputs": [
        {
          "internalType": "address",
          "name": "initialOwner",
          "type": "address"
        },
        {
          "internalType": "string",
          "name": "baseURI",
          "type": "string"
        },
        {
          "internalType": "address",
          "name": "verifier",
          "type": "address"
        }
      ],
      "stateMutability": "nonpayable",
      "type": "constructor"
    },
    {
      "inputs": [],
      "name": "ECDSAInvalidSignature",
      "type": "error"
    },
    {
      "inputs": [
        {
          "internalType": "uint256",
          "name": "length",
          "type": "uint256"
        }
      ],
      "name": "ECDSAInvalidSignatureLength",
      "type": "error"
    },
    {
      "inputs": [
        {
          "internalType": "bytes32",
          "name": "s",
          "type": "bytes32"
        }
      ],
      "name": "ECDSAInvalidSignatureS",
      "type": "error"
    },
    {
      "inputs": [
        {
          "internalType": "address",
          "name": "sender",
          "type": "address"
        },
        {
          "internalType": "uint256",
          "name": "tokenId",
          "type": "uint256"
        },
        {
          "internalType": "address",
          "name": "owner",
          "type": "address"
        }
      ],
      "name": "ERC721IncorrectOwner",
      "type": "error"
    },
    {
      "inputs": [
        {
          "internalType": "address",
          "name": "operator",
          "type": "address"
        },
        {
          "internalType": "uint256",
          "name": "tokenId",
          "type": "uint256"
        }
      ],
      "name": "ERC721InsufficientApproval",
      "type": "error"
    },
    {
      "inputs": [
        {
          "internalType": "address",
          "name": "approver",
          "type": "address"
        }
      ],
      "name": "ERC721InvalidApprover",
      "type": "error"
    },
    {
      "inputs": [
        {
          "internalType": "address",
          "name": "operator",
          "type": "address"
        }
      ],
      "name": "ERC721InvalidOperator",
      "type": "error"
    },
    {
      "inputs": [
        {
          "internalType": "address",
          "name": "owner",
          "type": "address"
        }
      ],
      "name": "ERC721InvalidOwner",
      "type": "error"
    },
    {
      "inputs": [
        {
          "internalType": "address",
          "name": "receiver",
          "type": "address"
        }
      ],
      "name": "ERC721InvalidReceiver",
      "type": "error"
    },
    {
      "inputs": [
        {
          "internalType": "address",
          "name": "sender",
          "type": "address"
        }
      ],
      "name": "ERC721InvalidSender",
      "type": "error"
    },
    {
      "inputs": [
        {
          "internalType": "uint256",
          "name": "tokenId",
          "type": "uint256"
        }
      ],
      "name": "ERC721NonexistentToken",
      "type": "error"
    },
    {
      "inputs": [],
      "name": "EnforcedPause",
      "type": "error"
    },
    {
      "inputs": [],
      "name": "ExpectedPause",
      "type": "error"
    },
    {
      "inputs": [],
      "name": "InvalidShortString",
      "type": "error"
    },
    {
      "inputs": [
        {
          "internalType": "address",
          "name": "owner",
          "type": "address"
        }
      ],
      "name": "OwnableInvalidOwner",
      "type": "error"
    },
    {
      "inputs": [
        {
          "internalType": "address",
          "name": "account",
          "type": "address"
        }
      ],
      "name": "OwnableUnauthorizedAccount",
      "type": "error"
    },
    {
      "inputs": [],
      "name": "ReentrancyGuardReentrantCall",
      "type": "error"
    },
    {
      "inputs": [
        {
          "internalType": "string",
          "name": "str",
          "type": "string"
        }
      ],
      "name": "StringTooLong",
      "type": "error"
    },
    {
      "anonymous": false,
      "inputs": [
        {
          "indexed": true,
          "internalType": "address",
          "name": "owner",
          "type": "address"
        },
        {
          "indexed": true,
          "internalType": "address",
          "name": "approved",
          "type": "address"
        },
        {
          "indexed": true,
          "internalType": "uint256",
          "name": "tokenId",
          "type": "uint256"
        }
      ],
      "name": "Approval",
      "type": "event"
    },
    {
      "anonymous": false,
      "inputs": [
        {
          "indexed": true,
          "internalType": "address",
          "name": "owner",
          "type": "address"
        },
        {
          "indexed": true,
          "internalType": "address",
          "name": "operator",
          "type": "address"
        },
        {
          "indexed": false,
          "internalType": "bool",
          "name": "approved",
          "type": "bool"
        }
      ],
      "name": "ApprovalForAll",
      "type": "event"
    },
    {
      "anonymous": false,
      "inputs": [
        {
          "indexed": false,
          "internalType": "string",
          "name": "newBaseURI",
          "type": "string"
        }
      ],
      "name": "BaseURIChanged",
      "type": "event"
    },
    {
      "anonymous": false,
      "inputs": [
        {
          "indexed": false,
          "internalType": "uint256",
          "name": "_fromTokenId",
          "type": "uint256"
        },
        {
          "indexed": false,
          "internalType": "uint256",
          "name": "_toTokenId",
          "type": "uint256"
        }
      ],
      "name": "BatchMetadataUpdate",
      "type": "event"
    },
    {
      "anonymous": false,
      "inputs": [
        {
          "indexed": false,
          "internalType": "uint256",
          "name": "startTokenId",
          "type": "uint256"
        },
        {
          "indexed": false,
          "internalType": "uint256",
          "name": "endTokenId",
          "type": "uint256"
        },
        {
          "indexed": true,
          "internalType": "address",
          "name": "minter",
          "type": "address"
        }
      ],
      "name": "BatchMintCompleted",
      "type": "event"
    },
    {
      "anonymous": false,
      "inputs": [
        {
          "indexed": true,
          "internalType": "address",
          "name": "operator",
          "type": "address"
        },
        {
          "indexed": false,
          "internalType": "uint256",
          "name": "timestamp",
          "type": "uint256"
        }
      ],
      "name": "ContractPaused",
      "type": "event"
    },
    {
      "anonymous": false,
      "inputs": [
        {
          "indexed": true,
          "internalType": "address",
          "name": "operator",
          "type": "address"
        },
        {
          "indexed": false,
          "internalType": "uint256",
          "name": "timestamp",
          "type": "uint256"
        }
      ],
      "name": "ContractUnpaused",
      "type": "event"
    },
    {
      "anonymous": false,
      "inputs": [],
      "name": "EIP712DomainChanged",
      "type": "event"
    },
    {
      "anonymous": false,
      "inputs": [
        {
          "indexed": false,
          "internalType": "uint256",
          "name": "_tokenId",
          "type": "uint256"
        }
      ],
      "name": "MetadataUpdate",
      "type": "event"
    },
    {
      "anonymous": false,
      "inputs": [
        {
          "indexed": true,
          "internalType": "address",
          "name": "user",
          "type": "address"
        },
        {
          "indexed": false,
          "internalType": "uint256",
          "name": "nonce",
          "type": "uint256"
        }
      ],
      "name": "NonceInvalidated",
      "type": "event"
    },
    {
      "anonymous": false,
      "inputs": [
        {
          "indexed": true,
          "internalType": "address",
          "name": "previousOwner",
          "type": "address"
        },
        {
          "indexed": true,
          "internalType": "address",
          "name": "newOwner",
          "type": "address"
        }
      ],
      "name": "OwnershipTransferred",
      "type": "event"
    },
    {
      "anonymous": false,
      "inputs": [
        {
          "indexed": false,
          "internalType": "address",
          "name": "account",
          "type": "address"
        }
      ],
      "name": "Paused",
      "type": "event"
    },
    {
      "anonymous": false,
      "inputs": [
        {
          "indexed": true,
          "internalType": "address",
          "name": "burner",
          "type": "address"
        },
        {
          "indexed": true,
          "internalType": "uint256",
          "name": "tokenId",
          "type": "uint256"
        }
      ],
      "name": "TokenBurned",
      "type": "event"
    },
    {
      "anonymous": false,
      "inputs": [
        {
          "indexed": true,
          "internalType": "address",
          "name": "to",
          "type": "address"
        },
        {
          "indexed": true,
          "internalType": "uint256",
          "name": "tokenId",
          "type": "uint256"
        },
        {
          "indexed": false,
          "internalType": "string",
          "name": "uri",
          "type": "string"
        }
      ],
      "name": "TokenMinted",
      "type": "event"
    },
    {
      "anonymous": false,
      "inputs": [
        {
          "indexed": true,
          "internalType": "address",
          "name": "from",
          "type": "address"
        },
        {
          "indexed": true,
          "internalType": "address",
          "name": "to",
          "type": "address"
        },
        {
          "indexed": true,
          "internalType": "uint256",
          "name": "tokenId",
          "type": "uint256"
        }
      ],
      "name": "Transfer",
      "type": "event"
    },
    {
      "anonymous": false,
      "inputs": [
        {
          "indexed": false,
          "internalType": "address",
          "name": "account",
          "type": "address"
        }
      ],
      "name": "Unpaused",
      "type": "event"
    },
    {
      "anonymous": false,
      "inputs": [
        {
          "indexed": true,
          "internalType": "address",
          "name": "oldVerifier",
          "type": "address"
        },
        {
          "indexed": true,
          "internalType": "address",
          "name": "newVerifier",
          "type": "address"
        }
      ],
      "name": "VerifierUpdated",
      "type": "event"
    },
    {
      "inputs": [
        {
          "internalType": "address",
          "name": "to",
          "type": "address"
        },
        {
          "internalType": "uint256",
          "name": "tokenId",
          "type": "uint256"
        }
      ],
      "name": "approve",
      "outputs": [],
      "stateMutability": "nonpayable",
      "type": "function"
    },
    {
      "inputs": [
        {
          "internalType": "address",
          "name": "owner",
          "type": "address"
        }
      ],
      "name": "balanceOf",
      "outputs": [
        {
          "internalType": "uint256",
          "name": "",
          "type": "uint256"
        }
      ],
      "stateMutability": "view",
      "type": "function"
    },
    {
      "inputs": [
        {
          "internalType": "uint256",
          "name": "tokenId",
          "type": "uint256"
        }
      ],
      "name": "burn",
      "outputs": [],
      "stateMutability": "nonpayable",
      "type": "function"
    },
    {
      "inputs": [],
      "name": "eip712Domain",
      "outputs": [
        {
          "internalType": "bytes1",
          "name": "fields",
          "type": "bytes1"
        },
        {
          "internalType": "string",
          "name": "name",
          "type": "string"
        },
        {
          "internalType": "string",
          "name": "version",
          "type": "string"
        },
        {
          "internalType": "uint256",
          "name": "chainId",
          "type": "uint256"
        },
        {
          "internalType": "address",
          "name": "verifyingContract",
          "type": "address"
        },
        {
          "internalType": "bytes32",
          "name": "salt",
          "type": "bytes32"
        },
        {
          "internalType": "uint256[]",
          "name": "extensions",
          "type": "uint256[]"
        }
      ],
      "stateMutability": "view",
      "type": "function"
    },
    {
      "inputs": [
        {
          "internalType": "uint256",
          "name": "tokenId",
          "type": "uint256"
        }
      ],
      "name": "getApproved",
      "outputs": [
        {
          "internalType": "address",
          "name": "",
          "type": "address"
        }
      ],
      "stateMutability": "view",
      "type": "function"
    },
    {
      "inputs": [
        {
          "internalType": "address",
          "name": "user",
          "type": "address"
        }
      ],
      "name": "invalidateNonce",
      "outputs": [],
      "stateMutability": "nonpayable",
      "type": "function"
    },
    {
      "inputs": [
        {
          "internalType": "address",
          "name": "owner",
          "type": "address"
        },
        {
          "internalType": "address",
          "name": "operator",
          "type": "address"
        }
      ],
      "name": "isApprovedForAll",
      "outputs": [
        {
          "internalType": "bool",
          "name": "",
          "type": "bool"
        }
      ],
      "stateMutability": "view",
      "type": "function"
    },
    {
      "inputs": [],
      "name": "name",
      "outputs": [
        {
          "internalType": "string",
          "name": "",
          "type": "string"
        }
      ],
      "stateMutability": "view",
      "type": "function"
    },
    {
      "inputs": [
        {
          "internalType": "address",
          "name": "owner",
          "type": "address"
        }
      ],
      "name": "nonces",
      "outputs": [
        {
          "internalType": "uint256",
          "name": "",
          "type": "uint256"
        }
      ],
      "stateMutability": "view",
      "type": "function"
    },
    {
      "inputs": [],
      "name": "owner",
      "outputs": [
        {
          "internalType": "address",
          "name": "",
          "type": "address"
        }
      ],
      "stateMutability": "view",
      "type": "function"
    },
    {
      "inputs": [
        {
          "internalType": "uint256",
          "name": "tokenId",
          "type": "uint256"
        }
      ],
      "name": "ownerOf",
      "outputs": [
        {
          "internalType": "address",
          "name": "",
          "type": "address"
        }
      ],
      "stateMutability": "view",
      "type": "function"
    },
    {
      "inputs": [],
      "name": "pause",
      "outputs": [],
      "stateMutability": "nonpayable",
      "type": "function"
    },
    {
      "inputs": [],
      "name": "paused",
      "outputs": [
        {
          "internalType": "bool",
          "name": "",
          "type": "bool"
        }
      ],
      "stateMutability": "view",
      "type": "function"
    },
    {
      "inputs": [],
      "name": "renounceOwnership",
      "outputs": [],
      "stateMutability": "nonpayable",
      "type": "function"
    },
    {
      "inputs": [
        {
          "internalType": "address",
          "name": "to",
          "type": "address"
        },
        {
          "internalType": "string",
          "name": "uri",
          "type": "string"
        },
        {
          "internalType": "uint256",
          "name": "deadline",
          "type": "uint256"
        },
        {
          "internalType": "bytes",
          "name": "signature",
          "type": "bytes"
        }
      ],
      "name": "safeMint",
      "outputs": [],
      "stateMutability": "nonpayable",
      "type": "function"
    },
    {
      "inputs": [
        {
          "internalType": "address",
          "name": "from",
          "type": "address"
        },
        {
          "internalType": "address",
          "name": "to",
          "type": "address"
        },
        {
          "internalType": "uint256",
          "name": "tokenId",
          "type": "uint256"
        }
      ],
      "name": "safeTransferFrom",
      "outputs": [],
      "stateMutability": "nonpayable",
      "type": "function"
    },
    {
      "inputs": [
        {
          "internalType": "address",
          "name": "from",
          "type": "address"
        },
        {
          "internalType": "address",
          "name": "to",
          "type": "address"
        },
        {
          "internalType": "uint256",
          "name": "tokenId",
          "type": "uint256"
        },
        {
          "internalType": "bytes",
          "name": "data",
          "type": "bytes"
        }
      ],
      "name": "safeTransferFrom",
      "outputs": [],
      "stateMutability": "nonpayable",
      "type": "function"
    },
    {
      "inputs": [
        {
          "internalType": "address",
          "name": "operator",
          "type": "address"
        },
        {
          "internalType": "bool",
          "name": "approved",
          "type": "bool"
        }
      ],
      "name": "setApprovalForAll",
      "outputs": [],
      "stateMutability": "nonpayable",
      "type": "function"
    },
    {
      "inputs": [
        {
          "internalType": "string",
          "name": "newBaseURI",
          "type": "string"
        }
      ],
      "name": "setBaseURI",
      "outputs": [],
      "stateMutability": "nonpayable",
      "type": "function"
    },
    {
      "inputs": [
        {
          "internalType": "bytes4",
          "name": "interfaceId",
          "type": "bytes4"
        }
      ],
      "name": "supportsInterface",
      "outputs": [
        {
          "internalType": "bool",
          "name": "",
          "type": "bool"
        }
      ],
      "stateMutability": "view",
      "type": "function"
    },
    {
      "inputs": [],
      "name": "symbol",
      "outputs": [
        {
          "internalType": "string",
          "name": "",
          "type": "string"
        }
      ],
      "stateMutability": "view",
      "type": "function"
    },
    {
      "inputs": [
        {
          "internalType": "uint256",
          "name": "tokenId",
          "type": "uint256"
        }
      ],
      "name": "tokenURI",
      "outputs": [
        {
          "internalType": "string",
          "name": "",
          "type": "string"
        }
      ],
      "stateMutability": "view",
      "type": "function"
    },
    {
      "inputs": [
        {
          "internalType": "address",
          "name": "from",
          "type": "address"
        },
        {
          "internalType": "address",
          "name": "to",
          "type": "address"
        },
        {
          "internalType": "uint256",
          "name": "tokenId",
          "type": "uint256"
        }
      ],
      "name": "transferFrom",
      "outputs": [],
      "stateMutability": "nonpayable",
      "type": "function"
    },
    {
      "inputs": [
        {
          "internalType": "address",
          "name": "newOwner",
          "type": "address"
        }
      ],
      "name": "transferOwnership",
      "outputs": [],
      "stateMutability": "nonpayable",
      "type": "function"
    },
    {
      "inputs": [],
      "name": "unpause",
      "outputs": [],
      "stateMutability": "nonpayable",
      "type": "function"
    },
    {
      "inputs": [
        {
          "internalType": "address",
          "name": "newVerifier",
          "type": "address"
        }
      ],
      "name": "updateVerifier",
      "outputs": [],
      "stateMutability": "nonpayable",
      "type": "function"
    }
  ],
  "bytecode": "0x6101606040523480156200001257600080fd5b5060405162004ee638038062004ee68339818101604052810190620000389190620006d7565b6040518060400160405280600b81526020017f43726166746961784e46540000000000000000000000000000000000000000008152506040518060400160405280600181526020017f3100000000000000000000000000000000000000000000000000000000000000815250846040518060400160405280600b81526020017f43726166746961784e46540000000000000000000000000000000000000000008152506040518060400160405280600481526020017f434e46540000000000000000000000000000000000000000000000000000000081525081600090816200012291906200099d565b5080600190816200013491906200099d565b505050600073ffffffffffffffffffffffffffffffffffffffff168173ffffffffffffffffffffffffffffffffffffffff1603620001ac5760006040517f1e4fbdf7000000000000000000000000000000000000000000000000000000008152600401620001a3919062000a95565b60405180910390fd5b620001bd81620002ed60201b60201c565b5060016008819055506000600960006101000a81548160ff021916908315150217905550620001f7600a83620003b360201b90919060201c565b610120818152505062000215600b82620003b360201b90919060201c565b6101408181525050818051906020012060e08181525050808051906020012061010081815250504660a08181525050620002546200040b60201b60201c565b608081815250503073ffffffffffffffffffffffffffffffffffffffff1660c08173ffffffffffffffffffffffffffffffffffffffff1681525050505081600d9081620002a291906200099d565b5080601060006101000a81548173ffffffffffffffffffffffffffffffffffffffff021916908373ffffffffffffffffffffffffffffffffffffffff16021790555050505062000c53565b6000600760009054906101000a900473ffffffffffffffffffffffffffffffffffffffff16905081600760006101000a81548173ffffffffffffffffffffffffffffffffffffffff021916908373ffffffffffffffffffffffffffffffffffffffff1602179055508173ffffffffffffffffffffffffffffffffffffffff168173ffffffffffffffffffffffffffffffffffffffff167f8be0079c531659141344cd1fd0a4f28419497f9722a3daafe3b4186f6b6457e060405160405180910390a35050565b6000602083511015620003d957620003d1836200046860201b60201c565b905062000405565b82620003eb83620004d560201b60201c565b6000019081620003fc91906200099d565b5060ff60001b90505b92915050565b60007f8b73c3c69bb8fe3d512ecc4cf759cc79239f7b179b0ffacaa9a75d522b39400f60e0516101005146306040516020016200044d95949392919062000ade565b60405160208183030381529060405280519060200120905090565b600080829050601f81511115620004b857826040517f305a27a9000000000000000000000000000000000000000000000000000000008152600401620004af919062000b8d565b60405180910390fd5b805181620004c69062000be3565b60001c1760001b915050919050565b6000819050919050565b6000604051905090565b600080fd5b600080fd5b600073ffffffffffffffffffffffffffffffffffffffff82169050919050565b60006200052082620004f3565b9050919050565b620005328162000513565b81146200053e57600080fd5b50565b600081519050620005528162000527565b92915050565b600080fd5b600080fd5b6000601f19601f8301169050919050565b7f4e487b7100000000000000000000000000000000000000000000000000000000600052604160045260246000fd5b620005ad8262000562565b810181811067ffffffffffffffff82111715620005cf57620005ce62000573565b5b80604052505050565b6000620005e4620004df565b9050620005f28282620005a2565b919050565b600067ffffffffffffffff82111562000615576200061462000573565b5b620006208262000562565b9050602081019050919050565b60005b838110156200064d57808201518184015260208101905062000630565b60008484015250505050565b6000620006706200066a84620005f7565b620005d8565b9050828152602081018484840111156200068f576200068e6200055d565b5b6200069c8482856200062d565b509392505050565b600082601f830112620006bc57620006bb62000558565b5b8151620006ce84826020860162000659565b91505092915050565b600080600060608486031215620006f357620006f2620004e9565b5b6000620007038682870162000541565b935050602084015167ffffffffffffffff811115620007275762000726620004ee565b5b6200073586828701620006a4565b9250506040620007488682870162000541565b9150509250925092565b600081519050919050565b7f4e487b7100000000000000000000000000000000000000000000000000000000600052602260045260246000fd5b60006002820490506001821680620007a557607f821691505b602082108103620007bb57620007ba6200075d565b5b50919050565b60008190508160005260206000209050919050565b60006020601f8301049050919050565b600082821b905092915050565b600060088302620008257fffffffffffffffffffffffffffffffffffffffffffffffffffffffffffffffff82620007e6565b620008318683620007e6565b95508019841693508086168417925050509392505050565b6000819050919050565b6000819050919050565b60006200087e62000878620008728462000849565b62000853565b62000849565b9050919050565b6000819050919050565b6200089a836200085d565b620008b2620008a98262000885565b848454620007f3565b825550505050565b600090565b620008c9620008ba565b620008d68184846200088f565b505050565b5b81811015620008fe57620008f2600082620008bf565b600181019050620008dc565b5050565b601f8211156200094d576200091781620007c1565b6200092284620007d6565b8101602085101562000932578190505b6200094a6200094185620007d6565b830182620008db565b50505b505050565b600082821c905092915050565b6000620009726000198460080262000952565b1980831691505092915050565b60006200098d83836200095f565b9150826002028217905092915050565b620009a88262000752565b67ffffffffffffffff811115620009c457620009c362000573565b5b620009d082546200078c565b620009dd82828562000902565b600060209050601f83116001811462000a15576000841562000a00578287015190505b62000a0c85826200097f565b86555062000a7c565b601f19841662000a2586620007c1565b60005b8281101562000a4f5784890151825560018201915060208501945060208101905062000a28565b8683101562000a6f578489015162000a6b601f8916826200095f565b8355505b6001600288020188555050505b505050505050565b62000a8f8162000513565b82525050565b600060208201905062000aac600083018462000a84565b92915050565b6000819050919050565b62000ac78162000ab2565b82525050565b62000ad88162000849565b82525050565b600060a08201905062000af5600083018862000abc565b62000b04602083018762000abc565b62000b13604083018662000abc565b62000b22606083018562000acd565b62000b31608083018462000a84565b9695505050505050565b600082825260208201905092915050565b600062000b598262000752565b62000b65818562000b3b565b935062000b778185602086016200062d565b62000b828162000562565b840191505092915050565b6000602082019050818103600083015262000ba9818462000b4c565b905092915050565b600081519050919050565b6000819050602082019050919050565b600062000bda825162000ab2565b80915050919050565b600062000bf08262000bb1565b8262000bfc8462000bbc565b905062000c098162000bcc565b9250602082101562000c4c5762000c477fffffffffffffffffffffffffffffffffffffffffffffffffffffffffffffffff83602003600802620007e6565b831692505b5050919050565b60805160a05160c05160e05161010051610120516101405161423862000cae6000396000611b1a01526000611adf01526000612b0501526000612ae40152600061257a015260006125d0015260006125f901526142386000f3fe608060405234801561001057600080fd5b506004361061018e5760003560e01c8063715018a6116100de57806397fc007c11610097578063c87b56dd11610071578063c87b56dd14610439578063e5763b7314610469578063e985e9c514610485578063f2fde38b146104b55761018e565b806397fc007c146103e5578063a22cb46514610401578063b88d4fde1461041d5761018e565b8063715018a6146103415780637ecebe001461034b5780638456cb591461037b57806384b0196e146103855780638da5cb5b146103a957806395d89b41146103c75761018e565b806342842e0e1161014b57806355f804b31161012557806355f804b3146102a75780635c975abb146102c35780636352211e146102e157806370a08231146103115761018e565b806342842e0e1461025357806342966c681461026f57806353a780641461028b5761018e565b806301ffc9a71461019357806306fdde03146101c3578063081812fc146101e1578063095ea7b31461021157806323b872dd1461022d5780633f4ba83a14610249575b600080fd5b6101ad60048036038101906101a89190612f51565b6104d1565b6040516101ba9190612f99565b60405180910390f35b6101cb6104e3565b6040516101d89190613044565b60405180910390f35b6101fb60048036038101906101f6919061309c565b610575565b604051610208919061310a565b60405180910390f35b61022b60048036038101906102269190613151565b610591565b005b61024760048036038101906102429190613191565b6105a7565b005b6102516106a9565b005b61026d60048036038101906102689190613191565b610710565b005b6102896004803603810190610284919061309c565b610730565b005b6102a560048036038101906102a091906131e4565b6108b5565b005b6102c160048036038101906102bc9190613346565b610a26565b005b6102cb610abc565b6040516102d89190612f99565b60405180910390f35b6102fb60048036038101906102f6919061309c565b610ad3565b604051610308919061310a565b60405180910390f35b61032b600480360381019061032691906131e4565b610ae5565b604051610338919061339e565b60405180910390f35b610349610b9f565b005b610365600480360381019061036091906131e4565b610bb3565b604051610372919061339e565b60405180910390f35b610383610bfc565b005b61038d610c63565b6040516103a097969594939291906134cb565b60405180910390f35b6103b1610d0d565b6040516103be919061310a565b60405180910390f35b6103cf610d37565b6040516103dc9190613044565b60405180910390f35b6103ff60048036038101906103fa91906131e4565b610dc9565b005b61041b6004803603810190610416919061357b565b610f06565b005b6104376004803603810190610432919061365c565b610f1c565b005b610453600480360381019061044e919061309c565b610f41565b6040516104609190613044565b60405180910390f35b610483600480360381019061047e91906136df565b610f5d565b005b61049f600480360381019061049a919061377e565b6112dc565b6040516104ac9190612f99565b60405180910390f35b6104cf60048036038101906104ca91906131e4565b611370565b005b60006104dc826113f6565b9050919050565b6060600080546104f2906137ed565b80601f016020809104026020016040519081016040528092919081815260200182805461051e906137ed565b801561056b5780601f106105405761010080835404028352916020019161056b565b820191906000526020600020905b81548152906001019060200180831161054e57829003601f168201915b5050505050905090565b600061058082611457565b5061058a826114df565b9050919050565b6105a3828261059e61151c565b611524565b5050565b600073ffffffffffffffffffffffffffffffffffffffff168273ffffffffffffffffffffffffffffffffffffffff16036106195760006040517f64a0ae92000000000000000000000000000000000000000000000000000000008152600401610610919061310a565b60405180910390fd5b600061062d838361062861151c565b611536565b90508373ffffffffffffffffffffffffffffffffffffffff168173ffffffffffffffffffffffffffffffffffffffff16146106a3578382826040517f64283d7b00000000000000000000000000000000000000000000000000000000815260040161069a9392919061381e565b60405180910390fd5b50505050565b6106b1611750565b6106b96117d7565b6106c161151c565b73ffffffffffffffffffffffffffffffffffffffff167f107553d8191d85b405879cf752997865edd48d94e20bda4dd27223c94b31a7cc42604051610706919061339e565b60405180910390a2565b61072b83838360405180602001604052806000815250610f1c565b505050565b61073861183a565b610740611880565b600061074b82610ad3565b9050600061075761151c565b90508173ffffffffffffffffffffffffffffffffffffffff168173ffffffffffffffffffffffffffffffffffffffff161480610799575061079882826112dc565b5b806107d757508073ffffffffffffffffffffffffffffffffffffffff166107bf84610575565b73ffffffffffffffffffffffffffffffffffffffff16145b610816576040517f08c379a000000000000000000000000000000000000000000000000000000000815260040161080d906138a1565b60405180910390fd5b61082f83604051806020016040528060008152506118c1565b6108388361191d565b6000600e600085815260200190815260200160002060006101000a81548160ff021916908315150217905550828173ffffffffffffffffffffffffffffffffffffffff167f1af5163f80e79b5e554f61e1d052084d3a3fe1166e42a265798c4e2ddce8ffa260405160405180910390a350506108b26119a3565b50565b6108bd611750565b600073ffffffffffffffffffffffffffffffffffffffff168173ffffffffffffffffffffffffffffffffffffffff160361092c576040517f08c379a00000000000000000000000000000000000000000000000000000000081526004016109239061390d565b60405180910390fd5b6000600f60008373ffffffffffffffffffffffffffffffffffffffff1673ffffffffffffffffffffffffffffffffffffffff1681526020019081526020016000205490507fffffffffffffffffffffffffffffffffffffffffffffffffffffffffffffffff600f60008473ffffffffffffffffffffffffffffffffffffffff1673ffffffffffffffffffffffffffffffffffffffff168152602001908152602001600020819055508173ffffffffffffffffffffffffffffffffffffffff167f1800cd2301fbc20790ed94f3d55a28ef2306a9c31cd3c72b5b71b6e4cf5c624182604051610a1a919061339e565b60405180910390a25050565b610a2e611750565b6000815111610a72576040517f08c379a0000000000000000000000000000000000000000000000000000000008152600401610a6990613979565b60405180910390fd5b80600d9081610a819190613b45565b507f5411e8ebf1636d9e83d5fc4900bf80cbac82e8790da2a4c94db4895e889eedf681604051610ab19190613044565b60405180910390a150565b6000600960009054906101000a900460ff16905090565b6000610ade82611457565b9050919050565b60008073ffffffffffffffffffffffffffffffffffffffff168273ffffffffffffffffffffffffffffffffffffffff1603610b585760006040517f89c62b64000000000000000000000000000000000000000000000000000000008152600401610b4f919061310a565b60405180910390fd5b600360008373ffffffffffffffffffffffffffffffffffffffff1673ffffffffffffffffffffffffffffffffffffffff168152602001908152602001600020549050919050565b610ba7611750565b610bb160006119ad565b565b6000600f60008373ffffffffffffffffffffffffffffffffffffffff1673ffffffffffffffffffffffffffffffffffffffff168152602001908152602001600020549050919050565b610c04611750565b610c0c611a73565b610c1461151c565b73ffffffffffffffffffffffffffffffffffffffff167f80170b5fcdd2bf1e0660ef4b8851f86685f64d41b1a19de1471947ece8725aac42604051610c59919061339e565b60405180910390a2565b600060608060008060006060610c77611ad6565b610c7f611b11565b46306000801b600067ffffffffffffffff811115610ca057610c9f61321b565b5b604051908082528060200260200182016040528015610cce5781602001602082028036833780820191505090505b507f0f00000000000000000000000000000000000000000000000000000000000000959493929190965096509650965096509650965090919293949596565b6000600760009054906101000a900473ffffffffffffffffffffffffffffffffffffffff16905090565b606060018054610d46906137ed565b80601f0160208091040260200160405190810160405280929190818152602001828054610d72906137ed565b8015610dbf5780601f10610d9457610100808354040283529160200191610dbf565b820191906000526020600020905b815481529060010190602001808311610da257829003601f168201915b5050505050905090565b610dd1611750565b600073ffffffffffffffffffffffffffffffffffffffff168173ffffffffffffffffffffffffffffffffffffffff1603610e40576040517f08c379a0000000000000000000000000000000000000000000000000000000008152600401610e3790613c63565b60405180910390fd5b6000601060009054906101000a900473ffffffffffffffffffffffffffffffffffffffff16905081601060006101000a81548173ffffffffffffffffffffffffffffffffffffffff021916908373ffffffffffffffffffffffffffffffffffffffff1602179055508173ffffffffffffffffffffffffffffffffffffffff168173ffffffffffffffffffffffffffffffffffffffff167f0243549a92b2412f7a3caf7a2e56d65b8821b91345363faa5f57195384065fcc60405160405180910390a35050565b610f18610f1161151c565b8383611b4c565b5050565b610f278484846105a7565b610f3b610f3261151c565b85858585611cbb565b50505050565b6060610f4c82610ad3565b50610f5682611e6c565b9050919050565b610f6561183a565b610f6d611880565b81421115610fb0576040517f08c379a0000000000000000000000000000000000000000000000000000000008152600401610fa790613ccf565b60405180910390fd5b600073ffffffffffffffffffffffffffffffffffffffff168473ffffffffffffffffffffffffffffffffffffffff160361101f576040517f08c379a000000000000000000000000000000000000000000000000000000000815260040161101690613d3b565b60405180910390fd5b6000835111611063576040517f08c379a000000000000000000000000000000000000000000000000000000000815260040161105a90613da7565b60405180910390fd5b60007fce3829100355b953ccf0678623667f04f1ef312616e89358bc4973f327d3b68b858580519060200120600f60008973ffffffffffffffffffffffffffffffffffffffff1673ffffffffffffffffffffffffffffffffffffffff16815260200190815260200160002060008154809291906110df90613df6565b91905055866040516020016110f8959493929190613e3e565b604051602081830303815290604052805190602001209050600061111b82611f7f565b905060006111298285611f99565b9050601060009054906101000a900473ffffffffffffffffffffffffffffffffffffffff1673ffffffffffffffffffffffffffffffffffffffff168173ffffffffffffffffffffffffffffffffffffffff16146111bb576040517f08c379a00000000000000000000000000000000000000000000000000000000081526004016111b290613edd565b60405180910390fd5b6000600c549050600e600082815260200190815260200160002060009054906101000a900460ff1615611223576040517f08c379a000000000000000000000000000000000000000000000000000000000815260040161121a90613f49565b60405180910390fd5b600c600081548092919061123690613df6565b91905055506001600e600083815260200190815260200160002060006101000a81548160ff0219169083151502179055506112718882611fc5565b61127b81886118c1565b808873ffffffffffffffffffffffffffffffffffffffff167fdf92894dc4675a7333caa5903b69cf5d8e8ec0d3f361c88207b6688e525703bb896040516112c29190613044565b60405180910390a3505050506112d66119a3565b50505050565b6000600560008473ffffffffffffffffffffffffffffffffffffffff1673ffffffffffffffffffffffffffffffffffffffff16815260200190815260200160002060008373ffffffffffffffffffffffffffffffffffffffff1673ffffffffffffffffffffffffffffffffffffffff16815260200190815260200160002060009054906101000a900460ff16905092915050565b611378611750565b600073ffffffffffffffffffffffffffffffffffffffff168173ffffffffffffffffffffffffffffffffffffffff16036113ea5760006040517f1e4fbdf70000000000000000000000000000000000000000000000000000000081526004016113e1919061310a565b60405180910390fd5b6113f3816119ad565b50565b6000634906490660e01b7bffffffffffffffffffffffffffffffffffffffffffffffffffffffff1916827bffffffffffffffffffffffffffffffffffffffffffffffffffffffff19161480611450575061144f82611fe3565b5b9050919050565b600080611463836120c5565b9050600073ffffffffffffffffffffffffffffffffffffffff168173ffffffffffffffffffffffffffffffffffffffff16036114d657826040517f7e2732890000000000000000000000000000000000000000000000000000000081526004016114cd919061339e565b60405180910390fd5b80915050919050565b60006004600083815260200190815260200160002060009054906101000a900473ffffffffffffffffffffffffffffffffffffffff169050919050565b600033905090565b6115318383836001612102565b505050565b600080611542846120c5565b9050600073ffffffffffffffffffffffffffffffffffffffff168373ffffffffffffffffffffffffffffffffffffffff1614611584576115838184866122c7565b5b600073ffffffffffffffffffffffffffffffffffffffff168173ffffffffffffffffffffffffffffffffffffffff1614611615576115c6600085600080612102565b6001600360008373ffffffffffffffffffffffffffffffffffffffff1673ffffffffffffffffffffffffffffffffffffffff168152602001908152602001600020600082825403925050819055505b600073ffffffffffffffffffffffffffffffffffffffff168573ffffffffffffffffffffffffffffffffffffffff1614611698576001600360008773ffffffffffffffffffffffffffffffffffffffff1673ffffffffffffffffffffffffffffffffffffffff168152602001908152602001600020600082825401925050819055505b846002600086815260200190815260200160002060006101000a81548173ffffffffffffffffffffffffffffffffffffffff021916908373ffffffffffffffffffffffffffffffffffffffff160217905550838573ffffffffffffffffffffffffffffffffffffffff168273ffffffffffffffffffffffffffffffffffffffff167fddf252ad1be2c89b69c2b068fc378daa952ba7f163c4a11628f55a4df523b3ef60405160405180910390a4809150509392505050565b61175861151c565b73ffffffffffffffffffffffffffffffffffffffff16611776610d0d565b73ffffffffffffffffffffffffffffffffffffffff16146117d55761179961151c565b6040517f118cdaa70000000000000000000000000000000000000000000000000000000081526004016117cc919061310a565b60405180910390fd5b565b6117df61238b565b6000600960006101000a81548160ff0219169083151502179055507f5db9ee0a495bf2e6ff9c91a7834c1ba4fdd244a5e8aa4e537bd38aeae4b073aa61182361151c565b604051611830919061310a565b60405180910390a1565b600260085403611876576040517f3ee5aeb500000000000000000000000000000000000000000000000000000000815260040160405180910390fd5b6002600881905550565b611888610abc565b156118bf576040517fd93c066500000000000000000000000000000000000000000000000000000000815260040160405180910390fd5b565b806006600084815260200190815260200160002090816118e19190613b45565b507ff8e1a15aba9398e019f0b49df1a4fde98ee17ae345cb5f6b5e2c27f5033e8ce782604051611911919061339e565b60405180910390a15050565b600061192c6000836000611536565b9050600073ffffffffffffffffffffffffffffffffffffffff168173ffffffffffffffffffffffffffffffffffffffff160361199f57816040517f7e273289000000000000000000000000000000000000000000000000000000008152600401611996919061339e565b60405180910390fd5b5050565b6001600881905550565b6000600760009054906101000a900473ffffffffffffffffffffffffffffffffffffffff16905081600760006101000a81548173ffffffffffffffffffffffffffffffffffffffff021916908373ffffffffffffffffffffffffffffffffffffffff1602179055508173ffffffffffffffffffffffffffffffffffffffff168173ffffffffffffffffffffffffffffffffffffffff167f8be0079c531659141344cd1fd0a4f28419497f9722a3daafe3b4186f6b6457e060405160405180910390a35050565b611a7b611880565b6001600960006101000a81548160ff0219169083151502179055507f62e78cea01bee320cd4e420270b5ea74000d11b0c9f74754ebdbfc544b05a258611abf61151c565b604051611acc919061310a565b60405180910390a1565b6060611b0c600a7f00000000000000000000000000000000000000000000000000000000000000006123cb90919063ffffffff16565b905090565b6060611b47600b7f00000000000000000000000000000000000000000000000000000000000000006123cb90919063ffffffff16565b905090565b600073ffffffffffffffffffffffffffffffffffffffff168273ffffffffffffffffffffffffffffffffffffffff1603611bbd57816040517f5b08ba18000000000000000000000000000000000000000000000000000000008152600401611bb4919061310a565b60405180910390fd5b80600560008573ffffffffffffffffffffffffffffffffffffffff1673ffffffffffffffffffffffffffffffffffffffff16815260200190815260200160002060008473ffffffffffffffffffffffffffffffffffffffff1673ffffffffffffffffffffffffffffffffffffffff16815260200190815260200160002060006101000a81548160ff0219169083151502179055508173ffffffffffffffffffffffffffffffffffffffff168373ffffffffffffffffffffffffffffffffffffffff167f17307eab39ab6107e8899845ad3d59bd9653f200f220920489ca2b5937696c3183604051611cae9190612f99565b60405180910390a3505050565b60008373ffffffffffffffffffffffffffffffffffffffff163b1115611e65578273ffffffffffffffffffffffffffffffffffffffff1663150b7a02868685856040518563ffffffff1660e01b8152600401611d1a9493929190613fbe565b6020604051808303816000875af1925050508015611d5657506040513d601f19601f82011682018060405250810190611d53919061401f565b60015b611dda573d8060008114611d86576040519150601f19603f3d011682016040523d82523d6000602084013e611d8b565b606091505b506000815103611dd257836040517f64a0ae92000000000000000000000000000000000000000000000000000000008152600401611dc9919061310a565b60405180910390fd5b805181602001fd5b63150b7a0260e01b7bffffffffffffffffffffffffffffffffffffffffffffffffffffffff1916817bffffffffffffffffffffffffffffffffffffffffffffffffffffffff191614611e6357836040517f64a0ae92000000000000000000000000000000000000000000000000000000008152600401611e5a919061310a565b60405180910390fd5b505b5050505050565b6060611e7782611457565b506000600660008481526020019081526020016000208054611e98906137ed565b80601f0160208091040260200160405190810160405280929190818152602001828054611ec4906137ed565b8015611f115780601f10611ee657610100808354040283529160200191611f11565b820191906000526020600020905b815481529060010190602001808311611ef457829003601f168201915b505050505090506000611f2261247b565b90506000815103611f37578192505050611f7a565b600082511115611f6c578082604051602001611f54929190614088565b60405160208183030381529060405292505050611f7a565b611f758461250d565b925050505b919050565b6000611f92611f8c612576565b8361262d565b9050919050565b600080600080611fa9868661266e565b925092509250611fb982826126ca565b82935050505092915050565b611fdf82826040518060200160405280600081525061282e565b5050565b60007f80ac58cd000000000000000000000000000000000000000000000000000000007bffffffffffffffffffffffffffffffffffffffffffffffffffffffff1916827bffffffffffffffffffffffffffffffffffffffffffffffffffffffff191614806120ae57507f5b5e139f000000000000000000000000000000000000000000000000000000007bffffffffffffffffffffffffffffffffffffffffffffffffffffffff1916827bffffffffffffffffffffffffffffffffffffffffffffffffffffffff1916145b806120be57506120bd82612852565b5b9050919050565b60006002600083815260200190815260200160002060009054906101000a900473ffffffffffffffffffffffffffffffffffffffff169050919050565b808061213b5750600073ffffffffffffffffffffffffffffffffffffffff168273ffffffffffffffffffffffffffffffffffffffff1614155b1561226f57600061214b84611457565b9050600073ffffffffffffffffffffffffffffffffffffffff168373ffffffffffffffffffffffffffffffffffffffff16141580156121b657508273ffffffffffffffffffffffffffffffffffffffff168173ffffffffffffffffffffffffffffffffffffffff1614155b80156121c957506121c781846112dc565b155b1561220b57826040517fa9fbf51f000000000000000000000000000000000000000000000000000000008152600401612202919061310a565b60405180910390fd5b811561226d57838573ffffffffffffffffffffffffffffffffffffffff168273ffffffffffffffffffffffffffffffffffffffff167f8c5be1e5ebec7d5bd14f71427d1e84f3dd0314c0f7b2291e5b200ac8c7c3b92560405160405180910390a45b505b836004600085815260200190815260200160002060006101000a81548173ffffffffffffffffffffffffffffffffffffffff021916908373ffffffffffffffffffffffffffffffffffffffff16021790555050505050565b6122d28383836128bc565b61238657600073ffffffffffffffffffffffffffffffffffffffff168373ffffffffffffffffffffffffffffffffffffffff160361234757806040517f7e27328900000000000000000000000000000000000000000000000000000000815260040161233e919061339e565b60405180910390fd5b81816040517f177e802f00000000000000000000000000000000000000000000000000000000815260040161237d9291906140ac565b60405180910390fd5b505050565b612393610abc565b6123c9576040517f8dfc202b00000000000000000000000000000000000000000000000000000000815260040160405180910390fd5b565b606060ff60001b83146123e8576123e18361297d565b9050612475565b8180546123f4906137ed565b80601f0160208091040260200160405190810160405280929190818152602001828054612420906137ed565b801561246d5780601f106124425761010080835404028352916020019161246d565b820191906000526020600020905b81548152906001019060200180831161245057829003601f168201915b505050505090505b92915050565b6060600d805461248a906137ed565b80601f01602080910402602001604051908101604052809291908181526020018280546124b6906137ed565b80156125035780601f106124d857610100808354040283529160200191612503565b820191906000526020600020905b8154815290600101906020018083116124e657829003601f168201915b5050505050905090565b606061251882611457565b50600061252361247b565b90506000815111612543576040518060200160405280600081525061256e565b8061254d846129f1565b60405160200161255e929190614088565b6040516020818303038152906040525b915050919050565b60007f000000000000000000000000000000000000000000000000000000000000000073ffffffffffffffffffffffffffffffffffffffff163073ffffffffffffffffffffffffffffffffffffffff161480156125f257507f000000000000000000000000000000000000000000000000000000000000000046145b1561261f577f0000000000000000000000000000000000000000000000000000000000000000905061262a565b612627612abf565b90505b90565b60006040517f190100000000000000000000000000000000000000000000000000000000000081528360028201528260228201526042812091505092915050565b600080600060418451036126b35760008060006020870151925060408701519150606087015160001a90506126a588828585612b55565b9550955095505050506126c3565b60006002855160001b9250925092505b9250925092565b600060038111156126de576126dd6140d5565b5b8260038111156126f1576126f06140d5565b5b031561282a576001600381111561270b5761270a6140d5565b5b82600381111561271e5761271d6140d5565b5b03612755576040517ff645eedf00000000000000000000000000000000000000000000000000000000815260040160405180910390fd5b60026003811115612769576127686140d5565b5b82600381111561277c5761277b6140d5565b5b036127c1578060001c6040517ffce698f70000000000000000000000000000000000000000000000000000000081526004016127b8919061339e565b60405180910390fd5b6003808111156127d4576127d36140d5565b5b8260038111156127e7576127e66140d5565b5b0361282957806040517fd78bce0c0000000000000000000000000000000000000000000000000000000081526004016128209190614104565b60405180910390fd5b5b5050565b6128388383612c49565b61284d61284361151c565b6000858585611cbb565b505050565b60007f01ffc9a7000000000000000000000000000000000000000000000000000000007bffffffffffffffffffffffffffffffffffffffffffffffffffffffff1916827bffffffffffffffffffffffffffffffffffffffffffffffffffffffff1916149050919050565b60008073ffffffffffffffffffffffffffffffffffffffff168373ffffffffffffffffffffffffffffffffffffffff161415801561297457508273ffffffffffffffffffffffffffffffffffffffff168473ffffffffffffffffffffffffffffffffffffffff161480612935575061293484846112dc565b5b8061297357508273ffffffffffffffffffffffffffffffffffffffff1661295b836114df565b73ffffffffffffffffffffffffffffffffffffffff16145b5b90509392505050565b6060600061298a83612d42565b90506000602067ffffffffffffffff8111156129a9576129a861321b565b5b6040519080825280601f01601f1916602001820160405280156129db5781602001600182028036833780820191505090505b5090508181528360208201528092505050919050565b606060006001612a0084612d92565b01905060008167ffffffffffffffff811115612a1f57612a1e61321b565b5b6040519080825280601f01601f191660200182016040528015612a515781602001600182028036833780820191505090505b509050600082602001820190505b600115612ab4578080600190039150507f3031323334353637383961626364656600000000000000000000000000000000600a86061a8153600a8581612aa857612aa761411f565b5b04945060008503612a5f575b819350505050919050565b60007f8b73c3c69bb8fe3d512ecc4cf759cc79239f7b179b0ffacaa9a75d522b39400f7f00000000000000000000000000000000000000000000000000000000000000007f00000000000000000000000000000000000000000000000000000000000000004630604051602001612b3a95949392919061414e565b60405160208183030381529060405280519060200120905090565b60008060007f7fffffffffffffffffffffffffffffff5d576e7357a4501ddfe92f46681b20a08460001c1115612b95576000600385925092509250612c3f565b600060018888888860405160008152602001604052604051612bba94939291906141bd565b6020604051602081039080840390855afa158015612bdc573d6000803e3d6000fd5b505050602060405103519050600073ffffffffffffffffffffffffffffffffffffffff168173ffffffffffffffffffffffffffffffffffffffff1603612c3057600060016000801b93509350935050612c3f565b8060008060001b935093509350505b9450945094915050565b600073ffffffffffffffffffffffffffffffffffffffff168273ffffffffffffffffffffffffffffffffffffffff1603612cbb5760006040517f64a0ae92000000000000000000000000000000000000000000000000000000008152600401612cb2919061310a565b60405180910390fd5b6000612cc983836000611536565b9050600073ffffffffffffffffffffffffffffffffffffffff168173ffffffffffffffffffffffffffffffffffffffff1614612d3d5760006040517f73c6ac6e000000000000000000000000000000000000000000000000000000008152600401612d34919061310a565b60405180910390fd5b505050565b60008060ff8360001c169050601f811115612d89576040517fb3512b0c00000000000000000000000000000000000000000000000000000000815260040160405180910390fd5b80915050919050565b600080600090507a184f03e93ff9f4daa797ed6e38ed64bf6a1f0100000000000000008310612df0577a184f03e93ff9f4daa797ed6e38ed64bf6a1f0100000000000000008381612de657612de561411f565b5b0492506040810190505b6d04ee2d6d415b85acef81000000008310612e2d576d04ee2d6d415b85acef81000000008381612e2357612e2261411f565b5b0492506020810190505b662386f26fc100008310612e5c57662386f26fc100008381612e5257612e5161411f565b5b0492506010810190505b6305f5e1008310612e85576305f5e1008381612e7b57612e7a61411f565b5b0492506008810190505b6127108310612eaa576127108381612ea057612e9f61411f565b5b0492506004810190505b60648310612ecd5760648381612ec357612ec261411f565b5b0492506002810190505b600a8310612edc576001810190505b80915050919050565b6000604051905090565b600080fd5b600080fd5b60007fffffffff0000000000000000000000000000000000000000000000000000000082169050919050565b612f2e81612ef9565b8114612f3957600080fd5b50565b600081359050612f4b81612f25565b92915050565b600060208284031215612f6757612f66612eef565b5b6000612f7584828501612f3c565b91505092915050565b60008115159050919050565b612f9381612f7e565b82525050565b6000602082019050612fae6000830184612f8a565b92915050565b600081519050919050565b600082825260208201905092915050565b60005b83811015612fee578082015181840152602081019050612fd3565b60008484015250505050565b6000601f19601f8301169050919050565b600061301682612fb4565b6130208185612fbf565b9350613030818560208601612fd0565b61303981612ffa565b840191505092915050565b6000602082019050818103600083015261305e818461300b565b905092915050565b6000819050919050565b61307981613066565b811461308457600080fd5b50565b60008135905061309681613070565b92915050565b6000602082840312156130b2576130b1612eef565b5b60006130c084828501613087565b91505092915050565b600073ffffffffffffffffffffffffffffffffffffffff82169050919050565b60006130f4826130c9565b9050919050565b613104816130e9565b82525050565b600060208201905061311f60008301846130fb565b92915050565b61312e816130e9565b811461313957600080fd5b50565b60008135905061314b81613125565b92915050565b6000806040838503121561316857613167612eef565b5b60006131768582860161313c565b925050602061318785828601613087565b9150509250929050565b6000806000606084860312156131aa576131a9612eef565b5b60006131b88682870161313c565b93505060206131c98682870161313c565b92505060406131da86828701613087565b9150509250925092565b6000602082840312156131fa576131f9612eef565b5b60006132088482850161313c565b91505092915050565b600080fd5b600080fd5b7f4e487b7100000000000000000000000000000000000000000000000000000000600052604160045260246000fd5b61325382612ffa565b810181811067ffffffffffffffff821117156132725761327161321b565b5b80604052505050565b6000613285612ee5565b9050613291828261324a565b919050565b600067ffffffffffffffff8211156132b1576132b061321b565b5b6132ba82612ffa565b9050602081019050919050565b82818337600083830152505050565b60006132e96132e484613296565b61327b565b90508281526020810184848401111561330557613304613216565b5b6133108482856132c7565b509392505050565b600082601f83011261332d5761332c613211565b5b813561333d8482602086016132d6565b91505092915050565b60006020828403121561335c5761335b612eef565b5b600082013567ffffffffffffffff81111561337a57613379612ef4565b5b61338684828501613318565b91505092915050565b61339881613066565b82525050565b60006020820190506133b3600083018461338f565b92915050565b60007fff0000000000000000000000000000000000000000000000000000000000000082169050919050565b6133ee816133b9565b82525050565b6000819050919050565b613407816133f4565b82525050565b600081519050919050565b600082825260208201905092915050565b6000819050602082019050919050565b61344281613066565b82525050565b60006134548383613439565b60208301905092915050565b6000602082019050919050565b60006134788261340d565b6134828185613418565b935061348d83613429565b8060005b838110156134be5781516134a58882613448565b97506134b083613460565b925050600181019050613491565b5085935050505092915050565b600060e0820190506134e0600083018a6133e5565b81810360208301526134f2818961300b565b90508181036040830152613506818861300b565b9050613515606083018761338f565b61352260808301866130fb565b61352f60a08301856133fe565b81810360c0830152613541818461346d565b905098975050505050505050565b61355881612f7e565b811461356357600080fd5b50565b6000813590506135758161354f565b92915050565b6000806040838503121561359257613591612eef565b5b60006135a08582860161313c565b92505060206135b185828601613566565b9150509250929050565b600067ffffffffffffffff8211156135d6576135d561321b565b5b6135df82612ffa565b9050602081019050919050565b60006135ff6135fa846135bb565b61327b565b90508281526020810184848401111561361b5761361a613216565b5b6136268482856132c7565b509392505050565b600082601f83011261364357613642613211565b5b81356136538482602086016135ec565b91505092915050565b6000806000806080858703121561367657613675612eef565b5b60006136848782880161313c565b94505060206136958782880161313c565b93505060406136a687828801613087565b925050606085013567ffffffffffffffff8111156136c7576136c6612ef4565b5b6136d38782880161362e565b91505092959194509250565b600080600080608085870312156136f9576136f8612eef565b5b60006137078782880161313c565b945050602085013567ffffffffffffffff81111561372857613727612ef4565b5b61373487828801613318565b935050604061374587828801613087565b925050606085013567ffffffffffffffff81111561376657613765612ef4565b5b6137728782880161362e565b91505092959194509250565b6000806040838503121561379557613794612eef565b5b60006137a38582860161313c565b92505060206137b48582860161313c565b9150509250929050565b7f4e487b7100000000000000000000000000000000000000000000000000000000600052602260045260246000fd5b6000600282049050600182168061380557607f821691505b602082108103613818576138176137be565b5b50919050565b600060608201905061383360008301866130fb565b613840602083018561338f565b61384d60408301846130fb565b949350505050565b7f43616c6c6572206973206e6f74206f776e6572206f7220617070726f76656400600082015250565b600061388b601f83612fbf565b915061389682613855565b602082019050919050565b600060208201905081810360008301526138ba8161387e565b9050919050565b7f496e76616c696420757365722061646472657373000000000000000000000000600082015250565b60006138f7601483612fbf565b9150613902826138c1565b602082019050919050565b60006020820190508181036000830152613926816138ea565b9050919050565b7f42617365205552492063616e6e6f7420626520656d7074790000000000000000600082015250565b6000613963601883612fbf565b915061396e8261392d565b602082019050919050565b6000602082019050818103600083015261399281613956565b9050919050565b60008190508160005260206000209050919050565b60006020601f8301049050919050565b600082821b905092915050565b6000600883026139fb7fffffffffffffffffffffffffffffffffffffffffffffffffffffffffffffffff826139be565b613a0586836139be565b95508019841693508086168417925050509392505050565b6000819050919050565b6000613a42613a3d613a3884613066565b613a1d565b613066565b9050919050565b6000819050919050565b613a5c83613a27565b613a70613a6882613a49565b8484546139cb565b825550505050565b600090565b613a85613a78565b613a90818484613a53565b505050565b5b81811015613ab457613aa9600082613a7d565b600181019050613a96565b5050565b601f821115613af957613aca81613999565b613ad3846139ae565b81016020851015613ae2578190505b613af6613aee856139ae565b830182613a95565b50505b505050565b600082821c905092915050565b6000613b1c60001984600802613afe565b1980831691505092915050565b6000613b358383613b0b565b9150826002028217905092915050565b613b4e82612fb4565b67ffffffffffffffff811115613b6757613b6661321b565b5b613b7182546137ed565b613b7c828285613ab8565b600060209050601f831160018114613baf5760008415613b9d578287015190505b613ba78582613b29565b865550613c0f565b601f198416613bbd86613999565b60005b82811015613be557848901518255600182019150602085019450602081019050613bc0565b86831015613c025784890151613bfe601f891682613b0b565b8355505b6001600288020188555050505b505050505050565b7f496e76616c696420766572696669657220616464726573730000000000000000600082015250565b6000613c4d601883612fbf565b9150613c5882613c17565b602082019050919050565b60006020820190508181036000830152613c7c81613c40565b9050919050565b7f5369676e61747572652065787069726564000000000000000000000000000000600082015250565b6000613cb9601183612fbf565b9150613cc482613c83565b602082019050919050565b60006020820190508181036000830152613ce881613cac565b9050919050565b7f496e76616c696420726563697069656e74206164647265737300000000000000600082015250565b6000613d25601983612fbf565b9150613d3082613cef565b602082019050919050565b60006020820190508181036000830152613d5481613d18565b9050919050565b7f5552492063616e6e6f7420626520656d70747900000000000000000000000000600082015250565b6000613d91601383612fbf565b9150613d9c82613d5b565b602082019050919050565b60006020820190508181036000830152613dc081613d84565b9050919050565b7f4e487b7100000000000000000000000000000000000000000000000000000000600052601160045260246000fd5b6000613e0182613066565b91507fffffffffffffffffffffffffffffffffffffffffffffffffffffffffffffffff8203613e3357613e32613dc7565b5b600182019050919050565b600060a082019050613e5360008301886133fe565b613e6060208301876130fb565b613e6d60408301866133fe565b613e7a606083018561338f565b613e87608083018461338f565b9695505050505050565b7f496e76616c6964207369676e6174757265000000000000000000000000000000600082015250565b6000613ec7601183612fbf565b9150613ed282613e91565b602082019050919050565b60006020820190508181036000830152613ef681613eba565b9050919050565b7f546f6b656e20494420616c726561647920757365640000000000000000000000600082015250565b6000613f33601583612fbf565b9150613f3e82613efd565b602082019050919050565b60006020820190508181036000830152613f6281613f26565b9050919050565b600081519050919050565b600082825260208201905092915050565b6000613f9082613f69565b613f9a8185613f74565b9350613faa818560208601612fd0565b613fb381612ffa565b840191505092915050565b6000608082019050613fd360008301876130fb565b613fe060208301866130fb565b613fed604083018561338f565b8181036060830152613fff8184613f85565b905095945050505050565b60008151905061401981612f25565b92915050565b60006020828403121561403557614034612eef565b5b60006140438482850161400a565b91505092915050565b600081905092915050565b600061406282612fb4565b61406c818561404c565b935061407c818560208601612fd0565b80840191505092915050565b60006140948285614057565b91506140a08284614057565b91508190509392505050565b60006040820190506140c160008301856130fb565b6140ce602083018461338f565b9392505050565b7f4e487b7100000000000000000000000000000000000000000000000000000000600052602160045260246000fd5b600060208201905061411960008301846133fe565b92915050565b7f4e487b7100000000000000000000000000000000000000000000000000000000600052601260045260246000fd5b600060a08201905061416360008301886133fe565b61417060208301876133fe565b61417d60408301866133fe565b61418a606083018561338f565b61419760808301846130fb565b9695505050505050565b600060ff82169050919050565b6141b7816141a1565b82525050565b60006080820190506141d260008301876133fe565b6141df60208301866141ae565b6141ec60408301856133fe565b6141f960608301846133fe565b9594505050505056fea2646970667358221220e68cbf8457b80d6ce5db5a2aebf774f39f6e7bd8faba71b3c63af0b06100714a64736f6c63430008140033",
  "linkReferences": {},
  "deployedLinkReferences": {}
}