{
  "_format": "hh-sol-artifact-1",
  "contractName": "CraftiaxNFT",
  "sourceName": "contracts/CNFT.sol",
  "abi": [
    {
      "inputs": [
        {
          "internalType": "address",
          "name": "initialOwner",
          "type": "address"
        },
        {
          "internalType": "string",
          "name": "baseURI",
          "type": "string"
        },
        {
          "internalType": "address",
          "name": "verifier",
          "type": "address"
        }
      ],
      "stateMutability": "nonpayable",
      "type": "constructor"
    },
    {
      "inputs": [],
      "name": "ECDSAInvalidSignature",
      "type": "error"
    },
    {
      "inputs": [
        {
          "internalType": "uint256",
          "name": "length",
          "type": "uint256"
        }
      ],
      "name": "ECDSAInvalidSignatureLength",
      "type": "error"
    },
    {
      "inputs": [
        {
          "internalType": "bytes32",
          "name": "s",
          "type": "bytes32"
        }
      ],
      "name": "ECDSAInvalidSignatureS",
      "type": "error"
    },
    {
      "inputs": [
        {
          "internalType": "address",
          "name": "sender",
          "type": "address"
        },
        {
          "internalType": "uint256",
          "name": "tokenId",
          "type": "uint256"
        },
        {
          "internalType": "address",
          "name": "owner",
          "type": "address"
        }
      ],
      "name": "ERC721IncorrectOwner",
      "type": "error"
    },
    {
      "inputs": [
        {
          "internalType": "address",
          "name": "operator",
          "type": "address"
        },
        {
          "internalType": "uint256",
          "name": "tokenId",
          "type": "uint256"
        }
      ],
      "name": "ERC721InsufficientApproval",
      "type": "error"
    },
    {
      "inputs": [
        {
          "internalType": "address",
          "name": "approver",
          "type": "address"
        }
      ],
      "name": "ERC721InvalidApprover",
      "type": "error"
    },
    {
      "inputs": [
        {
          "internalType": "address",
          "name": "operator",
          "type": "address"
        }
      ],
      "name": "ERC721InvalidOperator",
      "type": "error"
    },
    {
      "inputs": [
        {
          "internalType": "address",
          "name": "owner",
          "type": "address"
        }
      ],
      "name": "ERC721InvalidOwner",
      "type": "error"
    },
    {
      "inputs": [
        {
          "internalType": "address",
          "name": "receiver",
          "type": "address"
        }
      ],
      "name": "ERC721InvalidReceiver",
      "type": "error"
    },
    {
      "inputs": [
        {
          "internalType": "address",
          "name": "sender",
          "type": "address"
        }
      ],
      "name": "ERC721InvalidSender",
      "type": "error"
    },
    {
      "inputs": [
        {
          "internalType": "uint256",
          "name": "tokenId",
          "type": "uint256"
        }
      ],
      "name": "ERC721NonexistentToken",
      "type": "error"
    },
    {
      "inputs": [],
      "name": "EnforcedPause",
      "type": "error"
    },
    {
      "inputs": [],
      "name": "ExpectedPause",
      "type": "error"
    },
    {
      "inputs": [],
      "name": "InvalidShortString",
      "type": "error"
    },
    {
      "inputs": [
        {
          "internalType": "address",
          "name": "owner",
          "type": "address"
        }
      ],
      "name": "OwnableInvalidOwner",
      "type": "error"
    },
    {
      "inputs": [
        {
          "internalType": "address",
          "name": "account",
          "type": "address"
        }
      ],
      "name": "OwnableUnauthorizedAccount",
      "type": "error"
    },
    {
      "inputs": [],
      "name": "ReentrancyGuardReentrantCall",
      "type": "error"
    },
    {
      "inputs": [
        {
          "internalType": "string",
          "name": "str",
          "type": "string"
        }
      ],
      "name": "StringTooLong",
      "type": "error"
    },
    {
      "anonymous": false,
      "inputs": [
        {
          "indexed": true,
          "internalType": "address",
          "name": "owner",
          "type": "address"
        },
        {
          "indexed": true,
          "internalType": "address",
          "name": "approved",
          "type": "address"
        },
        {
          "indexed": true,
          "internalType": "uint256",
          "name": "tokenId",
          "type": "uint256"
        }
      ],
      "name": "Approval",
      "type": "event"
    },
    {
      "anonymous": false,
      "inputs": [
        {
          "indexed": true,
          "internalType": "address",
          "name": "owner",
          "type": "address"
        },
        {
          "indexed": true,
          "internalType": "address",
          "name": "operator",
          "type": "address"
        },
        {
          "indexed": false,
          "internalType": "bool",
          "name": "approved",
          "type": "bool"
        }
      ],
      "name": "ApprovalForAll",
      "type": "event"
    },
    {
      "anonymous": false,
      "inputs": [
        {
          "indexed": false,
          "internalType": "string",
          "name": "newBaseURI",
          "type": "string"
        }
      ],
      "name": "BaseURIChanged",
      "type": "event"
    },
    {
      "anonymous": false,
      "inputs": [
        {
          "indexed": false,
          "internalType": "uint256",
          "name": "_fromTokenId",
          "type": "uint256"
        },
        {
          "indexed": false,
          "internalType": "uint256",
          "name": "_toTokenId",
          "type": "uint256"
        }
      ],
      "name": "BatchMetadataUpdate",
      "type": "event"
    },
    {
      "anonymous": false,
      "inputs": [],
      "name": "EIP712DomainChanged",
      "type": "event"
    },
    {
      "anonymous": false,
      "inputs": [
        {
          "indexed": false,
          "internalType": "uint256",
          "name": "_tokenId",
          "type": "uint256"
        }
      ],
      "name": "MetadataUpdate",
      "type": "event"
    },
    {
      "anonymous": false,
      "inputs": [
        {
          "indexed": true,
          "internalType": "address",
          "name": "previousOwner",
          "type": "address"
        },
        {
          "indexed": true,
          "internalType": "address",
          "name": "newOwner",
          "type": "address"
        }
      ],
      "name": "OwnershipTransferred",
      "type": "event"
    },
    {
      "anonymous": false,
      "inputs": [
        {
          "indexed": false,
          "internalType": "address",
          "name": "account",
          "type": "address"
        }
      ],
      "name": "Paused",
      "type": "event"
    },
    {
      "anonymous": false,
      "inputs": [
        {
          "indexed": true,
          "internalType": "address",
          "name": "burner",
          "type": "address"
        },
        {
          "indexed": true,
          "internalType": "uint256",
          "name": "tokenId",
          "type": "uint256"
        }
      ],
      "name": "TokenBurned",
      "type": "event"
    },
    {
      "anonymous": false,
      "inputs": [
        {
          "indexed": true,
          "internalType": "address",
          "name": "to",
          "type": "address"
        },
        {
          "indexed": true,
          "internalType": "uint256",
          "name": "tokenId",
          "type": "uint256"
        },
        {
          "indexed": false,
          "internalType": "string",
          "name": "uri",
          "type": "string"
        }
      ],
      "name": "TokenMinted",
      "type": "event"
    },
    {
      "anonymous": false,
      "inputs": [
        {
          "indexed": true,
          "internalType": "address",
          "name": "from",
          "type": "address"
        },
        {
          "indexed": true,
          "internalType": "address",
          "name": "to",
          "type": "address"
        },
        {
          "indexed": true,
          "internalType": "uint256",
          "name": "tokenId",
          "type": "uint256"
        }
      ],
      "name": "Transfer",
      "type": "event"
    },
    {
      "anonymous": false,
      "inputs": [
        {
          "indexed": false,
          "internalType": "address",
          "name": "account",
          "type": "address"
        }
      ],
      "name": "Unpaused",
      "type": "event"
    },
    {
      "inputs": [
        {
          "internalType": "address",
          "name": "to",
          "type": "address"
        },
        {
          "internalType": "uint256",
          "name": "tokenId",
          "type": "uint256"
        }
      ],
      "name": "approve",
      "outputs": [],
      "stateMutability": "nonpayable",
      "type": "function"
    },
    {
      "inputs": [
        {
          "internalType": "address",
          "name": "owner",
          "type": "address"
        }
      ],
      "name": "balanceOf",
      "outputs": [
        {
          "internalType": "uint256",
          "name": "",
          "type": "uint256"
        }
      ],
      "stateMutability": "view",
      "type": "function"
    },
    {
      "inputs": [
        {
          "internalType": "uint256",
          "name": "tokenId",
          "type": "uint256"
        }
      ],
      "name": "burn",
      "outputs": [],
      "stateMutability": "nonpayable",
      "type": "function"
    },
    {
      "inputs": [],
      "name": "eip712Domain",
      "outputs": [
        {
          "internalType": "bytes1",
          "name": "fields",
          "type": "bytes1"
        },
        {
          "internalType": "string",
          "name": "name",
          "type": "string"
        },
        {
          "internalType": "string",
          "name": "version",
          "type": "string"
        },
        {
          "internalType": "uint256",
          "name": "chainId",
          "type": "uint256"
        },
        {
          "internalType": "address",
          "name": "verifyingContract",
          "type": "address"
        },
        {
          "internalType": "bytes32",
          "name": "salt",
          "type": "bytes32"
        },
        {
          "internalType": "uint256[]",
          "name": "extensions",
          "type": "uint256[]"
        }
      ],
      "stateMutability": "view",
      "type": "function"
    },
    {
      "inputs": [
        {
          "internalType": "uint256",
          "name": "tokenId",
          "type": "uint256"
        }
      ],
      "name": "getApproved",
      "outputs": [
        {
          "internalType": "address",
          "name": "",
          "type": "address"
        }
      ],
      "stateMutability": "view",
      "type": "function"
    },
    {
      "inputs": [
        {
          "internalType": "address",
          "name": "owner",
          "type": "address"
        },
        {
          "internalType": "address",
          "name": "operator",
          "type": "address"
        }
      ],
      "name": "isApprovedForAll",
      "outputs": [
        {
          "internalType": "bool",
          "name": "",
          "type": "bool"
        }
      ],
      "stateMutability": "view",
      "type": "function"
    },
    {
      "inputs": [],
      "name": "name",
      "outputs": [
        {
          "internalType": "string",
          "name": "",
          "type": "string"
        }
      ],
      "stateMutability": "view",
      "type": "function"
    },
    {
      "inputs": [
        {
          "internalType": "address",
          "name": "owner",
          "type": "address"
        }
      ],
      "name": "nonces",
      "outputs": [
        {
          "internalType": "uint256",
          "name": "",
          "type": "uint256"
        }
      ],
      "stateMutability": "view",
      "type": "function"
    },
    {
      "inputs": [],
      "name": "owner",
      "outputs": [
        {
          "internalType": "address",
          "name": "",
          "type": "address"
        }
      ],
      "stateMutability": "view",
      "type": "function"
    },
    {
      "inputs": [
        {
          "internalType": "uint256",
          "name": "tokenId",
          "type": "uint256"
        }
      ],
      "name": "ownerOf",
      "outputs": [
        {
          "internalType": "address",
          "name": "",
          "type": "address"
        }
      ],
      "stateMutability": "view",
      "type": "function"
    },
    {
      "inputs": [],
      "name": "pause",
      "outputs": [],
      "stateMutability": "nonpayable",
      "type": "function"
    },
    {
      "inputs": [],
      "name": "paused",
      "outputs": [
        {
          "internalType": "bool",
          "name": "",
          "type": "bool"
        }
      ],
      "stateMutability": "view",
      "type": "function"
    },
    {
      "inputs": [],
      "name": "renounceOwnership",
      "outputs": [],
      "stateMutability": "nonpayable",
      "type": "function"
    },
    {
      "inputs": [
        {
          "internalType": "address",
          "name": "to",
          "type": "address"
        },
        {
          "internalType": "string",
          "name": "uri",
          "type": "string"
        },
        {
          "internalType": "uint256",
          "name": "deadline",
          "type": "uint256"
        },
        {
          "internalType": "bytes",
          "name": "signature",
          "type": "bytes"
        }
      ],
      "name": "safeMint",
      "outputs": [],
      "stateMutability": "nonpayable",
      "type": "function"
    },
    {
      "inputs": [
        {
          "internalType": "address",
          "name": "from",
          "type": "address"
        },
        {
          "internalType": "address",
          "name": "to",
          "type": "address"
        },
        {
          "internalType": "uint256",
          "name": "tokenId",
          "type": "uint256"
        }
      ],
      "name": "safeTransferFrom",
      "outputs": [],
      "stateMutability": "nonpayable",
      "type": "function"
    },
    {
      "inputs": [
        {
          "internalType": "address",
          "name": "from",
          "type": "address"
        },
        {
          "internalType": "address",
          "name": "to",
          "type": "address"
        },
        {
          "internalType": "uint256",
          "name": "tokenId",
          "type": "uint256"
        },
        {
          "internalType": "bytes",
          "name": "data",
          "type": "bytes"
        }
      ],
      "name": "safeTransferFrom",
      "outputs": [],
      "stateMutability": "nonpayable",
      "type": "function"
    },
    {
      "inputs": [
        {
          "internalType": "address",
          "name": "operator",
          "type": "address"
        },
        {
          "internalType": "bool",
          "name": "approved",
          "type": "bool"
        }
      ],
      "name": "setApprovalForAll",
      "outputs": [],
      "stateMutability": "nonpayable",
      "type": "function"
    },
    {
      "inputs": [
        {
          "internalType": "string",
          "name": "newBaseURI",
          "type": "string"
        }
      ],
      "name": "setBaseURI",
      "outputs": [],
      "stateMutability": "nonpayable",
      "type": "function"
    },
    {
      "inputs": [
        {
          "internalType": "bytes4",
          "name": "interfaceId",
          "type": "bytes4"
        }
      ],
      "name": "supportsInterface",
      "outputs": [
        {
          "internalType": "bool",
          "name": "",
          "type": "bool"
        }
      ],
      "stateMutability": "view",
      "type": "function"
    },
    {
      "inputs": [],
      "name": "symbol",
      "outputs": [
        {
          "internalType": "string",
          "name": "",
          "type": "string"
        }
      ],
      "stateMutability": "view",
      "type": "function"
    },
    {
      "inputs": [
        {
          "internalType": "uint256",
          "name": "tokenId",
          "type": "uint256"
        }
      ],
      "name": "tokenURI",
      "outputs": [
        {
          "internalType": "string",
          "name": "",
          "type": "string"
        }
      ],
      "stateMutability": "view",
      "type": "function"
    },
    {
      "inputs": [
        {
          "internalType": "address",
          "name": "from",
          "type": "address"
        },
        {
          "internalType": "address",
          "name": "to",
          "type": "address"
        },
        {
          "internalType": "uint256",
          "name": "tokenId",
          "type": "uint256"
        }
      ],
      "name": "transferFrom",
      "outputs": [],
      "stateMutability": "nonpayable",
      "type": "function"
    },
    {
      "inputs": [
        {
          "internalType": "address",
          "name": "newOwner",
          "type": "address"
        }
      ],
      "name": "transferOwnership",
      "outputs": [],
      "stateMutability": "nonpayable",
      "type": "function"
    },
    {
      "inputs": [],
      "name": "unpause",
      "outputs": [],
      "stateMutability": "nonpayable",
      "type": "function"
    }
  ],
  "bytecode": "0x6101806040523480156200001257600080fd5b5060405162004a4538038062004a458339818101604052810190620000389190620006cb565b6040518060400160405280600b81526020017f43726166746961784e46540000000000000000000000000000000000000000008152506040518060400160405280600181526020017f3100000000000000000000000000000000000000000000000000000000000000815250846040518060400160405280600b81526020017f43726166746961784e46540000000000000000000000000000000000000000008152506040518060400160405280600481526020017f434e465400000000000000000000000000000000000000000000000000000000815250816000908162000122919062000991565b50806001908162000134919062000991565b505050600073ffffffffffffffffffffffffffffffffffffffff168173ffffffffffffffffffffffffffffffffffffffff1603620001ac5760006040517f1e4fbdf7000000000000000000000000000000000000000000000000000000008152600401620001a3919062000a89565b60405180910390fd5b620001bd81620002e160201b60201c565b5060016008819055506000600960006101000a81548160ff021916908315150217905550620001f7600a83620003a760201b90919060201c565b610120818152505062000215600b82620003a760201b90919060201c565b6101408181525050818051906020012060e08181525050808051906020012061010081815250504660a0818152505062000254620003ff60201b60201c565b608081815250503073ffffffffffffffffffffffffffffffffffffffff1660c08173ffffffffffffffffffffffffffffffffffffffff1681525050505081600d9081620002a2919062000991565b508073ffffffffffffffffffffffffffffffffffffffff166101608173ffffffffffffffffffffffffffffffffffffffff168152505050505062000c47565b6000600760009054906101000a900473ffffffffffffffffffffffffffffffffffffffff16905081600760006101000a81548173ffffffffffffffffffffffffffffffffffffffff021916908373ffffffffffffffffffffffffffffffffffffffff1602179055508173ffffffffffffffffffffffffffffffffffffffff168173ffffffffffffffffffffffffffffffffffffffff167f8be0079c531659141344cd1fd0a4f28419497f9722a3daafe3b4186f6b6457e060405160405180910390a35050565b6000602083511015620003cd57620003c5836200045c60201b60201c565b9050620003f9565b82620003df83620004c960201b60201c565b6000019081620003f0919062000991565b5060ff60001b90505b92915050565b60007f8b73c3c69bb8fe3d512ecc4cf759cc79239f7b179b0ffacaa9a75d522b39400f60e0516101005146306040516020016200044195949392919062000ad2565b60405160208183030381529060405280519060200120905090565b600080829050601f81511115620004ac57826040517f305a27a9000000000000000000000000000000000000000000000000000000008152600401620004a3919062000b81565b60405180910390fd5b805181620004ba9062000bd7565b60001c1760001b915050919050565b6000819050919050565b6000604051905090565b600080fd5b600080fd5b600073ffffffffffffffffffffffffffffffffffffffff82169050919050565b60006200051482620004e7565b9050919050565b620005268162000507565b81146200053257600080fd5b50565b60008151905062000546816200051b565b92915050565b600080fd5b600080fd5b6000601f19601f8301169050919050565b7f4e487b7100000000000000000000000000000000000000000000000000000000600052604160045260246000fd5b620005a18262000556565b810181811067ffffffffffffffff82111715620005c357620005c262000567565b5b80604052505050565b6000620005d8620004d3565b9050620005e6828262000596565b919050565b600067ffffffffffffffff82111562000609576200060862000567565b5b620006148262000556565b9050602081019050919050565b60005b838110156200064157808201518184015260208101905062000624565b60008484015250505050565b6000620006646200065e84620005eb565b620005cc565b90508281526020810184848401111562000683576200068262000551565b5b6200069084828562000621565b509392505050565b600082601f830112620006b057620006af6200054c565b5b8151620006c28482602086016200064d565b91505092915050565b600080600060608486031215620006e757620006e6620004dd565b5b6000620006f78682870162000535565b935050602084015167ffffffffffffffff8111156200071b576200071a620004e2565b5b620007298682870162000698565b92505060406200073c8682870162000535565b9150509250925092565b600081519050919050565b7f4e487b7100000000000000000000000000000000000000000000000000000000600052602260045260246000fd5b600060028204905060018216806200079957607f821691505b602082108103620007af57620007ae62000751565b5b50919050565b60008190508160005260206000209050919050565b60006020601f8301049050919050565b600082821b905092915050565b600060088302620008197fffffffffffffffffffffffffffffffffffffffffffffffffffffffffffffffff82620007da565b620008258683620007da565b95508019841693508086168417925050509392505050565b6000819050919050565b6000819050919050565b6000620008726200086c62000866846200083d565b62000847565b6200083d565b9050919050565b6000819050919050565b6200088e8362000851565b620008a66200089d8262000879565b848454620007e7565b825550505050565b600090565b620008bd620008ae565b620008ca81848462000883565b505050565b5b81811015620008f257620008e6600082620008b3565b600181019050620008d0565b5050565b601f82111562000941576200090b81620007b5565b6200091684620007ca565b8101602085101562000926578190505b6200093e6200093585620007ca565b830182620008cf565b50505b505050565b600082821c905092915050565b6000620009666000198460080262000946565b1980831691505092915050565b600062000981838362000953565b9150826002028217905092915050565b6200099c8262000746565b67ffffffffffffffff811115620009b857620009b762000567565b5b620009c4825462000780565b620009d1828285620008f6565b600060209050601f83116001811462000a095760008415620009f4578287015190505b62000a00858262000973565b86555062000a70565b601f19841662000a1986620007b5565b60005b8281101562000a435784890151825560018201915060208501945060208101905062000a1c565b8683101562000a63578489015162000a5f601f89168262000953565b8355505b6001600288020188555050505b505050505050565b62000a838162000507565b82525050565b600060208201905062000aa0600083018462000a78565b92915050565b6000819050919050565b62000abb8162000aa6565b82525050565b62000acc816200083d565b82525050565b600060a08201905062000ae9600083018862000ab0565b62000af8602083018762000ab0565b62000b07604083018662000ab0565b62000b16606083018562000ac1565b62000b25608083018462000a78565b9695505050505050565b600082825260208201905092915050565b600062000b4d8262000746565b62000b59818562000b2f565b935062000b6b81856020860162000621565b62000b768162000556565b840191505092915050565b6000602082019050818103600083015262000b9d818462000b40565b905092915050565b600081519050919050565b6000819050602082019050919050565b600062000bce825162000aa6565b80915050919050565b600062000be48262000ba5565b8262000bf08462000bb0565b905062000bfd8162000bc0565b9250602082101562000c405762000c3b7fffffffffffffffffffffffffffffffffffffffffffffffffffffffffffffffff83602003600802620007da565b831692505b5050919050565b60805160a05160c05160e05161010051610120516101405161016051613d9862000cad6000396000610d6701526000611752015260006117170152600061273d0152600061271c015260006121b201526000612208015260006122310152613d986000f3fe608060405234801561001057600080fd5b50600436106101585760003560e01c8063715018a6116100c3578063a22cb4651161007c578063a22cb46514610393578063b88d4fde146103af578063c87b56dd146103cb578063e5763b73146103fb578063e985e9c514610417578063f2fde38b1461044757610158565b8063715018a6146102ef5780637ecebe00146102f95780638456cb591461032957806384b0196e146103335780638da5cb5b1461035757806395d89b411461037557610158565b806342842e0e1161011557806342842e0e1461021d57806342966c681461023957806355f804b3146102555780635c975abb146102715780636352211e1461028f57806370a08231146102bf57610158565b806301ffc9a71461015d57806306fdde031461018d578063081812fc146101ab578063095ea7b3146101db57806323b872dd146101f75780633f4ba83a14610213575b600080fd5b61017760048036038101906101729190612b89565b610463565b6040516101849190612bd1565b60405180910390f35b610195610475565b6040516101a29190612c7c565b60405180910390f35b6101c560048036038101906101c09190612cd4565b610507565b6040516101d29190612d42565b60405180910390f35b6101f560048036038101906101f09190612d89565b610523565b005b610211600480360381019061020c9190612dc9565b610539565b005b61021b61063b565b005b61023760048036038101906102329190612dc9565b61064d565b005b610253600480360381019061024e9190612cd4565b61066d565b005b61026f600480360381019061026a9190612f51565b6107f2565b005b610279610888565b6040516102869190612bd1565b60405180910390f35b6102a960048036038101906102a49190612cd4565b61089f565b6040516102b69190612d42565b60405180910390f35b6102d960048036038101906102d49190612f9a565b6108b1565b6040516102e69190612fd6565b60405180910390f35b6102f761096b565b005b610313600480360381019061030e9190612f9a565b61097f565b6040516103209190612fd6565b60405180910390f35b6103316109c8565b005b61033b6109da565b60405161034e9796959493929190613103565b60405180910390f35b61035f610a84565b60405161036c9190612d42565b60405180910390f35b61037d610aae565b60405161038a9190612c7c565b60405180910390f35b6103ad60048036038101906103a891906131b3565b610b40565b005b6103c960048036038101906103c49190613294565b610b56565b005b6103e560048036038101906103e09190612cd4565b610b7b565b6040516103f29190612c7c565b60405180910390f35b61041560048036038101906104109190613317565b610b97565b005b610431600480360381019061042c91906133b6565b610f14565b60405161043e9190612bd1565b60405180910390f35b610461600480360381019061045c9190612f9a565b610fa8565b005b600061046e8261102e565b9050919050565b60606000805461048490613425565b80601f01602080910402602001604051908101604052809291908181526020018280546104b090613425565b80156104fd5780601f106104d2576101008083540402835291602001916104fd565b820191906000526020600020905b8154815290600101906020018083116104e057829003601f168201915b5050505050905090565b60006105128261108f565b5061051c82611117565b9050919050565b6105358282610530611154565b61115c565b5050565b600073ffffffffffffffffffffffffffffffffffffffff168273ffffffffffffffffffffffffffffffffffffffff16036105ab5760006040517f64a0ae920000000000000000000000000000000000000000000000000000000081526004016105a29190612d42565b60405180910390fd5b60006105bf83836105ba611154565b61116e565b90508373ffffffffffffffffffffffffffffffffffffffff168173ffffffffffffffffffffffffffffffffffffffff1614610635578382826040517f64283d7b00000000000000000000000000000000000000000000000000000000815260040161062c93929190613456565b60405180910390fd5b50505050565b610643611388565b61064b61140f565b565b61066883838360405180602001604052806000815250610b56565b505050565b610675611472565b61067d6114b8565b60006106888261089f565b90506000610694611154565b90508173ffffffffffffffffffffffffffffffffffffffff168173ffffffffffffffffffffffffffffffffffffffff1614806106d657506106d58282610f14565b5b8061071457508073ffffffffffffffffffffffffffffffffffffffff166106fc84610507565b73ffffffffffffffffffffffffffffffffffffffff16145b610753576040517f08c379a000000000000000000000000000000000000000000000000000000000815260040161074a906134d9565b60405180910390fd5b61076c83604051806020016040528060008152506114f9565b61077583611555565b6000600e600085815260200190815260200160002060006101000a81548160ff021916908315150217905550828173ffffffffffffffffffffffffffffffffffffffff167f1af5163f80e79b5e554f61e1d052084d3a3fe1166e42a265798c4e2ddce8ffa260405160405180910390a350506107ef6115db565b50565b6107fa611388565b600081511161083e576040517f08c379a000000000000000000000000000000000000000000000000000000000815260040161083590613545565b60405180910390fd5b80600d908161084d9190613711565b507f5411e8ebf1636d9e83d5fc4900bf80cbac82e8790da2a4c94db4895e889eedf68160405161087d9190612c7c565b60405180910390a150565b6000600960009054906101000a900460ff16905090565b60006108aa8261108f565b9050919050565b60008073ffffffffffffffffffffffffffffffffffffffff168273ffffffffffffffffffffffffffffffffffffffff16036109245760006040517f89c62b6400000000000000000000000000000000000000000000000000000000815260040161091b9190612d42565b60405180910390fd5b600360008373ffffffffffffffffffffffffffffffffffffffff1673ffffffffffffffffffffffffffffffffffffffff168152602001908152602001600020549050919050565b610973611388565b61097d60006115e5565b565b6000600f60008373ffffffffffffffffffffffffffffffffffffffff1673ffffffffffffffffffffffffffffffffffffffff168152602001908152602001600020549050919050565b6109d0611388565b6109d86116ab565b565b6000606080600080600060606109ee61170e565b6109f6611749565b46306000801b600067ffffffffffffffff811115610a1757610a16612e26565b5b604051908082528060200260200182016040528015610a455781602001602082028036833780820191505090505b507f0f00000000000000000000000000000000000000000000000000000000000000959493929190965096509650965096509650965090919293949596565b6000600760009054906101000a900473ffffffffffffffffffffffffffffffffffffffff16905090565b606060018054610abd90613425565b80601f0160208091040260200160405190810160405280929190818152602001828054610ae990613425565b8015610b365780601f10610b0b57610100808354040283529160200191610b36565b820191906000526020600020905b815481529060010190602001808311610b1957829003601f168201915b5050505050905090565b610b52610b4b611154565b8383611784565b5050565b610b61848484610539565b610b75610b6c611154565b858585856118f3565b50505050565b6060610b868261089f565b50610b9082611aa4565b9050919050565b610b9f611472565b610ba76114b8565b81421115610bea576040517f08c379a0000000000000000000000000000000000000000000000000000000008152600401610be19061382f565b60405180910390fd5b600073ffffffffffffffffffffffffffffffffffffffff168473ffffffffffffffffffffffffffffffffffffffff1603610c59576040517f08c379a0000000000000000000000000000000000000000000000000000000008152600401610c509061389b565b60405180910390fd5b6000835111610c9d576040517f08c379a0000000000000000000000000000000000000000000000000000000008152600401610c9490613907565b60405180910390fd5b60007fce3829100355b953ccf0678623667f04f1ef312616e89358bc4973f327d3b68b858580519060200120600f60008973ffffffffffffffffffffffffffffffffffffffff1673ffffffffffffffffffffffffffffffffffffffff1681526020019081526020016000206000815480929190610d1990613956565b9190505586604051602001610d3295949392919061399e565b6040516020818303038152906040528051906020012090506000610d5582611bb7565b90506000610d638285611bd1565b90507f000000000000000000000000000000000000000000000000000000000000000073ffffffffffffffffffffffffffffffffffffffff168173ffffffffffffffffffffffffffffffffffffffff1614610df3576040517f08c379a0000000000000000000000000000000000000000000000000000000008152600401610dea90613a3d565b60405180910390fd5b6000600c549050600e600082815260200190815260200160002060009054906101000a900460ff1615610e5b576040517f08c379a0000000000000000000000000000000000000000000000000000000008152600401610e5290613aa9565b60405180910390fd5b600c6000815480929190610e6e90613956565b91905055506001600e600083815260200190815260200160002060006101000a81548160ff021916908315150217905550610ea98882611bfd565b610eb381886114f9565b808873ffffffffffffffffffffffffffffffffffffffff167fdf92894dc4675a7333caa5903b69cf5d8e8ec0d3f361c88207b6688e525703bb89604051610efa9190612c7c565b60405180910390a350505050610f0e6115db565b50505050565b6000600560008473ffffffffffffffffffffffffffffffffffffffff1673ffffffffffffffffffffffffffffffffffffffff16815260200190815260200160002060008373ffffffffffffffffffffffffffffffffffffffff1673ffffffffffffffffffffffffffffffffffffffff16815260200190815260200160002060009054906101000a900460ff16905092915050565b610fb0611388565b600073ffffffffffffffffffffffffffffffffffffffff168173ffffffffffffffffffffffffffffffffffffffff16036110225760006040517f1e4fbdf70000000000000000000000000000000000000000000000000000000081526004016110199190612d42565b60405180910390fd5b61102b816115e5565b50565b6000634906490660e01b7bffffffffffffffffffffffffffffffffffffffffffffffffffffffff1916827bffffffffffffffffffffffffffffffffffffffffffffffffffffffff19161480611088575061108782611c1b565b5b9050919050565b60008061109b83611cfd565b9050600073ffffffffffffffffffffffffffffffffffffffff168173ffffffffffffffffffffffffffffffffffffffff160361110e57826040517f7e2732890000000000000000000000000000000000000000000000000000000081526004016111059190612fd6565b60405180910390fd5b80915050919050565b60006004600083815260200190815260200160002060009054906101000a900473ffffffffffffffffffffffffffffffffffffffff169050919050565b600033905090565b6111698383836001611d3a565b505050565b60008061117a84611cfd565b9050600073ffffffffffffffffffffffffffffffffffffffff168373ffffffffffffffffffffffffffffffffffffffff16146111bc576111bb818486611eff565b5b600073ffffffffffffffffffffffffffffffffffffffff168173ffffffffffffffffffffffffffffffffffffffff161461124d576111fe600085600080611d3a565b6001600360008373ffffffffffffffffffffffffffffffffffffffff1673ffffffffffffffffffffffffffffffffffffffff168152602001908152602001600020600082825403925050819055505b600073ffffffffffffffffffffffffffffffffffffffff168573ffffffffffffffffffffffffffffffffffffffff16146112d0576001600360008773ffffffffffffffffffffffffffffffffffffffff1673ffffffffffffffffffffffffffffffffffffffff168152602001908152602001600020600082825401925050819055505b846002600086815260200190815260200160002060006101000a81548173ffffffffffffffffffffffffffffffffffffffff021916908373ffffffffffffffffffffffffffffffffffffffff160217905550838573ffffffffffffffffffffffffffffffffffffffff168273ffffffffffffffffffffffffffffffffffffffff167fddf252ad1be2c89b69c2b068fc378daa952ba7f163c4a11628f55a4df523b3ef60405160405180910390a4809150509392505050565b611390611154565b73ffffffffffffffffffffffffffffffffffffffff166113ae610a84565b73ffffffffffffffffffffffffffffffffffffffff161461140d576113d1611154565b6040517f118cdaa70000000000000000000000000000000000000000000000000000000081526004016114049190612d42565b60405180910390fd5b565b611417611fc3565b6000600960006101000a81548160ff0219169083151502179055507f5db9ee0a495bf2e6ff9c91a7834c1ba4fdd244a5e8aa4e537bd38aeae4b073aa61145b611154565b6040516114689190612d42565b60405180910390a1565b6002600854036114ae576040517f3ee5aeb500000000000000000000000000000000000000000000000000000000815260040160405180910390fd5b6002600881905550565b6114c0610888565b156114f7576040517fd93c066500000000000000000000000000000000000000000000000000000000815260040160405180910390fd5b565b806006600084815260200190815260200160002090816115199190613711565b507ff8e1a15aba9398e019f0b49df1a4fde98ee17ae345cb5f6b5e2c27f5033e8ce7826040516115499190612fd6565b60405180910390a15050565b6000611564600083600061116e565b9050600073ffffffffffffffffffffffffffffffffffffffff168173ffffffffffffffffffffffffffffffffffffffff16036115d757816040517f7e2732890000000000000000000000000000000000000000000000000000000081526004016115ce9190612fd6565b60405180910390fd5b5050565b6001600881905550565b6000600760009054906101000a900473ffffffffffffffffffffffffffffffffffffffff16905081600760006101000a81548173ffffffffffffffffffffffffffffffffffffffff021916908373ffffffffffffffffffffffffffffffffffffffff1602179055508173ffffffffffffffffffffffffffffffffffffffff168173ffffffffffffffffffffffffffffffffffffffff167f8be0079c531659141344cd1fd0a4f28419497f9722a3daafe3b4186f6b6457e060405160405180910390a35050565b6116b36114b8565b6001600960006101000a81548160ff0219169083151502179055507f62e78cea01bee320cd4e420270b5ea74000d11b0c9f74754ebdbfc544b05a2586116f7611154565b6040516117049190612d42565b60405180910390a1565b6060611744600a7f000000000000000000000000000000000000000000000000000000000000000061200390919063ffffffff16565b905090565b606061177f600b7f000000000000000000000000000000000000000000000000000000000000000061200390919063ffffffff16565b905090565b600073ffffffffffffffffffffffffffffffffffffffff168273ffffffffffffffffffffffffffffffffffffffff16036117f557816040517f5b08ba180000000000000000000000000000000000000000000000000000000081526004016117ec9190612d42565b60405180910390fd5b80600560008573ffffffffffffffffffffffffffffffffffffffff1673ffffffffffffffffffffffffffffffffffffffff16815260200190815260200160002060008473ffffffffffffffffffffffffffffffffffffffff1673ffffffffffffffffffffffffffffffffffffffff16815260200190815260200160002060006101000a81548160ff0219169083151502179055508173ffffffffffffffffffffffffffffffffffffffff168373ffffffffffffffffffffffffffffffffffffffff167f17307eab39ab6107e8899845ad3d59bd9653f200f220920489ca2b5937696c31836040516118e69190612bd1565b60405180910390a3505050565b60008373ffffffffffffffffffffffffffffffffffffffff163b1115611a9d578273ffffffffffffffffffffffffffffffffffffffff1663150b7a02868685856040518563ffffffff1660e01b81526004016119529493929190613b1e565b6020604051808303816000875af192505050801561198e57506040513d601f19601f8201168201806040525081019061198b9190613b7f565b60015b611a12573d80600081146119be576040519150601f19603f3d011682016040523d82523d6000602084013e6119c3565b606091505b506000815103611a0a57836040517f64a0ae92000000000000000000000000000000000000000000000000000000008152600401611a019190612d42565b60405180910390fd5b805181602001fd5b63150b7a0260e01b7bffffffffffffffffffffffffffffffffffffffffffffffffffffffff1916817bffffffffffffffffffffffffffffffffffffffffffffffffffffffff191614611a9b57836040517f64a0ae92000000000000000000000000000000000000000000000000000000008152600401611a929190612d42565b60405180910390fd5b505b5050505050565b6060611aaf8261108f565b506000600660008481526020019081526020016000208054611ad090613425565b80601f0160208091040260200160405190810160405280929190818152602001828054611afc90613425565b8015611b495780601f10611b1e57610100808354040283529160200191611b49565b820191906000526020600020905b815481529060010190602001808311611b2c57829003601f168201915b505050505090506000611b5a6120b3565b90506000815103611b6f578192505050611bb2565b600082511115611ba4578082604051602001611b8c929190613be8565b60405160208183030381529060405292505050611bb2565b611bad84612145565b925050505b919050565b6000611bca611bc46121ae565b83612265565b9050919050565b600080600080611be186866122a6565b925092509250611bf18282612302565b82935050505092915050565b611c17828260405180602001604052806000815250612466565b5050565b60007f80ac58cd000000000000000000000000000000000000000000000000000000007bffffffffffffffffffffffffffffffffffffffffffffffffffffffff1916827bffffffffffffffffffffffffffffffffffffffffffffffffffffffff19161480611ce657507f5b5e139f000000000000000000000000000000000000000000000000000000007bffffffffffffffffffffffffffffffffffffffffffffffffffffffff1916827bffffffffffffffffffffffffffffffffffffffffffffffffffffffff1916145b80611cf65750611cf58261248a565b5b9050919050565b60006002600083815260200190815260200160002060009054906101000a900473ffffffffffffffffffffffffffffffffffffffff169050919050565b8080611d735750600073ffffffffffffffffffffffffffffffffffffffff168273ffffffffffffffffffffffffffffffffffffffff1614155b15611ea7576000611d838461108f565b9050600073ffffffffffffffffffffffffffffffffffffffff168373ffffffffffffffffffffffffffffffffffffffff1614158015611dee57508273ffffffffffffffffffffffffffffffffffffffff168173ffffffffffffffffffffffffffffffffffffffff1614155b8015611e015750611dff8184610f14565b155b15611e4357826040517fa9fbf51f000000000000000000000000000000000000000000000000000000008152600401611e3a9190612d42565b60405180910390fd5b8115611ea557838573ffffffffffffffffffffffffffffffffffffffff168273ffffffffffffffffffffffffffffffffffffffff167f8c5be1e5ebec7d5bd14f71427d1e84f3dd0314c0f7b2291e5b200ac8c7c3b92560405160405180910390a45b505b836004600085815260200190815260200160002060006101000a81548173ffffffffffffffffffffffffffffffffffffffff021916908373ffffffffffffffffffffffffffffffffffffffff16021790555050505050565b611f0a8383836124f4565b611fbe57600073ffffffffffffffffffffffffffffffffffffffff168373ffffffffffffffffffffffffffffffffffffffff1603611f7f57806040517f7e273289000000000000000000000000000000000000000000000000000000008152600401611f769190612fd6565b60405180910390fd5b81816040517f177e802f000000000000000000000000000000000000000000000000000000008152600401611fb5929190613c0c565b60405180910390fd5b505050565b611fcb610888565b612001576040517f8dfc202b00000000000000000000000000000000000000000000000000000000815260040160405180910390fd5b565b606060ff60001b831461202057612019836125b5565b90506120ad565b81805461202c90613425565b80601f016020809104026020016040519081016040528092919081815260200182805461205890613425565b80156120a55780601f1061207a576101008083540402835291602001916120a5565b820191906000526020600020905b81548152906001019060200180831161208857829003601f168201915b505050505090505b92915050565b6060600d80546120c290613425565b80601f01602080910402602001604051908101604052809291908181526020018280546120ee90613425565b801561213b5780601f106121105761010080835404028352916020019161213b565b820191906000526020600020905b81548152906001019060200180831161211e57829003601f168201915b5050505050905090565b60606121508261108f565b50600061215b6120b3565b9050600081511161217b57604051806020016040528060008152506121a6565b8061218584612629565b604051602001612196929190613be8565b6040516020818303038152906040525b915050919050565b60007f000000000000000000000000000000000000000000000000000000000000000073ffffffffffffffffffffffffffffffffffffffff163073ffffffffffffffffffffffffffffffffffffffff1614801561222a57507f000000000000000000000000000000000000000000000000000000000000000046145b15612257577f00000000000000000000000000000000000000000000000000000000000000009050612262565b61225f6126f7565b90505b90565b60006040517f190100000000000000000000000000000000000000000000000000000000000081528360028201528260228201526042812091505092915050565b600080600060418451036122eb5760008060006020870151925060408701519150606087015160001a90506122dd8882858561278d565b9550955095505050506122fb565b60006002855160001b9250925092505b9250925092565b6000600381111561231657612315613c35565b5b82600381111561232957612328613c35565b5b0315612462576001600381111561234357612342613c35565b5b82600381111561235657612355613c35565b5b0361238d576040517ff645eedf00000000000000000000000000000000000000000000000000000000815260040160405180910390fd5b600260038111156123a1576123a0613c35565b5b8260038111156123b4576123b3613c35565b5b036123f9578060001c6040517ffce698f70000000000000000000000000000000000000000000000000000000081526004016123f09190612fd6565b60405180910390fd5b60038081111561240c5761240b613c35565b5b82600381111561241f5761241e613c35565b5b0361246157806040517fd78bce0c0000000000000000000000000000000000000000000000000000000081526004016124589190613c64565b60405180910390fd5b5b5050565b6124708383612881565b61248561247b611154565b60008585856118f3565b505050565b60007f01ffc9a7000000000000000000000000000000000000000000000000000000007bffffffffffffffffffffffffffffffffffffffffffffffffffffffff1916827bffffffffffffffffffffffffffffffffffffffffffffffffffffffff1916149050919050565b60008073ffffffffffffffffffffffffffffffffffffffff168373ffffffffffffffffffffffffffffffffffffffff16141580156125ac57508273ffffffffffffffffffffffffffffffffffffffff168473ffffffffffffffffffffffffffffffffffffffff16148061256d575061256c8484610f14565b5b806125ab57508273ffffffffffffffffffffffffffffffffffffffff1661259383611117565b73ffffffffffffffffffffffffffffffffffffffff16145b5b90509392505050565b606060006125c28361297a565b90506000602067ffffffffffffffff8111156125e1576125e0612e26565b5b6040519080825280601f01601f1916602001820160405280156126135781602001600182028036833780820191505090505b5090508181528360208201528092505050919050565b606060006001612638846129ca565b01905060008167ffffffffffffffff81111561265757612656612e26565b5b6040519080825280601f01601f1916602001820160405280156126895781602001600182028036833780820191505090505b509050600082602001820190505b6001156126ec578080600190039150507f3031323334353637383961626364656600000000000000000000000000000000600a86061a8153600a85816126e0576126df613c7f565b5b04945060008503612697575b819350505050919050565b60007f8b73c3c69bb8fe3d512ecc4cf759cc79239f7b179b0ffacaa9a75d522b39400f7f00000000000000000000000000000000000000000000000000000000000000007f00000000000000000000000000000000000000000000000000000000000000004630604051602001612772959493929190613cae565b60405160208183030381529060405280519060200120905090565b60008060007f7fffffffffffffffffffffffffffffff5d576e7357a4501ddfe92f46681b20a08460001c11156127cd576000600385925092509250612877565b6000600188888888604051600081526020016040526040516127f29493929190613d1d565b6020604051602081039080840390855afa158015612814573d6000803e3d6000fd5b505050602060405103519050600073ffffffffffffffffffffffffffffffffffffffff168173ffffffffffffffffffffffffffffffffffffffff160361286857600060016000801b93509350935050612877565b8060008060001b935093509350505b9450945094915050565b600073ffffffffffffffffffffffffffffffffffffffff168273ffffffffffffffffffffffffffffffffffffffff16036128f35760006040517f64a0ae920000000000000000000000000000000000000000000000000000000081526004016128ea9190612d42565b60405180910390fd5b60006129018383600061116e565b9050600073ffffffffffffffffffffffffffffffffffffffff168173ffffffffffffffffffffffffffffffffffffffff16146129755760006040517f73c6ac6e00000000000000000000000000000000000000000000000000000000815260040161296c9190612d42565b60405180910390fd5b505050565b60008060ff8360001c169050601f8111156129c1576040517fb3512b0c00000000000000000000000000000000000000000000000000000000815260040160405180910390fd5b80915050919050565b600080600090507a184f03e93ff9f4daa797ed6e38ed64bf6a1f0100000000000000008310612a28577a184f03e93ff9f4daa797ed6e38ed64bf6a1f0100000000000000008381612a1e57612a1d613c7f565b5b0492506040810190505b6d04ee2d6d415b85acef81000000008310612a65576d04ee2d6d415b85acef81000000008381612a5b57612a5a613c7f565b5b0492506020810190505b662386f26fc100008310612a9457662386f26fc100008381612a8a57612a89613c7f565b5b0492506010810190505b6305f5e1008310612abd576305f5e1008381612ab357612ab2613c7f565b5b0492506008810190505b6127108310612ae2576127108381612ad857612ad7613c7f565b5b0492506004810190505b60648310612b055760648381612afb57612afa613c7f565b5b0492506002810190505b600a8310612b14576001810190505b80915050919050565b6000604051905090565b600080fd5b600080fd5b60007fffffffff0000000000000000000000000000000000000000000000000000000082169050919050565b612b6681612b31565b8114612b7157600080fd5b50565b600081359050612b8381612b5d565b92915050565b600060208284031215612b9f57612b9e612b27565b5b6000612bad84828501612b74565b91505092915050565b60008115159050919050565b612bcb81612bb6565b82525050565b6000602082019050612be66000830184612bc2565b92915050565b600081519050919050565b600082825260208201905092915050565b60005b83811015612c26578082015181840152602081019050612c0b565b60008484015250505050565b6000601f19601f8301169050919050565b6000612c4e82612bec565b612c588185612bf7565b9350612c68818560208601612c08565b612c7181612c32565b840191505092915050565b60006020820190508181036000830152612c968184612c43565b905092915050565b6000819050919050565b612cb181612c9e565b8114612cbc57600080fd5b50565b600081359050612cce81612ca8565b92915050565b600060208284031215612cea57612ce9612b27565b5b6000612cf884828501612cbf565b91505092915050565b600073ffffffffffffffffffffffffffffffffffffffff82169050919050565b6000612d2c82612d01565b9050919050565b612d3c81612d21565b82525050565b6000602082019050612d576000830184612d33565b92915050565b612d6681612d21565b8114612d7157600080fd5b50565b600081359050612d8381612d5d565b92915050565b60008060408385031215612da057612d9f612b27565b5b6000612dae85828601612d74565b9250506020612dbf85828601612cbf565b9150509250929050565b600080600060608486031215612de257612de1612b27565b5b6000612df086828701612d74565b9350506020612e0186828701612d74565b9250506040612e1286828701612cbf565b9150509250925092565b600080fd5b600080fd5b7f4e487b7100000000000000000000000000000000000000000000000000000000600052604160045260246000fd5b612e5e82612c32565b810181811067ffffffffffffffff82111715612e7d57612e7c612e26565b5b80604052505050565b6000612e90612b1d565b9050612e9c8282612e55565b919050565b600067ffffffffffffffff821115612ebc57612ebb612e26565b5b612ec582612c32565b9050602081019050919050565b82818337600083830152505050565b6000612ef4612eef84612ea1565b612e86565b905082815260208101848484011115612f1057612f0f612e21565b5b612f1b848285612ed2565b509392505050565b600082601f830112612f3857612f37612e1c565b5b8135612f48848260208601612ee1565b91505092915050565b600060208284031215612f6757612f66612b27565b5b600082013567ffffffffffffffff811115612f8557612f84612b2c565b5b612f9184828501612f23565b91505092915050565b600060208284031215612fb057612faf612b27565b5b6000612fbe84828501612d74565b91505092915050565b612fd081612c9e565b82525050565b6000602082019050612feb6000830184612fc7565b92915050565b60007fff0000000000000000000000000000000000000000000000000000000000000082169050919050565b61302681612ff1565b82525050565b6000819050919050565b61303f8161302c565b82525050565b600081519050919050565b600082825260208201905092915050565b6000819050602082019050919050565b61307a81612c9e565b82525050565b600061308c8383613071565b60208301905092915050565b6000602082019050919050565b60006130b082613045565b6130ba8185613050565b93506130c583613061565b8060005b838110156130f65781516130dd8882613080565b97506130e883613098565b9250506001810190506130c9565b5085935050505092915050565b600060e082019050613118600083018a61301d565b818103602083015261312a8189612c43565b9050818103604083015261313e8188612c43565b905061314d6060830187612fc7565b61315a6080830186612d33565b61316760a0830185613036565b81810360c083015261317981846130a5565b905098975050505050505050565b61319081612bb6565b811461319b57600080fd5b50565b6000813590506131ad81613187565b92915050565b600080604083850312156131ca576131c9612b27565b5b60006131d885828601612d74565b92505060206131e98582860161319e565b9150509250929050565b600067ffffffffffffffff82111561320e5761320d612e26565b5b61321782612c32565b9050602081019050919050565b6000613237613232846131f3565b612e86565b90508281526020810184848401111561325357613252612e21565b5b61325e848285612ed2565b509392505050565b600082601f83011261327b5761327a612e1c565b5b813561328b848260208601613224565b91505092915050565b600080600080608085870312156132ae576132ad612b27565b5b60006132bc87828801612d74565b94505060206132cd87828801612d74565b93505060406132de87828801612cbf565b925050606085013567ffffffffffffffff8111156132ff576132fe612b2c565b5b61330b87828801613266565b91505092959194509250565b6000806000806080858703121561333157613330612b27565b5b600061333f87828801612d74565b945050602085013567ffffffffffffffff8111156133605761335f612b2c565b5b61336c87828801612f23565b935050604061337d87828801612cbf565b925050606085013567ffffffffffffffff81111561339e5761339d612b2c565b5b6133aa87828801613266565b91505092959194509250565b600080604083850312156133cd576133cc612b27565b5b60006133db85828601612d74565b92505060206133ec85828601612d74565b9150509250929050565b7f4e487b7100000000000000000000000000000000000000000000000000000000600052602260045260246000fd5b6000600282049050600182168061343d57607f821691505b6020821081036134505761344f6133f6565b5b50919050565b600060608201905061346b6000830186612d33565b6134786020830185612fc7565b6134856040830184612d33565b949350505050565b7f43616c6c6572206973206e6f74206f776e6572206f7220617070726f76656400600082015250565b60006134c3601f83612bf7565b91506134ce8261348d565b602082019050919050565b600060208201905081810360008301526134f2816134b6565b9050919050565b7f42617365205552492063616e6e6f7420626520656d7074790000000000000000600082015250565b600061352f601883612bf7565b915061353a826134f9565b602082019050919050565b6000602082019050818103600083015261355e81613522565b9050919050565b60008190508160005260206000209050919050565b60006020601f8301049050919050565b600082821b905092915050565b6000600883026135c77fffffffffffffffffffffffffffffffffffffffffffffffffffffffffffffffff8261358a565b6135d1868361358a565b95508019841693508086168417925050509392505050565b6000819050919050565b600061360e61360961360484612c9e565b6135e9565b612c9e565b9050919050565b6000819050919050565b613628836135f3565b61363c61363482613615565b848454613597565b825550505050565b600090565b613651613644565b61365c81848461361f565b505050565b5b8181101561368057613675600082613649565b600181019050613662565b5050565b601f8211156136c55761369681613565565b61369f8461357a565b810160208510156136ae578190505b6136c26136ba8561357a565b830182613661565b50505b505050565b600082821c905092915050565b60006136e8600019846008026136ca565b1980831691505092915050565b600061370183836136d7565b9150826002028217905092915050565b61371a82612bec565b67ffffffffffffffff81111561373357613732612e26565b5b61373d8254613425565b613748828285613684565b600060209050601f83116001811461377b5760008415613769578287015190505b61377385826136f5565b8655506137db565b601f19841661378986613565565b60005b828110156137b15784890151825560018201915060208501945060208101905061378c565b868310156137ce57848901516137ca601f8916826136d7565b8355505b6001600288020188555050505b505050505050565b7f5369676e61747572652065787069726564000000000000000000000000000000600082015250565b6000613819601183612bf7565b9150613824826137e3565b602082019050919050565b600060208201905081810360008301526138488161380c565b9050919050565b7f496e76616c696420726563697069656e74206164647265737300000000000000600082015250565b6000613885601983612bf7565b91506138908261384f565b602082019050919050565b600060208201905081810360008301526138b481613878565b9050919050565b7f5552492063616e6e6f7420626520656d70747900000000000000000000000000600082015250565b60006138f1601383612bf7565b91506138fc826138bb565b602082019050919050565b60006020820190508181036000830152613920816138e4565b9050919050565b7f4e487b7100000000000000000000000000000000000000000000000000000000600052601160045260246000fd5b600061396182612c9e565b91507fffffffffffffffffffffffffffffffffffffffffffffffffffffffffffffffff820361399357613992613927565b5b600182019050919050565b600060a0820190506139b36000830188613036565b6139c06020830187612d33565b6139cd6040830186613036565b6139da6060830185612fc7565b6139e76080830184612fc7565b9695505050505050565b7f496e76616c6964207369676e6174757265000000000000000000000000000000600082015250565b6000613a27601183612bf7565b9150613a32826139f1565b602082019050919050565b60006020820190508181036000830152613a5681613a1a565b9050919050565b7f546f6b656e20494420616c726561647920757365640000000000000000000000600082015250565b6000613a93601583612bf7565b9150613a9e82613a5d565b602082019050919050565b60006020820190508181036000830152613ac281613a86565b9050919050565b600081519050919050565b600082825260208201905092915050565b6000613af082613ac9565b613afa8185613ad4565b9350613b0a818560208601612c08565b613b1381612c32565b840191505092915050565b6000608082019050613b336000830187612d33565b613b406020830186612d33565b613b4d6040830185612fc7565b8181036060830152613b5f8184613ae5565b905095945050505050565b600081519050613b7981612b5d565b92915050565b600060208284031215613b9557613b94612b27565b5b6000613ba384828501613b6a565b91505092915050565b600081905092915050565b6000613bc282612bec565b613bcc8185613bac565b9350613bdc818560208601612c08565b80840191505092915050565b6000613bf48285613bb7565b9150613c008284613bb7565b91508190509392505050565b6000604082019050613c216000830185612d33565b613c2e6020830184612fc7565b9392505050565b7f4e487b7100000000000000000000000000000000000000000000000000000000600052602160045260246000fd5b6000602082019050613c796000830184613036565b92915050565b7f4e487b7100000000000000000000000000000000000000000000000000000000600052601260045260246000fd5b600060a082019050613cc36000830188613036565b613cd06020830187613036565b613cdd6040830186613036565b613cea6060830185612fc7565b613cf76080830184612d33565b9695505050505050565b600060ff82169050919050565b613d1781613d01565b82525050565b6000608082019050613d326000830187613036565b613d3f6020830186613d0e565b613d4c6040830185613036565b613d596060830184613036565b9594505050505056fea2646970667358221220a2ad98bac127fa25c49a881a6881e7c9668716f7652cec95eda402f736fba89164736f6c63430008140033",
  "linkReferences": {},
  "deployedLinkReferences": {}
}