{
  "_format": "hh-sol-artifact-1",
  "contractName": "CraftiaxNFT",
  "sourceName": "contracts/CNFT.sol",
  "abi": [
    {
      "inputs": [
        {
          "internalType": "address",
          "name": "initialOwner",
          "type": "address"
        },
        {
          "internalType": "string",
          "name": "baseURI",
          "type": "string"
        },
        {
          "internalType": "address",
          "name": "verifier",
          "type": "address"
        }
      ],
      "stateMutability": "nonpayable",
      "type": "constructor"
    },
    {
      "inputs": [],
      "name": "ECDSAInvalidSignature",
      "type": "error"
    },
    {
      "inputs": [
        {
          "internalType": "uint256",
          "name": "length",
          "type": "uint256"
        }
      ],
      "name": "ECDSAInvalidSignatureLength",
      "type": "error"
    },
    {
      "inputs": [
        {
          "internalType": "bytes32",
          "name": "s",
          "type": "bytes32"
        }
      ],
      "name": "ECDSAInvalidSignatureS",
      "type": "error"
    },
    {
      "inputs": [
        {
          "internalType": "address",
          "name": "sender",
          "type": "address"
        },
        {
          "internalType": "uint256",
          "name": "tokenId",
          "type": "uint256"
        },
        {
          "internalType": "address",
          "name": "owner",
          "type": "address"
        }
      ],
      "name": "ERC721IncorrectOwner",
      "type": "error"
    },
    {
      "inputs": [
        {
          "internalType": "address",
          "name": "operator",
          "type": "address"
        },
        {
          "internalType": "uint256",
          "name": "tokenId",
          "type": "uint256"
        }
      ],
      "name": "ERC721InsufficientApproval",
      "type": "error"
    },
    {
      "inputs": [
        {
          "internalType": "address",
          "name": "approver",
          "type": "address"
        }
      ],
      "name": "ERC721InvalidApprover",
      "type": "error"
    },
    {
      "inputs": [
        {
          "internalType": "address",
          "name": "operator",
          "type": "address"
        }
      ],
      "name": "ERC721InvalidOperator",
      "type": "error"
    },
    {
      "inputs": [
        {
          "internalType": "address",
          "name": "owner",
          "type": "address"
        }
      ],
      "name": "ERC721InvalidOwner",
      "type": "error"
    },
    {
      "inputs": [
        {
          "internalType": "address",
          "name": "receiver",
          "type": "address"
        }
      ],
      "name": "ERC721InvalidReceiver",
      "type": "error"
    },
    {
      "inputs": [
        {
          "internalType": "address",
          "name": "sender",
          "type": "address"
        }
      ],
      "name": "ERC721InvalidSender",
      "type": "error"
    },
    {
      "inputs": [
        {
          "internalType": "uint256",
          "name": "tokenId",
          "type": "uint256"
        }
      ],
      "name": "ERC721NonexistentToken",
      "type": "error"
    },
    {
      "inputs": [],
      "name": "EnforcedPause",
      "type": "error"
    },
    {
      "inputs": [],
      "name": "ExpectedPause",
      "type": "error"
    },
    {
      "inputs": [],
      "name": "InvalidShortString",
      "type": "error"
    },
    {
      "inputs": [
        {
          "internalType": "address",
          "name": "owner",
          "type": "address"
        }
      ],
      "name": "OwnableInvalidOwner",
      "type": "error"
    },
    {
      "inputs": [
        {
          "internalType": "address",
          "name": "account",
          "type": "address"
        }
      ],
      "name": "OwnableUnauthorizedAccount",
      "type": "error"
    },
    {
      "inputs": [],
      "name": "ReentrancyGuardReentrantCall",
      "type": "error"
    },
    {
      "inputs": [
        {
          "internalType": "string",
          "name": "str",
          "type": "string"
        }
      ],
      "name": "StringTooLong",
      "type": "error"
    },
    {
      "anonymous": false,
      "inputs": [
        {
          "indexed": true,
          "internalType": "address",
          "name": "owner",
          "type": "address"
        },
        {
          "indexed": true,
          "internalType": "address",
          "name": "approved",
          "type": "address"
        },
        {
          "indexed": true,
          "internalType": "uint256",
          "name": "tokenId",
          "type": "uint256"
        }
      ],
      "name": "Approval",
      "type": "event"
    },
    {
      "anonymous": false,
      "inputs": [
        {
          "indexed": true,
          "internalType": "address",
          "name": "owner",
          "type": "address"
        },
        {
          "indexed": true,
          "internalType": "address",
          "name": "operator",
          "type": "address"
        },
        {
          "indexed": false,
          "internalType": "bool",
          "name": "approved",
          "type": "bool"
        }
      ],
      "name": "ApprovalForAll",
      "type": "event"
    },
    {
      "anonymous": false,
      "inputs": [
        {
          "indexed": false,
          "internalType": "string",
          "name": "newBaseURI",
          "type": "string"
        }
      ],
      "name": "BaseURIChanged",
      "type": "event"
    },
    {
      "anonymous": false,
      "inputs": [
        {
          "indexed": false,
          "internalType": "uint256",
          "name": "_fromTokenId",
          "type": "uint256"
        },
        {
          "indexed": false,
          "internalType": "uint256",
          "name": "_toTokenId",
          "type": "uint256"
        }
      ],
      "name": "BatchMetadataUpdate",
      "type": "event"
    },
    {
      "anonymous": false,
      "inputs": [
        {
          "indexed": false,
          "internalType": "uint256",
          "name": "startTokenId",
          "type": "uint256"
        },
        {
          "indexed": false,
          "internalType": "uint256",
          "name": "endTokenId",
          "type": "uint256"
        },
        {
          "indexed": true,
          "internalType": "address",
          "name": "minter",
          "type": "address"
        }
      ],
      "name": "BatchMintCompleted",
      "type": "event"
    },
    {
      "anonymous": false,
      "inputs": [
        {
          "indexed": true,
          "internalType": "address",
          "name": "operator",
          "type": "address"
        },
        {
          "indexed": false,
          "internalType": "uint256",
          "name": "timestamp",
          "type": "uint256"
        }
      ],
      "name": "ContractPaused",
      "type": "event"
    },
    {
      "anonymous": false,
      "inputs": [
        {
          "indexed": true,
          "internalType": "address",
          "name": "operator",
          "type": "address"
        },
        {
          "indexed": false,
          "internalType": "uint256",
          "name": "timestamp",
          "type": "uint256"
        }
      ],
      "name": "ContractUnpaused",
      "type": "event"
    },
    {
      "anonymous": false,
      "inputs": [],
      "name": "EIP712DomainChanged",
      "type": "event"
    },
    {
      "anonymous": false,
      "inputs": [
        {
          "indexed": false,
          "internalType": "uint256",
          "name": "_tokenId",
          "type": "uint256"
        }
      ],
      "name": "MetadataUpdate",
      "type": "event"
    },
    {
      "anonymous": false,
      "inputs": [
        {
          "indexed": true,
          "internalType": "address",
          "name": "user",
          "type": "address"
        },
        {
          "indexed": false,
          "internalType": "uint256",
          "name": "nonce",
          "type": "uint256"
        }
      ],
      "name": "NonceInvalidated",
      "type": "event"
    },
    {
      "anonymous": false,
      "inputs": [
        {
          "indexed": true,
          "internalType": "address",
          "name": "previousOwner",
          "type": "address"
        },
        {
          "indexed": true,
          "internalType": "address",
          "name": "newOwner",
          "type": "address"
        }
      ],
      "name": "OwnershipTransferred",
      "type": "event"
    },
    {
      "anonymous": false,
      "inputs": [
        {
          "indexed": false,
          "internalType": "address",
          "name": "account",
          "type": "address"
        }
      ],
      "name": "Paused",
      "type": "event"
    },
    {
      "anonymous": false,
      "inputs": [
        {
          "indexed": true,
          "internalType": "address",
          "name": "burner",
          "type": "address"
        },
        {
          "indexed": true,
          "internalType": "uint256",
          "name": "tokenId",
          "type": "uint256"
        }
      ],
      "name": "TokenBurned",
      "type": "event"
    },
    {
      "anonymous": false,
      "inputs": [
        {
          "indexed": true,
          "internalType": "address",
          "name": "to",
          "type": "address"
        },
        {
          "indexed": true,
          "internalType": "uint256",
          "name": "tokenId",
          "type": "uint256"
        },
        {
          "indexed": false,
          "internalType": "string",
          "name": "uri",
          "type": "string"
        }
      ],
      "name": "TokenMinted",
      "type": "event"
    },
    {
      "anonymous": false,
      "inputs": [
        {
          "indexed": true,
          "internalType": "address",
          "name": "from",
          "type": "address"
        },
        {
          "indexed": true,
          "internalType": "address",
          "name": "to",
          "type": "address"
        },
        {
          "indexed": true,
          "internalType": "uint256",
          "name": "tokenId",
          "type": "uint256"
        }
      ],
      "name": "Transfer",
      "type": "event"
    },
    {
      "anonymous": false,
      "inputs": [
        {
          "indexed": false,
          "internalType": "address",
          "name": "account",
          "type": "address"
        }
      ],
      "name": "Unpaused",
      "type": "event"
    },
    {
      "anonymous": false,
      "inputs": [
        {
          "indexed": true,
          "internalType": "address",
          "name": "oldVerifier",
          "type": "address"
        },
        {
          "indexed": true,
          "internalType": "address",
          "name": "newVerifier",
          "type": "address"
        }
      ],
      "name": "VerifierUpdated",
      "type": "event"
    },
    {
      "inputs": [
        {
          "internalType": "address",
          "name": "to",
          "type": "address"
        },
        {
          "internalType": "uint256",
          "name": "tokenId",
          "type": "uint256"
        }
      ],
      "name": "approve",
      "outputs": [],
      "stateMutability": "nonpayable",
      "type": "function"
    },
    {
      "inputs": [
        {
          "internalType": "address",
          "name": "owner",
          "type": "address"
        }
      ],
      "name": "balanceOf",
      "outputs": [
        {
          "internalType": "uint256",
          "name": "",
          "type": "uint256"
        }
      ],
      "stateMutability": "view",
      "type": "function"
    },
    {
      "inputs": [
        {
          "internalType": "uint256",
          "name": "tokenId",
          "type": "uint256"
        }
      ],
      "name": "burn",
      "outputs": [],
      "stateMutability": "nonpayable",
      "type": "function"
    },
    {
      "inputs": [],
      "name": "eip712Domain",
      "outputs": [
        {
          "internalType": "bytes1",
          "name": "fields",
          "type": "bytes1"
        },
        {
          "internalType": "string",
          "name": "name",
          "type": "string"
        },
        {
          "internalType": "string",
          "name": "version",
          "type": "string"
        },
        {
          "internalType": "uint256",
          "name": "chainId",
          "type": "uint256"
        },
        {
          "internalType": "address",
          "name": "verifyingContract",
          "type": "address"
        },
        {
          "internalType": "bytes32",
          "name": "salt",
          "type": "bytes32"
        },
        {
          "internalType": "uint256[]",
          "name": "extensions",
          "type": "uint256[]"
        }
      ],
      "stateMutability": "view",
      "type": "function"
    },
    {
      "inputs": [
        {
          "internalType": "uint256",
          "name": "tokenId",
          "type": "uint256"
        }
      ],
      "name": "getApproved",
      "outputs": [
        {
          "internalType": "address",
          "name": "",
          "type": "address"
        }
      ],
      "stateMutability": "view",
      "type": "function"
    },
    {
      "inputs": [
        {
          "internalType": "address",
          "name": "user",
          "type": "address"
        }
      ],
      "name": "invalidateNonce",
      "outputs": [],
      "stateMutability": "nonpayable",
      "type": "function"
    },
    {
      "inputs": [
        {
          "internalType": "address",
          "name": "owner",
          "type": "address"
        },
        {
          "internalType": "address",
          "name": "operator",
          "type": "address"
        }
      ],
      "name": "isApprovedForAll",
      "outputs": [
        {
          "internalType": "bool",
          "name": "",
          "type": "bool"
        }
      ],
      "stateMutability": "view",
      "type": "function"
    },
    {
      "inputs": [],
      "name": "name",
      "outputs": [
        {
          "internalType": "string",
          "name": "",
          "type": "string"
        }
      ],
      "stateMutability": "view",
      "type": "function"
    },
    {
      "inputs": [
        {
          "internalType": "address",
          "name": "owner",
          "type": "address"
        }
      ],
      "name": "nonces",
      "outputs": [
        {
          "internalType": "uint256",
          "name": "",
          "type": "uint256"
        }
      ],
      "stateMutability": "view",
      "type": "function"
    },
    {
      "inputs": [],
      "name": "owner",
      "outputs": [
        {
          "internalType": "address",
          "name": "",
          "type": "address"
        }
      ],
      "stateMutability": "view",
      "type": "function"
    },
    {
      "inputs": [
        {
          "internalType": "uint256",
          "name": "tokenId",
          "type": "uint256"
        }
      ],
      "name": "ownerOf",
      "outputs": [
        {
          "internalType": "address",
          "name": "",
          "type": "address"
        }
      ],
      "stateMutability": "view",
      "type": "function"
    },
    {
      "inputs": [],
      "name": "pause",
      "outputs": [],
      "stateMutability": "nonpayable",
      "type": "function"
    },
    {
      "inputs": [],
      "name": "paused",
      "outputs": [
        {
          "internalType": "bool",
          "name": "",
          "type": "bool"
        }
      ],
      "stateMutability": "view",
      "type": "function"
    },
    {
      "inputs": [],
      "name": "renounceOwnership",
      "outputs": [],
      "stateMutability": "nonpayable",
      "type": "function"
    },
    {
      "inputs": [
        {
          "internalType": "address",
          "name": "to",
          "type": "address"
        },
        {
          "internalType": "string",
          "name": "uri",
          "type": "string"
        },
        {
          "internalType": "uint256",
          "name": "deadline",
          "type": "uint256"
        },
        {
          "internalType": "bytes",
          "name": "signature",
          "type": "bytes"
        }
      ],
      "name": "safeMint",
      "outputs": [],
      "stateMutability": "nonpayable",
      "type": "function"
    },
    {
      "inputs": [
        {
          "internalType": "address",
          "name": "from",
          "type": "address"
        },
        {
          "internalType": "address",
          "name": "to",
          "type": "address"
        },
        {
          "internalType": "uint256",
          "name": "tokenId",
          "type": "uint256"
        }
      ],
      "name": "safeTransferFrom",
      "outputs": [],
      "stateMutability": "nonpayable",
      "type": "function"
    },
    {
      "inputs": [
        {
          "internalType": "address",
          "name": "from",
          "type": "address"
        },
        {
          "internalType": "address",
          "name": "to",
          "type": "address"
        },
        {
          "internalType": "uint256",
          "name": "tokenId",
          "type": "uint256"
        },
        {
          "internalType": "bytes",
          "name": "data",
          "type": "bytes"
        }
      ],
      "name": "safeTransferFrom",
      "outputs": [],
      "stateMutability": "nonpayable",
      "type": "function"
    },
    {
      "inputs": [
        {
          "internalType": "address",
          "name": "operator",
          "type": "address"
        },
        {
          "internalType": "bool",
          "name": "approved",
          "type": "bool"
        }
      ],
      "name": "setApprovalForAll",
      "outputs": [],
      "stateMutability": "nonpayable",
      "type": "function"
    },
    {
      "inputs": [
        {
          "internalType": "string",
          "name": "newBaseURI",
          "type": "string"
        }
      ],
      "name": "setBaseURI",
      "outputs": [],
      "stateMutability": "nonpayable",
      "type": "function"
    },
    {
      "inputs": [
        {
          "internalType": "bytes4",
          "name": "interfaceId",
          "type": "bytes4"
        }
      ],
      "name": "supportsInterface",
      "outputs": [
        {
          "internalType": "bool",
          "name": "",
          "type": "bool"
        }
      ],
      "stateMutability": "view",
      "type": "function"
    },
    {
      "inputs": [],
      "name": "symbol",
      "outputs": [
        {
          "internalType": "string",
          "name": "",
          "type": "string"
        }
      ],
      "stateMutability": "view",
      "type": "function"
    },
    {
      "inputs": [
        {
          "internalType": "uint256",
          "name": "tokenId",
          "type": "uint256"
        }
      ],
      "name": "tokenURI",
      "outputs": [
        {
          "internalType": "string",
          "name": "",
          "type": "string"
        }
      ],
      "stateMutability": "view",
      "type": "function"
    },
    {
      "inputs": [
        {
          "internalType": "address",
          "name": "from",
          "type": "address"
        },
        {
          "internalType": "address",
          "name": "to",
          "type": "address"
        },
        {
          "internalType": "uint256",
          "name": "tokenId",
          "type": "uint256"
        }
      ],
      "name": "transferFrom",
      "outputs": [],
      "stateMutability": "nonpayable",
      "type": "function"
    },
    {
      "inputs": [
        {
          "internalType": "address",
          "name": "newOwner",
          "type": "address"
        }
      ],
      "name": "transferOwnership",
      "outputs": [],
      "stateMutability": "nonpayable",
      "type": "function"
    },
    {
      "inputs": [],
      "name": "unpause",
      "outputs": [],
      "stateMutability": "nonpayable",
      "type": "function"
    },
    {
      "inputs": [
        {
          "internalType": "address",
          "name": "newVerifier",
          "type": "address"
        }
      ],
      "name": "updateVerifier",
      "outputs": [],
      "stateMutability": "nonpayable",
      "type": "function"
    }
  ],
  "bytecode": "0x6101606040523480156200001257600080fd5b506040516200295e3803806200295e833981016040819052620000359162000337565b6040518060400160405280600b81526020016a10dc98599d1a585e13919560aa1b815250604051806040016040528060018152602001603160f81b815250846040518060400160405280600b81526020016a10dc98599d1a585e13919560aa1b8152506040518060400160405280600481526020016310d3919560e21b8152508160009081620000c69190620004a6565b506001620000d58282620004a6565b5050506001600160a01b0381166200010857604051631e4fbdf760e01b8152600060048201526024015b60405180910390fd5b620001138162000210565b5060016008556009805460ff191690556200013082600a62000262565b610120526200014181600b62000262565b61014052815160208084019190912060e052815190820120610100524660a052620001cf60e05161010051604080517f8b73c3c69bb8fe3d512ecc4cf759cc79239f7b179b0ffacaa9a75d522b39400f60208201529081019290925260608201524660808201523060a082015260009060c00160405160208183030381529060405280519060200120905090565b60805250503060c052600d620001e68382620004a6565b50601080546001600160a01b0319166001600160a01b039290921691909117905550620005cc9050565b600780546001600160a01b038381166001600160a01b0319831681179093556040519116919082907f8be0079c531659141344cd1fd0a4f28419497f9722a3daafe3b4186f6b6457e090600090a35050565b600060208351101562000282576200027a836200029b565b905062000295565b816200028f8482620004a6565b5060ff90505b92915050565b600080829050601f81511115620002c9578260405163305a27a960e01b8152600401620000ff919062000572565b8051620002d682620005a7565b179392505050565b80516001600160a01b0381168114620002f657600080fd5b919050565b634e487b7160e01b600052604160045260246000fd5b60005b838110156200032e57818101518382015260200162000314565b50506000910152565b6000806000606084860312156200034d57600080fd5b6200035884620002de565b60208501519093506001600160401b03808211156200037657600080fd5b818601915086601f8301126200038b57600080fd5b815181811115620003a057620003a0620002fb565b604051601f8201601f19908116603f01168101908382118183101715620003cb57620003cb620002fb565b81604052828152896020848701011115620003e557600080fd5b620003f883602083016020880162000311565b80965050505050506200040e60408501620002de565b90509250925092565b600181811c908216806200042c57607f821691505b6020821081036200044d57634e487b7160e01b600052602260045260246000fd5b50919050565b601f821115620004a157600081815260208120601f850160051c810160208610156200047c5750805b601f850160051c820191505b818110156200049d5782815560010162000488565b5050505b505050565b81516001600160401b03811115620004c257620004c2620002fb565b620004da81620004d3845462000417565b8462000453565b602080601f831160018114620005125760008415620004f95750858301515b600019600386901b1c1916600185901b1785556200049d565b600085815260208120601f198616915b82811015620005435788860151825594840194600190910190840162000522565b5085821015620005625787850151600019600388901b60f8161c191681555b5050505050600190811b01905550565b60208152600082518060208401526200059381604085016020870162000311565b601f01601f19169190910160400192915050565b805160208083015191908110156200044d5760001960209190910360031b1b16919050565b60805160a05160c05160e0516101005161012051610140516123376200062760003960006110e2015260006110b001526000611820015260006117f8015260006117530152600061177d015260006117a701526123376000f3fe608060405234801561001057600080fd5b506004361061018e5760003560e01c8063715018a6116100de57806397fc007c11610097578063c87b56dd11610071578063c87b56dd1461035c578063e5763b731461036f578063e985e9c514610382578063f2fde38b1461039557600080fd5b806397fc007c14610323578063a22cb46514610336578063b88d4fde1461034957600080fd5b8063715018a6146102b65780637ecebe00146102be5780638456cb59146102e757806384b0196e146102ef5780638da5cb5b1461030a57806395d89b411461031b57600080fd5b806342842e0e1161014b57806355f804b31161012557806355f804b3146102645780635c975abb146102775780636352211e1461028257806370a082311461029557600080fd5b806342842e0e1461022b57806342966c681461023e57806353a780641461025157600080fd5b806301ffc9a71461019357806306fdde03146101bb578063081812fc146101d0578063095ea7b3146101fb57806323b872dd146102105780633f4ba83a14610223575b600080fd5b6101a66101a1366004611d0e565b6103a8565b60405190151581526020015b60405180910390f35b6101c36103b9565b6040516101b29190611d7b565b6101e36101de366004611d8e565b61044b565b6040516001600160a01b0390911681526020016101b2565b61020e610209366004611dc3565b610474565b005b61020e61021e366004611ded565b610483565b61020e610513565b61020e610239366004611ded565b61055b565b61020e61024c366004611d8e565b61057b565b61020e61025f366004611e29565b6106a5565b61020e610272366004611ee7565b610755565b60095460ff166101a6565b6101e3610290366004611d8e565b6107f5565b6102a86102a3366004611e29565b610800565b6040519081526020016101b2565b61020e610848565b6102a86102cc366004611e29565b6001600160a01b03166000908152600f602052604090205490565b61020e61085c565b6102f761089e565b6040516101b29796959493929190611f1c565b6007546001600160a01b03166101e3565b6101c36108e4565b61020e610331366004611e29565b6108f3565b61020e610344366004611fb2565b6109a3565b61020e610357366004611fee565b6109ae565b6101c361036a366004611d8e565b6109c6565b61020e61037d366004612056565b6109db565b6101a66103903660046120c8565b610cf5565b61020e6103a3366004611e29565b610d23565b60006103b382610d5e565b92915050565b6060600080546103c8906120fb565b80601f01602080910402602001604051908101604052809291908181526020018280546103f4906120fb565b80156104415780601f1061041657610100808354040283529160200191610441565b820191906000526020600020905b81548152906001019060200180831161042457829003601f168201915b5050505050905090565b600061045682610d83565b506000828152600460205260409020546001600160a01b03166103b3565b61047f828233610dbc565b5050565b6001600160a01b0382166104b257604051633250574960e11b8152600060048201526024015b60405180910390fd5b60006104bf838333610dc9565b9050836001600160a01b0316816001600160a01b03161461050d576040516364283d7b60e01b81526001600160a01b03808616600483015260248201849052821660448201526064016104a9565b50505050565b61051b610ec2565b610523610eef565b60405142815233907f107553d8191d85b405879cf752997865edd48d94e20bda4dd27223c94b31a7cc906020015b60405180910390a2565b610576838383604051806020016040528060008152506109ae565b505050565b610583610f41565b61058b610f6b565b6000610596826107f5565b9050336001600160a01b0382168114806105b557506105b58282610cf5565b806105d95750806001600160a01b03166105ce8461044b565b6001600160a01b0316145b6106255760405162461bcd60e51b815260206004820152601f60248201527f43616c6c6572206973206e6f74206f776e6572206f7220617070726f7665640060448201526064016104a9565b61063e8360405180602001604052806000815250610f8f565b6000838152600e60205260409020805460ff1916600117905561066083610fdf565b60405183906001600160a01b038316907f1af5163f80e79b5e554f61e1d052084d3a3fe1166e42a265798c4e2ddce8ffa290600090a350506106a26001600855565b50565b6106ad610ec2565b6001600160a01b0381166106fa5760405162461bcd60e51b8152602060048201526014602482015273496e76616c69642075736572206164647265737360601b60448201526064016104a9565b6001600160a01b0381166000818152600f6020908152604091829020805460001990915591518281529192917f1800cd2301fbc20790ed94f3d55a28ef2306a9c31cd3c72b5b71b6e4cf5c6241910160405180910390a25050565b61075d610ec2565b60008151116107ae5760405162461bcd60e51b815260206004820152601860248201527f42617365205552492063616e6e6f7420626520656d707479000000000000000060448201526064016104a9565b600d6107ba828261217b565b507f5411e8ebf1636d9e83d5fc4900bf80cbac82e8790da2a4c94db4895e889eedf6816040516107ea9190611d7b565b60405180910390a150565b60006103b382610d83565b60006001600160a01b03821661082c576040516322718ad960e21b8152600060048201526024016104a9565b506001600160a01b031660009081526003602052604090205490565b610850610ec2565b61085a600061101a565b565b610864610ec2565b61086c61106c565b60405142815233907f80170b5fcdd2bf1e0660ef4b8851f86685f64d41b1a19de1471947ece8725aac90602001610551565b6000606080600080600060606108b26110a9565b6108ba6110db565b60408051600080825260208201909252600f60f81b9b939a50919850469750309650945092509050565b6060600180546103c8906120fb565b6108fb610ec2565b6001600160a01b0381166109515760405162461bcd60e51b815260206004820152601860248201527f496e76616c69642076657269666965722061646472657373000000000000000060448201526064016104a9565b601080546001600160a01b038381166001600160a01b0319831681179093556040519116919082907f0243549a92b2412f7a3caf7a2e56d65b8821b91345363faa5f57195384065fcc90600090a35050565b61047f338383611108565b6109b9848484610483565b61050d33858585856111a7565b60606109d1826107f5565b506103b3826112d2565b6109e3610f41565b6109eb610f6b565b6001600c5410610a325760405162461bcd60e51b815260206004820152601260248201527113585e081cdd5c1c1b1e481c995858da195960721b60448201526064016104a9565b81421115610a765760405162461bcd60e51b815260206004820152601160248201527014da59db985d1d5c9948195e1c1a5c9959607a1b60448201526064016104a9565b6001600160a01b038416610acc5760405162461bcd60e51b815260206004820152601960248201527f496e76616c696420726563697069656e7420616464726573730000000000000060448201526064016104a9565b6000835111610b135760405162461bcd60e51b81526020600482015260136024820152725552492063616e6e6f7420626520656d70747960681b60448201526064016104a9565b82516020808501919091206001600160a01b0386166000908152600f9092526040822080547fce3829100355b953ccf0678623667f04f1ef312616e89358bc4973f327d3b68b92889290919085610b698361223b565b909155506040805160208101959095526001600160a01b03909316928401929092526060830152608082015260a0810184905260c0016040516020818303038152906040528051906020012090506000610bc2826113d6565b90506000610bd08285611403565b6010549091506001600160a01b03808316911614610c245760405162461bcd60e51b8152602060048201526011602482015270496e76616c6964207369676e617475726560781b60448201526064016104a9565b600c805460009182610c358361223b565b909155506000818152600e602052604090205490915060ff1615610c915760405162461bcd60e51b8152602060048201526013602482015272151bdad95b881251081dd85cc8189d5c9b9959606a1b60448201526064016104a9565b610c9b888261142d565b610ca58188610f8f565b80886001600160a01b03167fdf92894dc4675a7333caa5903b69cf5d8e8ec0d3f361c88207b6688e525703bb89604051610cdf9190611d7b565b60405180910390a35050505061050d6001600855565b6001600160a01b03918216600090815260056020908152604080832093909416825291909152205460ff1690565b610d2b610ec2565b6001600160a01b038116610d5557604051631e4fbdf760e01b8152600060048201526024016104a9565b6106a28161101a565b60006001600160e01b03198216632483248360e11b14806103b357506103b382611447565b6000818152600260205260408120546001600160a01b0316806103b357604051637e27328960e01b8152600481018490526024016104a9565b6105768383836001611497565b6000828152600260205260408120546001600160a01b0390811690831615610df657610df681848661159d565b6001600160a01b03811615610e3457610e13600085600080611497565b6001600160a01b038116600090815260036020526040902080546000190190555b6001600160a01b03851615610e63576001600160a01b0385166000908152600360205260409020805460010190555b60008481526002602052604080822080546001600160a01b0319166001600160a01b0389811691821790925591518793918516917fddf252ad1be2c89b69c2b068fc378daa952ba7f163c4a11628f55a4df523b3ef91a4949350505050565b6007546001600160a01b0316331461085a5760405163118cdaa760e01b81523360048201526024016104a9565b610ef7611601565b6009805460ff191690557f5db9ee0a495bf2e6ff9c91a7834c1ba4fdd244a5e8aa4e537bd38aeae4b073aa335b6040516001600160a01b03909116815260200160405180910390a1565b600260085403610f6457604051633ee5aeb560e01b815260040160405180910390fd5b6002600855565b60095460ff161561085a5760405163d93c066560e01b815260040160405180910390fd5b6000828152600660205260409020610fa7828261217b565b506040518281527ff8e1a15aba9398e019f0b49df1a4fde98ee17ae345cb5f6b5e2c27f5033e8ce79060200160405180910390a15050565b6000610fee6000836000610dc9565b90506001600160a01b03811661047f57604051637e27328960e01b8152600481018390526024016104a9565b600780546001600160a01b038381166001600160a01b0319831681179093556040519116919082907f8be0079c531659141344cd1fd0a4f28419497f9722a3daafe3b4186f6b6457e090600090a35050565b611074610f6b565b6009805460ff191660011790557f62e78cea01bee320cd4e420270b5ea74000d11b0c9f74754ebdbfc544b05a258610f243390565b60606110d67f0000000000000000000000000000000000000000000000000000000000000000600a611624565b905090565b60606110d67f0000000000000000000000000000000000000000000000000000000000000000600b611624565b6001600160a01b03821661113a57604051630b61174360e31b81526001600160a01b03831660048201526024016104a9565b6001600160a01b03838116600081815260056020908152604080832094871680845294825291829020805460ff191686151590811790915591519182527f17307eab39ab6107e8899845ad3d59bd9653f200f220920489ca2b5937696c31910160405180910390a3505050565b6001600160a01b0383163b156112cb57604051630a85bd0160e11b81526001600160a01b0384169063150b7a02906111e9908890889087908790600401612262565b6020604051808303816000875af1925050508015611224575060408051601f3d908101601f191682019092526112219181019061229f565b60015b61128d573d808015611252576040519150601f19603f3d011682016040523d82523d6000602084013e611257565b606091505b50805160000361128557604051633250574960e11b81526001600160a01b03851660048201526024016104a9565b805181602001fd5b6001600160e01b03198116630a85bd0160e11b146112c957604051633250574960e11b81526001600160a01b03851660048201526024016104a9565b505b5050505050565b60606112dd82610d83565b50600082815260066020526040812080546112f7906120fb565b80601f0160208091040260200160405190810160405280929190818152602001828054611323906120fb565b80156113705780601f1061134557610100808354040283529160200191611370565b820191906000526020600020905b81548152906001019060200180831161135357829003601f168201915b5050505050905060006113816116cf565b90508051600003611393575092915050565b8151156113c55780826040516020016113ad9291906122bc565b60405160208183030381529060405292505050919050565b6113ce846116de565b949350505050565b60006103b36113e3611746565b8360405161190160f01b8152600281019290925260228201526042902090565b6000806000806114138686611871565b92509250925061142382826118be565b5090949350505050565b61047f828260405180602001604052806000815250611977565b60006001600160e01b031982166380ac58cd60e01b148061147857506001600160e01b03198216635b5e139f60e01b145b806103b357506301ffc9a760e01b6001600160e01b03198316146103b3565b80806114ab57506001600160a01b03821615155b1561156d5760006114bb84610d83565b90506001600160a01b038316158015906114e75750826001600160a01b0316816001600160a01b031614155b80156114fa57506114f88184610cf5565b155b156115235760405163a9fbf51f60e01b81526001600160a01b03841660048201526024016104a9565b811561156b5783856001600160a01b0316826001600160a01b03167f8c5be1e5ebec7d5bd14f71427d1e84f3dd0314c0f7b2291e5b200ac8c7c3b92560405160405180910390a45b505b5050600090815260046020526040902080546001600160a01b0319166001600160a01b0392909216919091179055565b6115a883838361198f565b610576576001600160a01b0383166115d657604051637e27328960e01b8152600481018290526024016104a9565b60405163177e802f60e01b81526001600160a01b0383166004820152602481018290526044016104a9565b60095460ff1661085a57604051638dfc202b60e01b815260040160405180910390fd5b606060ff831461163e57611637836119f2565b90506103b3565b81805461164a906120fb565b80601f0160208091040260200160405190810160405280929190818152602001828054611676906120fb565b80156116c35780601f10611698576101008083540402835291602001916116c3565b820191906000526020600020905b8154815290600101906020018083116116a657829003601f168201915b505050505090506103b3565b6060600d80546103c8906120fb565b60606116e982610d83565b5060006116f46116cf565b90506000815111611714576040518060200160405280600081525061173f565b8061171e84611a31565b60405160200161172f9291906122bc565b6040516020818303038152906040525b9392505050565b6000306001600160a01b037f00000000000000000000000000000000000000000000000000000000000000001614801561179f57507f000000000000000000000000000000000000000000000000000000000000000046145b156117c957507f000000000000000000000000000000000000000000000000000000000000000090565b6110d6604080517f8b73c3c69bb8fe3d512ecc4cf759cc79239f7b179b0ffacaa9a75d522b39400f60208201527f0000000000000000000000000000000000000000000000000000000000000000918101919091527f000000000000000000000000000000000000000000000000000000000000000060608201524660808201523060a082015260009060c00160405160208183030381529060405280519060200120905090565b600080600083516041036118ab5760208401516040850151606086015160001a61189d88828585611ac4565b9550955095505050506118b7565b50508151600091506002905b9250925092565b60008260038111156118d2576118d26122eb565b036118db575050565b60018260038111156118ef576118ef6122eb565b0361190d5760405163f645eedf60e01b815260040160405180910390fd5b6002826003811115611921576119216122eb565b036119425760405163fce698f760e01b8152600481018290526024016104a9565b6003826003811115611956576119566122eb565b0361047f576040516335e2f38360e21b8152600481018290526024016104a9565b6119818383611b93565b6105763360008585856111a7565b60006001600160a01b038316158015906113ce5750826001600160a01b0316846001600160a01b031614806119c957506119c98484610cf5565b806113ce5750506000908152600460205260409020546001600160a01b03908116911614919050565b606060006119ff83611bf8565b604080516020808252818301909252919250600091906020820181803683375050509182525060208101929092525090565b60606000611a3e83611c20565b600101905060008167ffffffffffffffff811115611a5e57611a5e611e44565b6040519080825280601f01601f191660200182016040528015611a88576020820181803683370190505b5090508181016020015b600019016f181899199a1a9b1b9c1cb0b131b232b360811b600a86061a8153600a8504945084611a9257509392505050565b600080807f7fffffffffffffffffffffffffffffff5d576e7357a4501ddfe92f46681b20a0841115611aff5750600091506003905082611b89565b604080516000808252602082018084528a905260ff891692820192909252606081018790526080810186905260019060a0016020604051602081039080840390855afa158015611b53573d6000803e3d6000fd5b5050604051601f1901519150506001600160a01b038116611b7f57506000925060019150829050611b89565b9250600091508190505b9450945094915050565b6001600160a01b038216611bbd57604051633250574960e11b8152600060048201526024016104a9565b6000611bcb83836000610dc9565b90506001600160a01b03811615610576576040516339e3563760e11b8152600060048201526024016104a9565b600060ff8216601f8111156103b357604051632cd44ac360e21b815260040160405180910390fd5b60008072184f03e93ff9f4daa797ed6e38ed64bf6a1f0160401b8310611c5f5772184f03e93ff9f4daa797ed6e38ed64bf6a1f0160401b830492506040015b6d04ee2d6d415b85acef81000000008310611c8b576d04ee2d6d415b85acef8100000000830492506020015b662386f26fc100008310611ca957662386f26fc10000830492506010015b6305f5e1008310611cc1576305f5e100830492506008015b6127108310611cd557612710830492506004015b60648310611ce7576064830492506002015b600a83106103b35760010192915050565b6001600160e01b0319811681146106a257600080fd5b600060208284031215611d2057600080fd5b813561173f81611cf8565b60005b83811015611d46578181015183820152602001611d2e565b50506000910152565b60008151808452611d67816020860160208601611d2b565b601f01601f19169290920160200192915050565b60208152600061173f6020830184611d4f565b600060208284031215611da057600080fd5b5035919050565b80356001600160a01b0381168114611dbe57600080fd5b919050565b60008060408385031215611dd657600080fd5b611ddf83611da7565b946020939093013593505050565b600080600060608486031215611e0257600080fd5b611e0b84611da7565b9250611e1960208501611da7565b9150604084013590509250925092565b600060208284031215611e3b57600080fd5b61173f82611da7565b634e487b7160e01b600052604160045260246000fd5b600082601f830112611e6b57600080fd5b813567ffffffffffffffff80821115611e8657611e86611e44565b604051601f8301601f19908116603f01168101908282118183101715611eae57611eae611e44565b81604052838152866020858801011115611ec757600080fd5b836020870160208301376000602085830101528094505050505092915050565b600060208284031215611ef957600080fd5b813567ffffffffffffffff811115611f1057600080fd5b6113ce84828501611e5a565b60ff60f81b881681526000602060e081840152611f3c60e084018a611d4f565b8381036040850152611f4e818a611d4f565b606085018990526001600160a01b038816608086015260a0850187905284810360c0860152855180825283870192509083019060005b81811015611fa057835183529284019291840191600101611f84565b50909c9b505050505050505050505050565b60008060408385031215611fc557600080fd5b611fce83611da7565b915060208301358015158114611fe357600080fd5b809150509250929050565b6000806000806080858703121561200457600080fd5b61200d85611da7565b935061201b60208601611da7565b925060408501359150606085013567ffffffffffffffff81111561203e57600080fd5b61204a87828801611e5a565b91505092959194509250565b6000806000806080858703121561206c57600080fd5b61207585611da7565b9350602085013567ffffffffffffffff8082111561209257600080fd5b61209e88838901611e5a565b94506040870135935060608701359150808211156120bb57600080fd5b5061204a87828801611e5a565b600080604083850312156120db57600080fd5b6120e483611da7565b91506120f260208401611da7565b90509250929050565b600181811c9082168061210f57607f821691505b60208210810361212f57634e487b7160e01b600052602260045260246000fd5b50919050565b601f82111561057657600081815260208120601f850160051c8101602086101561215c5750805b601f850160051c820191505b818110156112c957828155600101612168565b815167ffffffffffffffff81111561219557612195611e44565b6121a9816121a384546120fb565b84612135565b602080601f8311600181146121de57600084156121c65750858301515b600019600386901b1c1916600185901b1785556112c9565b600085815260208120601f198616915b8281101561220d578886015182559484019460019091019084016121ee565b508582101561222b5787850151600019600388901b60f8161c191681555b5050505050600190811b01905550565b60006001820161225b57634e487b7160e01b600052601160045260246000fd5b5060010190565b6001600160a01b038581168252841660208201526040810183905260806060820181905260009061229590830184611d4f565b9695505050505050565b6000602082840312156122b157600080fd5b815161173f81611cf8565b600083516122ce818460208801611d2b565b8351908301906122e2818360208801611d2b565b01949350505050565b634e487b7160e01b600052602160045260246000fdfea264697066735822122050d1096f0d1e96ed85dae3ad80841371bad331020349cdbfec63e6b152aec05264736f6c63430008140033",
  "linkReferences": {},
  "deployedLinkReferences": {}
}