{
  "_format": "hh-sol-artifact-1",
  "contractName": "ArtistPayment",
  "sourceName": "contracts/ArtistPayment.sol",
  "abi": [
    {
      "inputs": [
        {
          "internalType": "address",
          "name": "initialOwner",
          "type": "address"
        }
      ],
      "stateMutability": "nonpayable",
      "type": "constructor"
    },
    {
      "inputs": [],
      "name": "ECDSAInvalidSignature",
      "type": "error"
    },
    {
      "inputs": [
        {
          "internalType": "uint256",
          "name": "length",
          "type": "uint256"
        }
      ],
      "name": "ECDSAInvalidSignatureLength",
      "type": "error"
    },
    {
      "inputs": [
        {
          "internalType": "bytes32",
          "name": "s",
          "type": "bytes32"
        }
      ],
      "name": "ECDSAInvalidSignatureS",
      "type": "error"
    },
    {
      "inputs": [],
      "name": "InvalidShortString",
      "type": "error"
    },
    {
      "inputs": [
        {
          "internalType": "address",
          "name": "owner",
          "type": "address"
        }
      ],
      "name": "OwnableInvalidOwner",
      "type": "error"
    },
    {
      "inputs": [
        {
          "internalType": "address",
          "name": "account",
          "type": "address"
        }
      ],
      "name": "OwnableUnauthorizedAccount",
      "type": "error"
    },
    {
      "inputs": [],
      "name": "ReentrancyGuardReentrantCall",
      "type": "error"
    },
    {
      "inputs": [
        {
          "internalType": "string",
          "name": "str",
          "type": "string"
        }
      ],
      "name": "StringTooLong",
      "type": "error"
    },
    {
      "anonymous": false,
      "inputs": [
        {
          "indexed": true,
          "internalType": "address",
          "name": "artist",
          "type": "address"
        },
        {
          "indexed": false,
          "internalType": "bool",
          "name": "isVerified",
          "type": "bool"
        }
      ],
      "name": "ArtistVerificationStatusUpdated",
      "type": "event"
    },
    {
      "anonymous": false,
      "inputs": [
        {
          "indexed": false,
          "internalType": "address",
          "name": "newAddress",
          "type": "address"
        }
      ],
      "name": "CraftiaxAddressUpdated",
      "type": "event"
    },
    {
      "anonymous": false,
      "inputs": [],
      "name": "EIP712DomainChanged",
      "type": "event"
    },
    {
      "anonymous": false,
      "inputs": [
        {
          "indexed": false,
          "internalType": "uint256",
          "name": "newFee",
          "type": "uint256"
        }
      ],
      "name": "FeeUpdated",
      "type": "event"
    },
    {
      "anonymous": false,
      "inputs": [
        {
          "indexed": true,
          "internalType": "address",
          "name": "user",
          "type": "address"
        },
        {
          "indexed": false,
          "internalType": "uint256",
          "name": "currentNonce",
          "type": "uint256"
        }
      ],
      "name": "NonceInvalidated",
      "type": "event"
    },
    {
      "anonymous": false,
      "inputs": [
        {
          "indexed": true,
          "internalType": "address",
          "name": "previousOwner",
          "type": "address"
        },
        {
          "indexed": true,
          "internalType": "address",
          "name": "newOwner",
          "type": "address"
        }
      ],
      "name": "OwnershipTransferred",
      "type": "event"
    },
    {
      "anonymous": false,
      "inputs": [
        {
          "indexed": false,
          "internalType": "uint256",
          "name": "generalMin",
          "type": "uint256"
        },
        {
          "indexed": false,
          "internalType": "uint256",
          "name": "generalMax",
          "type": "uint256"
        },
        {
          "indexed": false,
          "internalType": "uint256",
          "name": "verifiedMax",
          "type": "uint256"
        }
      ],
      "name": "PaymentLimitsUpdated",
      "type": "event"
    },
    {
      "anonymous": false,
      "inputs": [
        {
          "indexed": true,
          "internalType": "address",
          "name": "artist",
          "type": "address"
        },
        {
          "indexed": false,
          "internalType": "uint256",
          "name": "artistAmount",
          "type": "uint256"
        },
        {
          "indexed": false,
          "internalType": "uint256",
          "name": "craftiaxFee",
          "type": "uint256"
        },
        {
          "indexed": false,
          "internalType": "bool",
          "name": "isVerified",
          "type": "bool"
        }
      ],
      "name": "PaymentProcessed",
      "type": "event"
    },
    {
      "anonymous": false,
      "inputs": [
        {
          "indexed": true,
          "internalType": "address",
          "name": "oldVerifier",
          "type": "address"
        },
        {
          "indexed": true,
          "internalType": "address",
          "name": "newVerifier",
          "type": "address"
        }
      ],
      "name": "VerifierUpdated",
      "type": "event"
    },
    {
      "inputs": [],
      "name": "MAX_FEE_PERCENTAGE",
      "outputs": [
        {
          "internalType": "uint256",
          "name": "",
          "type": "uint256"
        }
      ],
      "stateMutability": "view",
      "type": "function"
    },
    {
      "inputs": [],
      "name": "MAX_PAYMENT",
      "outputs": [
        {
          "internalType": "uint256",
          "name": "",
          "type": "uint256"
        }
      ],
      "stateMutability": "view",
      "type": "function"
    },
    {
      "inputs": [],
      "name": "MIN_PAYMENT",
      "outputs": [
        {
          "internalType": "uint256",
          "name": "",
          "type": "uint256"
        }
      ],
      "stateMutability": "view",
      "type": "function"
    },
    {
      "inputs": [],
      "name": "craftiaxAddress",
      "outputs": [
        {
          "internalType": "address",
          "name": "",
          "type": "address"
        }
      ],
      "stateMutability": "view",
      "type": "function"
    },
    {
      "inputs": [],
      "name": "craftiaxFeePercentage",
      "outputs": [
        {
          "internalType": "uint256",
          "name": "",
          "type": "uint256"
        }
      ],
      "stateMutability": "view",
      "type": "function"
    },
    {
      "inputs": [],
      "name": "eip712Domain",
      "outputs": [
        {
          "internalType": "bytes1",
          "name": "fields",
          "type": "bytes1"
        },
        {
          "internalType": "string",
          "name": "name",
          "type": "string"
        },
        {
          "internalType": "string",
          "name": "version",
          "type": "string"
        },
        {
          "internalType": "uint256",
          "name": "chainId",
          "type": "uint256"
        },
        {
          "internalType": "address",
          "name": "verifyingContract",
          "type": "address"
        },
        {
          "internalType": "bytes32",
          "name": "salt",
          "type": "bytes32"
        },
        {
          "internalType": "uint256[]",
          "name": "extensions",
          "type": "uint256[]"
        }
      ],
      "stateMutability": "view",
      "type": "function"
    },
    {
      "inputs": [],
      "name": "generalMaxPayment",
      "outputs": [
        {
          "internalType": "uint256",
          "name": "",
          "type": "uint256"
        }
      ],
      "stateMutability": "view",
      "type": "function"
    },
    {
      "inputs": [],
      "name": "generalMinPayment",
      "outputs": [
        {
          "internalType": "uint256",
          "name": "",
          "type": "uint256"
        }
      ],
      "stateMutability": "view",
      "type": "function"
    },
    {
      "inputs": [
        {
          "internalType": "address",
          "name": "user",
          "type": "address"
        }
      ],
      "name": "invalidateNonce",
      "outputs": [],
      "stateMutability": "nonpayable",
      "type": "function"
    },
    {
      "inputs": [
        {
          "internalType": "address",
          "name": "",
          "type": "address"
        }
      ],
      "name": "isVerifiedArtist",
      "outputs": [
        {
          "internalType": "bool",
          "name": "",
          "type": "bool"
        }
      ],
      "stateMutability": "view",
      "type": "function"
    },
    {
      "inputs": [
        {
          "internalType": "address",
          "name": "owner",
          "type": "address"
        }
      ],
      "name": "nonces",
      "outputs": [
        {
          "internalType": "uint256",
          "name": "",
          "type": "uint256"
        }
      ],
      "stateMutability": "view",
      "type": "function"
    },
    {
      "inputs": [],
      "name": "owner",
      "outputs": [
        {
          "internalType": "address",
          "name": "",
          "type": "address"
        }
      ],
      "stateMutability": "view",
      "type": "function"
    },
    {
      "inputs": [
        {
          "internalType": "address",
          "name": "artistAddress",
          "type": "address"
        },
        {
          "internalType": "uint256",
          "name": "deadline",
          "type": "uint256"
        },
        {
          "internalType": "bytes",
          "name": "signature",
          "type": "bytes"
        }
      ],
      "name": "payArtist",
      "outputs": [],
      "stateMutability": "payable",
      "type": "function"
    },
    {
      "inputs": [],
      "name": "renounceOwnership",
      "outputs": [],
      "stateMutability": "nonpayable",
      "type": "function"
    },
    {
      "inputs": [
        {
          "internalType": "address",
          "name": "artistAddress",
          "type": "address"
        },
        {
          "internalType": "bool",
          "name": "status",
          "type": "bool"
        }
      ],
      "name": "setVerificationStatus",
      "outputs": [],
      "stateMutability": "nonpayable",
      "type": "function"
    },
    {
      "inputs": [
        {
          "internalType": "address[]",
          "name": "artists",
          "type": "address[]"
        },
        {
          "internalType": "bool",
          "name": "status",
          "type": "bool"
        }
      ],
      "name": "setVerificationStatusBatch",
      "outputs": [],
      "stateMutability": "nonpayable",
      "type": "function"
    },
    {
      "inputs": [
        {
          "internalType": "address",
          "name": "newOwner",
          "type": "address"
        }
      ],
      "name": "transferOwnership",
      "outputs": [],
      "stateMutability": "nonpayable",
      "type": "function"
    },
    {
      "inputs": [
        {
          "internalType": "address",
          "name": "newAddress",
          "type": "address"
        }
      ],
      "name": "updateCraftiaxAddress",
      "outputs": [],
      "stateMutability": "nonpayable",
      "type": "function"
    },
    {
      "inputs": [
        {
          "internalType": "uint256",
          "name": "newFee",
          "type": "uint256"
        }
      ],
      "name": "updateFeePercentage",
      "outputs": [],
      "stateMutability": "nonpayable",
      "type": "function"
    },
    {
      "inputs": [
        {
          "internalType": "uint256",
          "name": "newGeneralMin",
          "type": "uint256"
        },
        {
          "internalType": "uint256",
          "name": "newGeneralMax",
          "type": "uint256"
        },
        {
          "internalType": "uint256",
          "name": "newVerifiedMax",
          "type": "uint256"
        }
      ],
      "name": "updatePaymentLimits",
      "outputs": [],
      "stateMutability": "nonpayable",
      "type": "function"
    },
    {
      "inputs": [
        {
          "internalType": "address",
          "name": "newVerifier",
          "type": "address"
        }
      ],
      "name": "updateVerifier",
      "outputs": [],
      "stateMutability": "nonpayable",
      "type": "function"
    },
    {
      "inputs": [],
      "name": "verifiedMaxPayment",
      "outputs": [
        {
          "internalType": "uint256",
          "name": "",
          "type": "uint256"
        }
      ],
      "stateMutability": "view",
      "type": "function"
    },
    {
      "stateMutability": "payable",
      "type": "receive"
    }
  ],
  "bytecode": "0x61016060405265048c2739500060065566b1a2bc2ec500006007556703782dace9d900006008553480156200003357600080fd5b5060405162001f5338038062001f538339810160408190526200005691620002a6565b604080518082018252600d81526c105c9d1a5cdd14185e5b595b9d609a1b60208083019190915282518084019093526001808452603160f81b9184019190915260005590826001600160a01b038116620000cb57604051631e4fbdf760e01b8152600060048201526024015b60405180910390fd5b620000d681620001d8565b50620000e48260026200022a565b61012052620000f58160036200022a565b61014052815160208084019190912060e052815190820120610100524660a0526200018360e05161010051604080517f8b73c3c69bb8fe3d512ecc4cf759cc79239f7b179b0ffacaa9a75d522b39400f60208201529081019290925260608201524660808201523060a082015260009060c00160405160208183030381529060405280519060200120905090565b60805250503060c05260048054738ce0f94755eb14f7af130c1aa2cad26dea2a2acd6001600160a01b03199182161790915560058055600b80549091166001600160a01b0392909216919091179055620004be565b600180546001600160a01b038381166001600160a01b0319831681179093556040519116919082907f8be0079c531659141344cd1fd0a4f28419497f9722a3daafe3b4186f6b6457e090600090a35050565b60006020835110156200024a57620002428362000263565b90506200025d565b816200025784826200037d565b5060ff90505b92915050565b600080829050601f8151111562000291578260405163305a27a960e01b8152600401620000c2919062000449565b80516200029e8262000499565b179392505050565b600060208284031215620002b957600080fd5b81516001600160a01b0381168114620002d157600080fd5b9392505050565b634e487b7160e01b600052604160045260246000fd5b600181811c908216806200030357607f821691505b6020821081036200032457634e487b7160e01b600052602260045260246000fd5b50919050565b601f8211156200037857600081815260208120601f850160051c81016020861015620003535750805b601f850160051c820191505b8181101562000374578281556001016200035f565b5050505b505050565b81516001600160401b03811115620003995762000399620002d8565b620003b181620003aa8454620002ee565b846200032a565b602080601f831160018114620003e95760008415620003d05750858301515b600019600386901b1c1916600185901b17855562000374565b600085815260208120601f198616915b828110156200041a57888601518255948401946001909101908401620003f9565b5085821015620004395787850151600019600388901b60f8161c191681555b5050505050600190811b01905550565b600060208083528351808285015260005b8181101562000478578581018301518582016040015282016200045a565b506000604082860101526040601f19601f8301168501019250505092915050565b80516020808301519190811015620003245760001960209190910360031b1b16919050565b60805160a05160c05160e051610100516101205161014051611a3a620005196000396000611116015260006110e401526000611348015260006113200152600061127b015260006112a5015260006112cf0152611a3a6000f3fe6080604052600436106101395760003560e01c8063811ab42a116100ab578063b1c1008c1161006f578063b1c1008c1461037a578063bc979e0c14610395578063eb566e91146103ab578063f2fde38b146103c5578063f8231848146103e5578063fb14a834146103f857600080fd5b8063811ab42a146102bc57806382948fe1146102f457806384b0196e146103145780638da5cb5b1461033c57806397fc007c1461035a57600080fd5b80635abd7cce116100fd5780635abd7cce146101db578063657affbf146101f15780636cad3fb014610231578063715018a614610251578063790e8739146102665780637ecebe001461028657600080fd5b80633b7810f2146101455780634e75baaf1461016e578063511e2fbf1461018457806353a78064146101a6578063558e44d3146101c657600080fd5b3661014057005b600080fd5b34801561015157600080fd5b5061015b60055481565b6040519081526020015b60405180910390f35b34801561017a57600080fd5b5061015b60085481565b34801561019057600080fd5b506101a461019f3660046115ee565b610418565b005b3480156101b257600080fd5b506101a46101c1366004611689565b6105ec565b3480156101d257600080fd5b5061015b601481565b3480156101e757600080fd5b5061015b60065481565b3480156101fd57600080fd5b5061022161020c366004611689565b60096020526000908152604090205460ff1681565b6040519015158152602001610165565b34801561023d57600080fd5b506101a461024c3660046116ab565b61069d565b34801561025d57600080fd5b506101a4610732565b34801561027257600080fd5b506101a4610281366004611689565b610746565b34801561029257600080fd5b5061015b6102a1366004611689565b6001600160a01b03166000908152600a602052604090205490565b3480156102c857600080fd5b506004546102dc906001600160a01b031681565b6040516001600160a01b039091168152602001610165565b34801561030057600080fd5b506101a461030f3660046116c4565b61083a565b34801561032057600080fd5b506103296109b2565b6040516101659796959493929190611736565b34801561034857600080fd5b506001546001600160a01b03166102dc565b34801561036657600080fd5b506101a4610375366004611689565b6109f8565b34801561038657600080fd5b5061015b66b1a2bc2ec5000081565b3480156103a157600080fd5b5061015b60075481565b3480156103b757600080fd5b5061015b6516bcc41e900081565b3480156103d157600080fd5b506101a46103e0366004611689565b610aa8565b6101a46103f33660046117e2565b610ae6565b34801561040457600080fd5b506101a46104133660046118ad565b610f73565b61042061105e565b60648211156104685760405162461bcd60e51b815260206004820152600f60248201526e426174636820746f6f206c6172676560881b60448201526064015b60405180910390fd5b60005b828110156105e6576000848483818110610487576104876118e0565b905060200201602081019061049c9190611689565b6001600160a01b0316036104c25760405162461bcd60e51b815260040161045f906118f6565b811515600960008686858181106104db576104db6118e0565b90506020020160208101906104f09190611689565b6001600160a01b0316815260208101919091526040016000205460ff161515146105d457816009600086868581811061052b5761052b6118e0565b90506020020160208101906105409190611689565b6001600160a01b031681526020810191909152604001600020805460ff191691151591909117905583838281811061057a5761057a6118e0565b905060200201602081019061058f9190611689565b6001600160a01b03167f0e04ae0d5e07c196abfdddf316ed5a149db87e19d926fcc1bdbb97eb3e7e4996836040516105cb911515815260200190565b60405180910390a25b806105de8161193c565b91505061046b565b50505050565b6105f461105e565b6001600160a01b0381166106415760405162461bcd60e51b8152602060048201526014602482015273496e76616c69642075736572206164647265737360601b604482015260640161045f565b6001600160a01b0381166000818152600a6020908152604091829020805460001990915591518281529192917f1800cd2301fbc20790ed94f3d55a28ef2306a9c31cd3c72b5b71b6e4cf5c624191015b60405180910390a25050565b6106a561105e565b60148111156106f65760405162461bcd60e51b815260206004820152601b60248201527f4665652065786365656473206d6178696d756d20616c6c6f7765640000000000604482015260640161045f565b60058190556040518181527f8c4d35e54a3f2ef1134138fd8ea3daee6a3c89e10d2665996babdf70261e2c76906020015b60405180910390a150565b61073a61105e565b610744600061108b565b565b61074e61105e565b6001600160a01b0381166107965760405162461bcd60e51b815260206004820152600f60248201526e496e76616c6964206164647265737360881b604482015260640161045f565b6004546001600160a01b03908116908216036107ec5760405162461bcd60e51b815260206004820152601560248201527414d85b59481859191c995cdcc81c1c9bdd9a591959605a1b604482015260640161045f565b600480546001600160a01b0319166001600160a01b0383169081179091556040519081527f53baf540f6ba4584584ccbd80c43cc27031fb628cd53b60d5b07cb026f04447090602001610727565b61084261105e565b6000831161089d5760405162461bcd60e51b815260206004820152602260248201527f47656e6572616c206d696e206d7573742062652067726561746572207468616e604482015261020360f41b606482015260840161045f565b8282116108f85760405162461bcd60e51b8152602060048201526024808201527f47656e6572616c206d6178206d7573742062652067726561746572207468616e6044820152631036b4b760e11b606482015260840161045f565b81811161095d5760405162461bcd60e51b815260206004820152602d60248201527f5665726966696564206d6178206d75737420626520677265617465722074686160448201526c0dc40cecadccae4c2d840dac2f609b1b606482015260840161045f565b60068390556007829055600881905560408051848152602081018490529081018290527fa4d4826a6fbc5911d78e36c33efad85b381295bdb2efb011ac33984434a8e5b99060600160405180910390a1505050565b6000606080600080600060606109c66110dd565b6109ce61110f565b60408051600080825260208201909252600f60f81b9b939a50919850469750309650945092509050565b610a0061105e565b6001600160a01b038116610a565760405162461bcd60e51b815260206004820152601860248201527f496e76616c696420766572696669657220616464726573730000000000000000604482015260640161045f565b600b80546001600160a01b038381166001600160a01b0319831681179093556040519116919082907f0243549a92b2412f7a3caf7a2e56d65b8821b91345363faa5f57195384065fcc90600090a35050565b610ab061105e565b6001600160a01b038116610ada57604051631e4fbdf760e01b81526000600482015260240161045f565b610ae38161108b565b50565b610aee61113c565b336000908152600c6020526040902054610b0a90603c90611955565b421015610b4d5760405162461bcd60e51b8152602060048201526011602482015270546f6f206d616e7920726571756573747360781b604482015260640161045f565b81421115610b915760405162461bcd60e51b815260206004820152601160248201527014da59db985d1d5c9948195e1c1a5c9959607a1b604482015260640161045f565b600654341015610be35760405162461bcd60e51b815260206004820152601c60248201527f5061796d656e7420616d6f756e742062656c6f77206d696e696d756d00000000604482015260640161045f565b6001600160a01b038316610c095760405162461bcd60e51b815260040161045f906118f6565b6004546001600160a01b0390811690841603610c715760405162461bcd60e51b815260206004820152602160248201527f4172746973742063616e6e6f74206265204372616674696178206164647265736044820152607360f81b606482015260840161045f565b336000908152600c60209081526040808320429055600a909152812080547fba5f9b5e8fd41dce0e09bc45e89026d6d1648da87378147343d6033f976b4559918691349185610cbf8361193c565b909155506040805160208101959095526001600160a01b03909316928401929092526060830152608082015260a081018490524660c082015260e0016040516020818303038152906040528051906020012090506000610d1e82611166565b90506000610d2c8285611199565b600b549091506001600160a01b03808316911614610d805760405162461bcd60e51b8152602060048201526011602482015270496e76616c6964207369676e617475726560781b604482015260640161045f565b6000606460055434610d929190611968565b610d9c919061197f565b90506000610daa82346119a1565b6001600160a01b03891660008181526009602090815260409182902054825185815291820187905260ff16151581830152905192935090917fdd061644a2478fe067a60a32ca1bce725bc0c45ef99d529be0556b3f22dfb2549181900360600190a26000886001600160a01b03168260405160006040518083038185875af1925050503d8060008114610e59576040519150601f19603f3d011682016040523d82523d6000602084013e610e5e565b606091505b5050905080610eaf5760405162461bcd60e51b815260206004820181905260248201527f4661696c656420746f2073656e64207061796d656e7420746f20617274697374604482015260640161045f565b6004546040516000916001600160a01b03169085908381818185875af1925050503d8060008114610efc576040519150601f19603f3d011682016040523d82523d6000602084013e610f01565b606091505b5050905080610f5d5760405162461bcd60e51b815260206004820152602260248201527f4661696c656420746f2073656e64207061796d656e7420746f204372616674696044820152610c2f60f31b606482015260840161045f565b50505050505050610f6e6001600055565b505050565b610f7b61105e565b6001600160a01b038216610fa15760405162461bcd60e51b815260040161045f906118f6565b6001600160a01b03821660009081526009602052604090205481151560ff9091161515036110065760405162461bcd60e51b815260206004820152601260248201527114dd185d1d5cc8185b1c9958591e481cd95d60721b604482015260640161045f565b6001600160a01b038216600081815260096020908152604091829020805460ff191685151590811790915591519182527f0e04ae0d5e07c196abfdddf316ed5a149db87e19d926fcc1bdbb97eb3e7e49969101610691565b6001546001600160a01b031633146107445760405163118cdaa760e01b815233600482015260240161045f565b600180546001600160a01b038381166001600160a01b0319831681179093556040519116919082907f8be0079c531659141344cd1fd0a4f28419497f9722a3daafe3b4186f6b6457e090600090a35050565b606061110a7f000000000000000000000000000000000000000000000000000000000000000060026111c3565b905090565b606061110a7f000000000000000000000000000000000000000000000000000000000000000060036111c3565b60026000540361115f57604051633ee5aeb560e01b815260040160405180910390fd5b6002600055565b600061119361117361126e565b8360405161190160f01b8152600281019290925260228201526042902090565b92915050565b6000806000806111a98686611399565b9250925092506111b982826113e6565b5090949350505050565b606060ff83146111dd576111d6836114a3565b9050611193565b8180546111e9906119b4565b80601f0160208091040260200160405190810160405280929190818152602001828054611215906119b4565b80156112625780601f1061123757610100808354040283529160200191611262565b820191906000526020600020905b81548152906001019060200180831161124557829003601f168201915b50505050509050611193565b6000306001600160a01b037f0000000000000000000000000000000000000000000000000000000000000000161480156112c757507f000000000000000000000000000000000000000000000000000000000000000046145b156112f157507f000000000000000000000000000000000000000000000000000000000000000090565b61110a604080517f8b73c3c69bb8fe3d512ecc4cf759cc79239f7b179b0ffacaa9a75d522b39400f60208201527f0000000000000000000000000000000000000000000000000000000000000000918101919091527f000000000000000000000000000000000000000000000000000000000000000060608201524660808201523060a082015260009060c00160405160208183030381529060405280519060200120905090565b600080600083516041036113d35760208401516040850151606086015160001a6113c5888285856114e2565b9550955095505050506113df565b50508151600091506002905b9250925092565b60008260038111156113fa576113fa6119ee565b03611403575050565b6001826003811115611417576114176119ee565b036114355760405163f645eedf60e01b815260040160405180910390fd5b6002826003811115611449576114496119ee565b0361146a5760405163fce698f760e01b81526004810182905260240161045f565b600382600381111561147e5761147e6119ee565b0361149f576040516335e2f38360e21b81526004810182905260240161045f565b5050565b606060006114b0836115b1565b604080516020808252818301909252919250600091906020820181803683375050509182525060208101929092525090565b600080807f7fffffffffffffffffffffffffffffff5d576e7357a4501ddfe92f46681b20a084111561151d57506000915060039050826115a7565b604080516000808252602082018084528a905260ff891692820192909252606081018790526080810186905260019060a0016020604051602081039080840390855afa158015611571573d6000803e3d6000fd5b5050604051601f1901519150506001600160a01b03811661159d575060009250600191508290506115a7565b9250600091508190505b9450945094915050565b600060ff8216601f81111561119357604051632cd44ac360e21b815260040160405180910390fd5b803580151581146115e957600080fd5b919050565b60008060006040848603121561160357600080fd5b833567ffffffffffffffff8082111561161b57600080fd5b818601915086601f83011261162f57600080fd5b81358181111561163e57600080fd5b8760208260051b850101111561165357600080fd5b60209283019550935061166991860190506115d9565b90509250925092565b80356001600160a01b03811681146115e957600080fd5b60006020828403121561169b57600080fd5b6116a482611672565b9392505050565b6000602082840312156116bd57600080fd5b5035919050565b6000806000606084860312156116d957600080fd5b505081359360208301359350604090920135919050565b6000815180845260005b81811015611716576020818501810151868301820152016116fa565b506000602082860101526020601f19601f83011685010191505092915050565b60ff60f81b881681526000602060e08184015261175660e084018a6116f0565b8381036040850152611768818a6116f0565b606085018990526001600160a01b038816608086015260a0850187905284810360c0860152855180825283870192509083019060005b818110156117ba5783518352928401929184019160010161179e565b50909c9b505050505050505050505050565b634e487b7160e01b600052604160045260246000fd5b6000806000606084860312156117f757600080fd5b61180084611672565b925060208401359150604084013567ffffffffffffffff8082111561182457600080fd5b818601915086601f83011261183857600080fd5b81358181111561184a5761184a6117cc565b604051601f8201601f19908116603f01168101908382118183101715611872576118726117cc565b8160405282815289602084870101111561188b57600080fd5b8260208601602083013760006020848301015280955050505050509250925092565b600080604083850312156118c057600080fd5b6118c983611672565b91506118d7602084016115d9565b90509250929050565b634e487b7160e01b600052603260045260246000fd5b602080825260169082015275496e76616c696420617274697374206164647265737360501b604082015260600190565b634e487b7160e01b600052601160045260246000fd5b60006001820161194e5761194e611926565b5060010190565b8082018082111561119357611193611926565b808202811582820484141761119357611193611926565b60008261199c57634e487b7160e01b600052601260045260246000fd5b500490565b8181038181111561119357611193611926565b600181811c908216806119c857607f821691505b6020821081036119e857634e487b7160e01b600052602260045260246000fd5b50919050565b634e487b7160e01b600052602160045260246000fdfea2646970667358221220c9eb465e47c32f9f324ae89a432847b79fa6c094e28efdfa02782fef795fb2aa64736f6c63430008140033",
  "linkReferences": {},
  "deployedLinkReferences": {}
}