{
  "_format": "hh-sol-artifact-1",
  "contractName": "ArtistPayment",
  "sourceName": "contracts/ArtistPayment.sol",
  "abi": [
    {
      "inputs": [
        {
          "internalType": "address",
          "name": "initialOwner",
          "type": "address"
        }
      ],
      "stateMutability": "nonpayable",
      "type": "constructor"
    },
    {
      "inputs": [],
      "name": "ECDSAInvalidSignature",
      "type": "error"
    },
    {
      "inputs": [
        {
          "internalType": "uint256",
          "name": "length",
          "type": "uint256"
        }
      ],
      "name": "ECDSAInvalidSignatureLength",
      "type": "error"
    },
    {
      "inputs": [
        {
          "internalType": "bytes32",
          "name": "s",
          "type": "bytes32"
        }
      ],
      "name": "ECDSAInvalidSignatureS",
      "type": "error"
    },
    {
      "inputs": [],
      "name": "InvalidShortString",
      "type": "error"
    },
    {
      "inputs": [
        {
          "internalType": "address",
          "name": "owner",
          "type": "address"
        }
      ],
      "name": "OwnableInvalidOwner",
      "type": "error"
    },
    {
      "inputs": [
        {
          "internalType": "address",
          "name": "account",
          "type": "address"
        }
      ],
      "name": "OwnableUnauthorizedAccount",
      "type": "error"
    },
    {
      "inputs": [],
      "name": "ReentrancyGuardReentrantCall",
      "type": "error"
    },
    {
      "inputs": [
        {
          "internalType": "string",
          "name": "str",
          "type": "string"
        }
      ],
      "name": "StringTooLong",
      "type": "error"
    },
    {
      "anonymous": false,
      "inputs": [
        {
          "indexed": true,
          "internalType": "address",
          "name": "artist",
          "type": "address"
        },
        {
          "indexed": false,
          "internalType": "bool",
          "name": "isVerified",
          "type": "bool"
        }
      ],
      "name": "ArtistVerificationStatusUpdated",
      "type": "event"
    },
    {
      "anonymous": false,
      "inputs": [
        {
          "indexed": false,
          "internalType": "address",
          "name": "newAddress",
          "type": "address"
        }
      ],
      "name": "CraftiaxAddressUpdated",
      "type": "event"
    },
    {
      "anonymous": false,
      "inputs": [],
      "name": "EIP712DomainChanged",
      "type": "event"
    },
    {
      "anonymous": false,
      "inputs": [
        {
          "indexed": false,
          "internalType": "uint256",
          "name": "newFee",
          "type": "uint256"
        }
      ],
      "name": "FeeUpdated",
      "type": "event"
    },
    {
      "anonymous": false,
      "inputs": [
        {
          "indexed": true,
          "internalType": "address",
          "name": "user",
          "type": "address"
        },
        {
          "indexed": false,
          "internalType": "uint256",
          "name": "currentNonce",
          "type": "uint256"
        }
      ],
      "name": "NonceInvalidated",
      "type": "event"
    },
    {
      "anonymous": false,
      "inputs": [
        {
          "indexed": true,
          "internalType": "address",
          "name": "previousOwner",
          "type": "address"
        },
        {
          "indexed": true,
          "internalType": "address",
          "name": "newOwner",
          "type": "address"
        }
      ],
      "name": "OwnershipTransferred",
      "type": "event"
    },
    {
      "anonymous": false,
      "inputs": [
        {
          "indexed": false,
          "internalType": "uint256",
          "name": "generalMin",
          "type": "uint256"
        },
        {
          "indexed": false,
          "internalType": "uint256",
          "name": "generalMax",
          "type": "uint256"
        },
        {
          "indexed": false,
          "internalType": "uint256",
          "name": "verifiedMax",
          "type": "uint256"
        }
      ],
      "name": "PaymentLimitsUpdated",
      "type": "event"
    },
    {
      "anonymous": false,
      "inputs": [
        {
          "indexed": true,
          "internalType": "address",
          "name": "artist",
          "type": "address"
        },
        {
          "indexed": false,
          "internalType": "uint256",
          "name": "artistAmount",
          "type": "uint256"
        },
        {
          "indexed": false,
          "internalType": "uint256",
          "name": "craftiaxFee",
          "type": "uint256"
        },
        {
          "indexed": false,
          "internalType": "bool",
          "name": "isVerified",
          "type": "bool"
        }
      ],
      "name": "PaymentProcessed",
      "type": "event"
    },
    {
      "anonymous": false,
      "inputs": [
        {
          "indexed": true,
          "internalType": "address",
          "name": "oldVerifier",
          "type": "address"
        },
        {
          "indexed": true,
          "internalType": "address",
          "name": "newVerifier",
          "type": "address"
        }
      ],
      "name": "VerifierUpdated",
      "type": "event"
    },
    {
      "inputs": [],
      "name": "MAX_FEE_PERCENTAGE",
      "outputs": [
        {
          "internalType": "uint256",
          "name": "",
          "type": "uint256"
        }
      ],
      "stateMutability": "view",
      "type": "function"
    },
    {
      "inputs": [],
      "name": "MAX_PAYMENT",
      "outputs": [
        {
          "internalType": "uint256",
          "name": "",
          "type": "uint256"
        }
      ],
      "stateMutability": "view",
      "type": "function"
    },
    {
      "inputs": [],
      "name": "MIN_PAYMENT",
      "outputs": [
        {
          "internalType": "uint256",
          "name": "",
          "type": "uint256"
        }
      ],
      "stateMutability": "view",
      "type": "function"
    },
    {
      "inputs": [],
      "name": "craftiaxAddress",
      "outputs": [
        {
          "internalType": "address",
          "name": "",
          "type": "address"
        }
      ],
      "stateMutability": "view",
      "type": "function"
    },
    {
      "inputs": [],
      "name": "craftiaxFeePercentage",
      "outputs": [
        {
          "internalType": "uint256",
          "name": "",
          "type": "uint256"
        }
      ],
      "stateMutability": "view",
      "type": "function"
    },
    {
      "inputs": [],
      "name": "eip712Domain",
      "outputs": [
        {
          "internalType": "bytes1",
          "name": "fields",
          "type": "bytes1"
        },
        {
          "internalType": "string",
          "name": "name",
          "type": "string"
        },
        {
          "internalType": "string",
          "name": "version",
          "type": "string"
        },
        {
          "internalType": "uint256",
          "name": "chainId",
          "type": "uint256"
        },
        {
          "internalType": "address",
          "name": "verifyingContract",
          "type": "address"
        },
        {
          "internalType": "bytes32",
          "name": "salt",
          "type": "bytes32"
        },
        {
          "internalType": "uint256[]",
          "name": "extensions",
          "type": "uint256[]"
        }
      ],
      "stateMutability": "view",
      "type": "function"
    },
    {
      "inputs": [],
      "name": "generalMaxPayment",
      "outputs": [
        {
          "internalType": "uint256",
          "name": "",
          "type": "uint256"
        }
      ],
      "stateMutability": "view",
      "type": "function"
    },
    {
      "inputs": [],
      "name": "generalMinPayment",
      "outputs": [
        {
          "internalType": "uint256",
          "name": "",
          "type": "uint256"
        }
      ],
      "stateMutability": "view",
      "type": "function"
    },
    {
      "inputs": [
        {
          "internalType": "address",
          "name": "user",
          "type": "address"
        }
      ],
      "name": "invalidateNonce",
      "outputs": [],
      "stateMutability": "nonpayable",
      "type": "function"
    },
    {
      "inputs": [
        {
          "internalType": "address",
          "name": "",
          "type": "address"
        }
      ],
      "name": "isVerifiedArtist",
      "outputs": [
        {
          "internalType": "bool",
          "name": "",
          "type": "bool"
        }
      ],
      "stateMutability": "view",
      "type": "function"
    },
    {
      "inputs": [
        {
          "internalType": "address",
          "name": "owner",
          "type": "address"
        }
      ],
      "name": "nonces",
      "outputs": [
        {
          "internalType": "uint256",
          "name": "",
          "type": "uint256"
        }
      ],
      "stateMutability": "view",
      "type": "function"
    },
    {
      "inputs": [],
      "name": "owner",
      "outputs": [
        {
          "internalType": "address",
          "name": "",
          "type": "address"
        }
      ],
      "stateMutability": "view",
      "type": "function"
    },
    {
      "inputs": [
        {
          "internalType": "address",
          "name": "artistAddress",
          "type": "address"
        },
        {
          "internalType": "uint256",
          "name": "deadline",
          "type": "uint256"
        },
        {
          "internalType": "bytes",
          "name": "signature",
          "type": "bytes"
        }
      ],
      "name": "payArtist",
      "outputs": [],
      "stateMutability": "payable",
      "type": "function"
    },
    {
      "inputs": [],
      "name": "renounceOwnership",
      "outputs": [],
      "stateMutability": "nonpayable",
      "type": "function"
    },
    {
      "inputs": [
        {
          "internalType": "address",
          "name": "artistAddress",
          "type": "address"
        },
        {
          "internalType": "bool",
          "name": "status",
          "type": "bool"
        }
      ],
      "name": "setVerificationStatus",
      "outputs": [],
      "stateMutability": "nonpayable",
      "type": "function"
    },
    {
      "inputs": [
        {
          "internalType": "address[]",
          "name": "artists",
          "type": "address[]"
        },
        {
          "internalType": "bool",
          "name": "status",
          "type": "bool"
        }
      ],
      "name": "setVerificationStatusBatch",
      "outputs": [],
      "stateMutability": "nonpayable",
      "type": "function"
    },
    {
      "inputs": [
        {
          "internalType": "address",
          "name": "newOwner",
          "type": "address"
        }
      ],
      "name": "transferOwnership",
      "outputs": [],
      "stateMutability": "nonpayable",
      "type": "function"
    },
    {
      "inputs": [
        {
          "internalType": "address",
          "name": "newAddress",
          "type": "address"
        }
      ],
      "name": "updateCraftiaxAddress",
      "outputs": [],
      "stateMutability": "nonpayable",
      "type": "function"
    },
    {
      "inputs": [
        {
          "internalType": "uint256",
          "name": "newFee",
          "type": "uint256"
        }
      ],
      "name": "updateFeePercentage",
      "outputs": [],
      "stateMutability": "nonpayable",
      "type": "function"
    },
    {
      "inputs": [
        {
          "internalType": "uint256",
          "name": "newGeneralMin",
          "type": "uint256"
        },
        {
          "internalType": "uint256",
          "name": "newGeneralMax",
          "type": "uint256"
        },
        {
          "internalType": "uint256",
          "name": "newVerifiedMax",
          "type": "uint256"
        }
      ],
      "name": "updatePaymentLimits",
      "outputs": [],
      "stateMutability": "nonpayable",
      "type": "function"
    },
    {
      "inputs": [
        {
          "internalType": "address",
          "name": "newVerifier",
          "type": "address"
        }
      ],
      "name": "updateVerifier",
      "outputs": [],
      "stateMutability": "nonpayable",
      "type": "function"
    },
    {
      "inputs": [],
      "name": "verifiedMaxPayment",
      "outputs": [
        {
          "internalType": "uint256",
          "name": "",
          "type": "uint256"
        }
      ],
      "stateMutability": "view",
      "type": "function"
    },
    {
      "stateMutability": "payable",
      "type": "receive"
    }
  ],
  "bytecode": "0x61016060405265048c2739500060065566b1a2bc2ec500006007556703782dace9d900006008553480156200003357600080fd5b5060405162003d6b38038062003d6b833981810160405281019062000059919062000505565b6040518060400160405280600d81526020017f4172746973745061796d656e74000000000000000000000000000000000000008152506040518060400160405280600181526020017f3100000000000000000000000000000000000000000000000000000000000000815250826001600081905550600073ffffffffffffffffffffffffffffffffffffffff168173ffffffffffffffffffffffffffffffffffffffff1603620001435760006040517f1e4fbdf70000000000000000000000000000000000000000000000000000000081526004016200013a919062000548565b60405180910390fd5b6200015481620002a960201b60201c565b506200016b6002836200036f60201b90919060201c565b6101208181525050620001896003826200036f60201b90919060201c565b6101408181525050818051906020012060e08181525050808051906020012061010081815250504660a08181525050620001c8620003c760201b60201c565b608081815250503073ffffffffffffffffffffffffffffffffffffffff1660c08173ffffffffffffffffffffffffffffffffffffffff16815250505050738ce0f94755eb14f7af130c1aa2cad26dea2a2acd600460006101000a81548173ffffffffffffffffffffffffffffffffffffffff021916908373ffffffffffffffffffffffffffffffffffffffff1602179055506005808190555080600b60006101000a81548173ffffffffffffffffffffffffffffffffffffffff021916908373ffffffffffffffffffffffffffffffffffffffff1602179055505062000aa4565b6000600160009054906101000a900473ffffffffffffffffffffffffffffffffffffffff16905081600160006101000a81548173ffffffffffffffffffffffffffffffffffffffff021916908373ffffffffffffffffffffffffffffffffffffffff1602179055508173ffffffffffffffffffffffffffffffffffffffff168173ffffffffffffffffffffffffffffffffffffffff167f8be0079c531659141344cd1fd0a4f28419497f9722a3daafe3b4186f6b6457e060405160405180910390a35050565b600060208351101562000395576200038d836200042460201b60201c565b9050620003c1565b82620003a7836200049160201b60201c565b6000019081620003b89190620007df565b5060ff60001b90505b92915050565b60007f8b73c3c69bb8fe3d512ecc4cf759cc79239f7b179b0ffacaa9a75d522b39400f60e05161010051463060405160200162000409959493929190620008f2565b60405160208183030381529060405280519060200120905090565b600080829050601f815111156200047457826040517f305a27a90000000000000000000000000000000000000000000000000000000081526004016200046b9190620009de565b60405180910390fd5b805181620004829062000a34565b60001c1760001b915050919050565b6000819050919050565b600080fd5b600073ffffffffffffffffffffffffffffffffffffffff82169050919050565b6000620004cd82620004a0565b9050919050565b620004df81620004c0565b8114620004eb57600080fd5b50565b600081519050620004ff81620004d4565b92915050565b6000602082840312156200051e576200051d6200049b565b5b60006200052e84828501620004ee565b91505092915050565b6200054281620004c0565b82525050565b60006020820190506200055f600083018462000537565b92915050565b600081519050919050565b7f4e487b7100000000000000000000000000000000000000000000000000000000600052604160045260246000fd5b7f4e487b7100000000000000000000000000000000000000000000000000000000600052602260045260246000fd5b60006002820490506001821680620005e757607f821691505b602082108103620005fd57620005fc6200059f565b5b50919050565b60008190508160005260206000209050919050565b60006020601f8301049050919050565b600082821b905092915050565b600060088302620006677fffffffffffffffffffffffffffffffffffffffffffffffffffffffffffffffff8262000628565b62000673868362000628565b95508019841693508086168417925050509392505050565b6000819050919050565b6000819050919050565b6000620006c0620006ba620006b4846200068b565b62000695565b6200068b565b9050919050565b6000819050919050565b620006dc836200069f565b620006f4620006eb82620006c7565b84845462000635565b825550505050565b600090565b6200070b620006fc565b62000718818484620006d1565b505050565b5b8181101562000740576200073460008262000701565b6001810190506200071e565b5050565b601f8211156200078f57620007598162000603565b620007648462000618565b8101602085101562000774578190505b6200078c620007838562000618565b8301826200071d565b50505b505050565b600082821c905092915050565b6000620007b46000198460080262000794565b1980831691505092915050565b6000620007cf8383620007a1565b9150826002028217905092915050565b620007ea8262000565565b67ffffffffffffffff81111562000806576200080562000570565b5b620008128254620005ce565b6200081f82828562000744565b600060209050601f83116001811462000857576000841562000842578287015190505b6200084e8582620007c1565b865550620008be565b601f198416620008678662000603565b60005b8281101562000891578489015182556001820191506020850194506020810190506200086a565b86831015620008b15784890151620008ad601f891682620007a1565b8355505b6001600288020188555050505b505050505050565b6000819050919050565b620008db81620008c6565b82525050565b620008ec816200068b565b82525050565b600060a082019050620009096000830188620008d0565b620009186020830187620008d0565b620009276040830186620008d0565b620009366060830185620008e1565b62000945608083018462000537565b9695505050505050565b600082825260208201905092915050565b60005b838110156200098057808201518184015260208101905062000963565b60008484015250505050565b6000601f19601f8301169050919050565b6000620009aa8262000565565b620009b681856200094f565b9350620009c881856020860162000960565b620009d3816200098c565b840191505092915050565b60006020820190508181036000830152620009fa81846200099d565b905092915050565b600081519050919050565b6000819050602082019050919050565b600062000a2b8251620008c6565b80915050919050565b600062000a418262000a02565b8262000a4d8462000a0d565b905062000a5a8162000a1d565b9250602082101562000a9d5762000a987fffffffffffffffffffffffffffffffffffffffffffffffffffffffffffffffff8360200360080262000628565b831692505b5050919050565b60805160a05160c05160e05161010051610120516101405161326c62000aff60003960006118960152600061185b01526000611d8801526000611d6701526000611a1a01526000611a7001526000611a99015261326c6000f3fe6080604052600436106101395760003560e01c8063811ab42a116100ab578063b1c1008c1161006f578063b1c1008c146103ff578063bc979e0c1461042a578063eb566e9114610455578063f2fde38b14610480578063f8231848146104a9578063fb14a834146104c557610140565b8063811ab42a1461032657806382948fe11461035157806384b0196e1461037a5780638da5cb5b146103ab57806397fc007c146103d657610140565b80635abd7cce116100fd5780635abd7cce14610218578063657affbf146102435780636cad3fb014610280578063715018a6146102a9578063790e8739146102c05780637ecebe00146102e957610140565b80633b7810f2146101455780634e75baaf14610170578063511e2fbf1461019b57806353a78064146101c4578063558e44d3146101ed57610140565b3661014057005b600080fd5b34801561015157600080fd5b5061015a6104ee565b6040516101679190611f35565b60405180910390f35b34801561017c57600080fd5b506101856104f4565b6040516101929190611f35565b60405180910390f35b3480156101a757600080fd5b506101c260048036038101906101bd9190612001565b6104fa565b005b3480156101d057600080fd5b506101eb60048036038101906101e691906120bf565b610731565b005b3480156101f957600080fd5b506102026108a2565b60405161020f9190611f35565b60405180910390f35b34801561022457600080fd5b5061022d6108a7565b60405161023a9190611f35565b60405180910390f35b34801561024f57600080fd5b5061026a600480360381019061026591906120bf565b6108ad565b60405161027791906120fb565b60405180910390f35b34801561028c57600080fd5b506102a760048036038101906102a29190612142565b6108cd565b005b3480156102b557600080fd5b506102be61095a565b005b3480156102cc57600080fd5b506102e760048036038101906102e291906120bf565b61096e565b005b3480156102f557600080fd5b50610310600480360381019061030b91906120bf565b610af0565b60405161031d9190611f35565b60405180910390f35b34801561033257600080fd5b5061033b610b39565b604051610348919061217e565b60405180910390f35b34801561035d57600080fd5b5061037860048036038101906103739190612199565b610b5f565b005b34801561038657600080fd5b5061038f610c83565b6040516103a2979695949392919061238e565b60405180910390f35b3480156103b757600080fd5b506103c0610d2d565b6040516103cd919061217e565b60405180910390f35b3480156103e257600080fd5b506103fd60048036038101906103f891906120bf565b610d57565b005b34801561040b57600080fd5b50610414610e94565b6040516104219190611f35565b60405180910390f35b34801561043657600080fd5b5061043f610e9f565b60405161044c9190611f35565b60405180910390f35b34801561046157600080fd5b5061046a610ea5565b6040516104779190611f35565b60405180910390f35b34801561048c57600080fd5b506104a760048036038101906104a291906120bf565b610eaf565b005b6104c360048036038101906104be9190612542565b610f35565b005b3480156104d157600080fd5b506104ec60048036038101906104e791906125b1565b611553565b005b60055481565b60085481565b610502611705565b60005b8383905081101561072b57600073ffffffffffffffffffffffffffffffffffffffff1684848381811061053b5761053a6125f1565b5b905060200201602081019061055091906120bf565b73ffffffffffffffffffffffffffffffffffffffff16036105a6576040517f08c379a000000000000000000000000000000000000000000000000000000000815260040161059d9061266c565b60405180910390fd5b811515600960008686858181106105c0576105bf6125f1565b5b90506020020160208101906105d591906120bf565b73ffffffffffffffffffffffffffffffffffffffff1673ffffffffffffffffffffffffffffffffffffffff16815260200190815260200160002060009054906101000a900460ff1615151461071857816009600086868581811061063c5761063b6125f1565b5b905060200201602081019061065191906120bf565b73ffffffffffffffffffffffffffffffffffffffff1673ffffffffffffffffffffffffffffffffffffffff16815260200190815260200160002060006101000a81548160ff0219169083151502179055508383828181106106b5576106b46125f1565b5b90506020020160208101906106ca91906120bf565b73ffffffffffffffffffffffffffffffffffffffff167f0e04ae0d5e07c196abfdddf316ed5a149db87e19d926fcc1bdbb97eb3e7e49968360405161070f91906120fb565b60405180910390a25b8080610723906126bb565b915050610505565b50505050565b610739611705565b600073ffffffffffffffffffffffffffffffffffffffff168173ffffffffffffffffffffffffffffffffffffffff16036107a8576040517f08c379a000000000000000000000000000000000000000000000000000000000815260040161079f9061274f565b60405180910390fd5b6000600a60008373ffffffffffffffffffffffffffffffffffffffff1673ffffffffffffffffffffffffffffffffffffffff1681526020019081526020016000205490507fffffffffffffffffffffffffffffffffffffffffffffffffffffffffffffffff600a60008473ffffffffffffffffffffffffffffffffffffffff1673ffffffffffffffffffffffffffffffffffffffff168152602001908152602001600020819055508173ffffffffffffffffffffffffffffffffffffffff167f1800cd2301fbc20790ed94f3d55a28ef2306a9c31cd3c72b5b71b6e4cf5c6241826040516108969190611f35565b60405180910390a25050565b601481565b60065481565b60096020528060005260406000206000915054906101000a900460ff1681565b6108d5611705565b6014811115610919576040517f08c379a0000000000000000000000000000000000000000000000000000000008152600401610910906127bb565b60405180910390fd5b806005819055507f8c4d35e54a3f2ef1134138fd8ea3daee6a3c89e10d2665996babdf70261e2c768160405161094f9190611f35565b60405180910390a150565b610962611705565b61096c600061178c565b565b610976611705565b600073ffffffffffffffffffffffffffffffffffffffff168173ffffffffffffffffffffffffffffffffffffffff16036109e5576040517f08c379a00000000000000000000000000000000000000000000000000000000081526004016109dc90612827565b60405180910390fd5b600460009054906101000a900473ffffffffffffffffffffffffffffffffffffffff1673ffffffffffffffffffffffffffffffffffffffff168173ffffffffffffffffffffffffffffffffffffffff1603610a75576040517f08c379a0000000000000000000000000000000000000000000000000000000008152600401610a6c90612893565b60405180910390fd5b80600460006101000a81548173ffffffffffffffffffffffffffffffffffffffff021916908373ffffffffffffffffffffffffffffffffffffffff1602179055507f53baf540f6ba4584584ccbd80c43cc27031fb628cd53b60d5b07cb026f04447081604051610ae5919061217e565b60405180910390a150565b6000600a60008373ffffffffffffffffffffffffffffffffffffffff1673ffffffffffffffffffffffffffffffffffffffff168152602001908152602001600020549050919050565b600460009054906101000a900473ffffffffffffffffffffffffffffffffffffffff1681565b610b67611705565b60008311610baa576040517f08c379a0000000000000000000000000000000000000000000000000000000008152600401610ba190612925565b60405180910390fd5b828211610bec576040517f08c379a0000000000000000000000000000000000000000000000000000000008152600401610be3906129b7565b60405180910390fd5b818111610c2e576040517f08c379a0000000000000000000000000000000000000000000000000000000008152600401610c2590612a49565b60405180910390fd5b8260068190555081600781905550806008819055507fa4d4826a6fbc5911d78e36c33efad85b381295bdb2efb011ac33984434a8e5b9838383604051610c7693929190612a69565b60405180910390a1505050565b600060608060008060006060610c97611852565b610c9f61188d565b46306000801b600067ffffffffffffffff811115610cc057610cbf612417565b5b604051908082528060200260200182016040528015610cee5781602001602082028036833780820191505090505b507f0f00000000000000000000000000000000000000000000000000000000000000959493929190965096509650965096509650965090919293949596565b6000600160009054906101000a900473ffffffffffffffffffffffffffffffffffffffff16905090565b610d5f611705565b600073ffffffffffffffffffffffffffffffffffffffff168173ffffffffffffffffffffffffffffffffffffffff1603610dce576040517f08c379a0000000000000000000000000000000000000000000000000000000008152600401610dc590612aec565b60405180910390fd5b6000600b60009054906101000a900473ffffffffffffffffffffffffffffffffffffffff16905081600b60006101000a81548173ffffffffffffffffffffffffffffffffffffffff021916908373ffffffffffffffffffffffffffffffffffffffff1602179055508173ffffffffffffffffffffffffffffffffffffffff168173ffffffffffffffffffffffffffffffffffffffff167f0243549a92b2412f7a3caf7a2e56d65b8821b91345363faa5f57195384065fcc60405160405180910390a35050565b66b1a2bc2ec5000081565b60075481565b6516bcc41e900081565b610eb7611705565b600073ffffffffffffffffffffffffffffffffffffffff168173ffffffffffffffffffffffffffffffffffffffff1603610f295760006040517f1e4fbdf7000000000000000000000000000000000000000000000000000000008152600401610f20919061217e565b60405180910390fd5b610f328161178c565b50565b610f3d6118c8565b81421115610f80576040517f08c379a0000000000000000000000000000000000000000000000000000000008152600401610f7790612b58565b60405180910390fd5b60007fba5f9b5e8fd41dce0e09bc45e89026d6d1648da87378147343d6033f976b45598434600a60003373ffffffffffffffffffffffffffffffffffffffff1673ffffffffffffffffffffffffffffffffffffffff1681526020019081526020016000206000815480929190610ff5906126bb565b91905055864660405160200161101096959493929190612b78565b60405160208183030381529060405280519060200120905060006110338261190e565b905060006110418285611928565b9050600b60009054906101000a900473ffffffffffffffffffffffffffffffffffffffff1673ffffffffffffffffffffffffffffffffffffffff168173ffffffffffffffffffffffffffffffffffffffff16146110d3576040517f08c379a00000000000000000000000000000000000000000000000000000000081526004016110ca90612c25565b60405180910390fd5b600654341015611118576040517f08c379a000000000000000000000000000000000000000000000000000000000815260040161110f90612c91565b60405180910390fd5b600073ffffffffffffffffffffffffffffffffffffffff168673ffffffffffffffffffffffffffffffffffffffff1603611187576040517f08c379a000000000000000000000000000000000000000000000000000000000815260040161117e9061266c565b60405180910390fd5b600460009054906101000a900473ffffffffffffffffffffffffffffffffffffffff1673ffffffffffffffffffffffffffffffffffffffff168673ffffffffffffffffffffffffffffffffffffffff1603611217576040517f08c379a000000000000000000000000000000000000000000000000000000000815260040161120e90612d23565b60405180910390fd5b600960008773ffffffffffffffffffffffffffffffffffffffff1673ffffffffffffffffffffffffffffffffffffffff16815260200190815260200160002060009054906101000a900460ff16156112b3576008543411156112ae576040517f08c379a00000000000000000000000000000000000000000000000000000000081526004016112a590612d8f565b60405180910390fd5b6112f9565b6007543411156112f8576040517f08c379a00000000000000000000000000000000000000000000000000000000081526004016112ef90612dfb565b60405180910390fd5b5b600060646005543461130b9190612e1b565b6113159190612e8c565b9050600081346113259190612ebd565b905060008873ffffffffffffffffffffffffffffffffffffffff168260405161134d90612f22565b60006040518083038185875af1925050503d806000811461138a576040519150601f19603f3d011682016040523d82523d6000602084013e61138f565b606091505b50509050806113d3576040517f08c379a00000000000000000000000000000000000000000000000000000000081526004016113ca90612f83565b60405180910390fd5b6000600460009054906101000a900473ffffffffffffffffffffffffffffffffffffffff1673ffffffffffffffffffffffffffffffffffffffff168460405161141b90612f22565b60006040518083038185875af1925050503d8060008114611458576040519150601f19603f3d011682016040523d82523d6000602084013e61145d565b606091505b50509050806114a1576040517f08c379a000000000000000000000000000000000000000000000000000000000815260040161149890613015565b60405180910390fd5b8973ffffffffffffffffffffffffffffffffffffffff167fdd061644a2478fe067a60a32ca1bce725bc0c45ef99d529be0556b3f22dfb2548486600960008f73ffffffffffffffffffffffffffffffffffffffff1673ffffffffffffffffffffffffffffffffffffffff16815260200190815260200160002060009054906101000a900460ff1660405161153793929190613035565b60405180910390a25050505050505061154e611954565b505050565b61155b611705565b600073ffffffffffffffffffffffffffffffffffffffff168273ffffffffffffffffffffffffffffffffffffffff16036115ca576040517f08c379a00000000000000000000000000000000000000000000000000000000081526004016115c19061266c565b60405180910390fd5b801515600960008473ffffffffffffffffffffffffffffffffffffffff1673ffffffffffffffffffffffffffffffffffffffff16815260200190815260200160002060009054906101000a900460ff1615150361165c576040517f08c379a0000000000000000000000000000000000000000000000000000000008152600401611653906130b8565b60405180910390fd5b80600960008473ffffffffffffffffffffffffffffffffffffffff1673ffffffffffffffffffffffffffffffffffffffff16815260200190815260200160002060006101000a81548160ff0219169083151502179055508173ffffffffffffffffffffffffffffffffffffffff167f0e04ae0d5e07c196abfdddf316ed5a149db87e19d926fcc1bdbb97eb3e7e4996826040516116f991906120fb565b60405180910390a25050565b61170d61195e565b73ffffffffffffffffffffffffffffffffffffffff1661172b610d2d565b73ffffffffffffffffffffffffffffffffffffffff161461178a5761174e61195e565b6040517f118cdaa7000000000000000000000000000000000000000000000000000000008152600401611781919061217e565b60405180910390fd5b565b6000600160009054906101000a900473ffffffffffffffffffffffffffffffffffffffff16905081600160006101000a81548173ffffffffffffffffffffffffffffffffffffffff021916908373ffffffffffffffffffffffffffffffffffffffff1602179055508173ffffffffffffffffffffffffffffffffffffffff168173ffffffffffffffffffffffffffffffffffffffff167f8be0079c531659141344cd1fd0a4f28419497f9722a3daafe3b4186f6b6457e060405160405180910390a35050565b606061188860027f000000000000000000000000000000000000000000000000000000000000000061196690919063ffffffff16565b905090565b60606118c360037f000000000000000000000000000000000000000000000000000000000000000061196690919063ffffffff16565b905090565b600260005403611904576040517f3ee5aeb500000000000000000000000000000000000000000000000000000000815260040160405180910390fd5b6002600081905550565b600061192161191b611a16565b83611acd565b9050919050565b6000806000806119388686611b0e565b9250925092506119488282611b6a565b82935050505092915050565b6001600081905550565b600033905090565b606060ff60001b83146119835761197c83611cce565b9050611a10565b81805461198f90613107565b80601f01602080910402602001604051908101604052809291908181526020018280546119bb90613107565b8015611a085780601f106119dd57610100808354040283529160200191611a08565b820191906000526020600020905b8154815290600101906020018083116119eb57829003601f168201915b505050505090505b92915050565b60007f000000000000000000000000000000000000000000000000000000000000000073ffffffffffffffffffffffffffffffffffffffff163073ffffffffffffffffffffffffffffffffffffffff16148015611a9257507f000000000000000000000000000000000000000000000000000000000000000046145b15611abf577f00000000000000000000000000000000000000000000000000000000000000009050611aca565b611ac7611d42565b90505b90565b60006040517f190100000000000000000000000000000000000000000000000000000000000081528360028201528260228201526042812091505092915050565b60008060006041845103611b535760008060006020870151925060408701519150606087015160001a9050611b4588828585611dd8565b955095509550505050611b63565b60006002855160001b9250925092505b9250925092565b60006003811115611b7e57611b7d613138565b5b826003811115611b9157611b90613138565b5b0315611cca5760016003811115611bab57611baa613138565b5b826003811115611bbe57611bbd613138565b5b03611bf5576040517ff645eedf00000000000000000000000000000000000000000000000000000000815260040160405180910390fd5b60026003811115611c0957611c08613138565b5b826003811115611c1c57611c1b613138565b5b03611c61578060001c6040517ffce698f7000000000000000000000000000000000000000000000000000000008152600401611c589190611f35565b60405180910390fd5b600380811115611c7457611c73613138565b5b826003811115611c8757611c86613138565b5b03611cc957806040517fd78bce0c000000000000000000000000000000000000000000000000000000008152600401611cc09190613167565b60405180910390fd5b5b5050565b60606000611cdb83611ecc565b90506000602067ffffffffffffffff811115611cfa57611cf9612417565b5b6040519080825280601f01601f191660200182016040528015611d2c5781602001600182028036833780820191505090505b5090508181528360208201528092505050919050565b60007f8b73c3c69bb8fe3d512ecc4cf759cc79239f7b179b0ffacaa9a75d522b39400f7f00000000000000000000000000000000000000000000000000000000000000007f00000000000000000000000000000000000000000000000000000000000000004630604051602001611dbd959493929190613182565b60405160208183030381529060405280519060200120905090565b60008060007f7fffffffffffffffffffffffffffffff5d576e7357a4501ddfe92f46681b20a08460001c1115611e18576000600385925092509250611ec2565b600060018888888860405160008152602001604052604051611e3d94939291906131f1565b6020604051602081039080840390855afa158015611e5f573d6000803e3d6000fd5b505050602060405103519050600073ffffffffffffffffffffffffffffffffffffffff168173ffffffffffffffffffffffffffffffffffffffff1603611eb357600060016000801b93509350935050611ec2565b8060008060001b935093509350505b9450945094915050565b60008060ff8360001c169050601f811115611f13576040517fb3512b0c00000000000000000000000000000000000000000000000000000000815260040160405180910390fd5b80915050919050565b6000819050919050565b611f2f81611f1c565b82525050565b6000602082019050611f4a6000830184611f26565b92915050565b6000604051905090565b600080fd5b600080fd5b600080fd5b600080fd5b600080fd5b60008083601f840112611f8957611f88611f64565b5b8235905067ffffffffffffffff811115611fa657611fa5611f69565b5b602083019150836020820283011115611fc257611fc1611f6e565b5b9250929050565b60008115159050919050565b611fde81611fc9565b8114611fe957600080fd5b50565b600081359050611ffb81611fd5565b92915050565b60008060006040848603121561201a57612019611f5a565b5b600084013567ffffffffffffffff81111561203857612037611f5f565b5b61204486828701611f73565b9350935050602061205786828701611fec565b9150509250925092565b600073ffffffffffffffffffffffffffffffffffffffff82169050919050565b600061208c82612061565b9050919050565b61209c81612081565b81146120a757600080fd5b50565b6000813590506120b981612093565b92915050565b6000602082840312156120d5576120d4611f5a565b5b60006120e3848285016120aa565b91505092915050565b6120f581611fc9565b82525050565b600060208201905061211060008301846120ec565b92915050565b61211f81611f1c565b811461212a57600080fd5b50565b60008135905061213c81612116565b92915050565b60006020828403121561215857612157611f5a565b5b60006121668482850161212d565b91505092915050565b61217881612081565b82525050565b6000602082019050612193600083018461216f565b92915050565b6000806000606084860312156121b2576121b1611f5a565b5b60006121c08682870161212d565b93505060206121d18682870161212d565b92505060406121e28682870161212d565b9150509250925092565b60007fff0000000000000000000000000000000000000000000000000000000000000082169050919050565b612221816121ec565b82525050565b600081519050919050565b600082825260208201905092915050565b60005b83811015612261578082015181840152602081019050612246565b60008484015250505050565b6000601f19601f8301169050919050565b600061228982612227565b6122938185612232565b93506122a3818560208601612243565b6122ac8161226d565b840191505092915050565b6000819050919050565b6122ca816122b7565b82525050565b600081519050919050565b600082825260208201905092915050565b6000819050602082019050919050565b61230581611f1c565b82525050565b600061231783836122fc565b60208301905092915050565b6000602082019050919050565b600061233b826122d0565b61234581856122db565b9350612350836122ec565b8060005b83811015612381578151612368888261230b565b975061237383612323565b925050600181019050612354565b5085935050505092915050565b600060e0820190506123a3600083018a612218565b81810360208301526123b5818961227e565b905081810360408301526123c9818861227e565b90506123d86060830187611f26565b6123e5608083018661216f565b6123f260a08301856122c1565b81810360c08301526124048184612330565b905098975050505050505050565b600080fd5b7f4e487b7100000000000000000000000000000000000000000000000000000000600052604160045260246000fd5b61244f8261226d565b810181811067ffffffffffffffff8211171561246e5761246d612417565b5b80604052505050565b6000612481611f50565b905061248d8282612446565b919050565b600067ffffffffffffffff8211156124ad576124ac612417565b5b6124b68261226d565b9050602081019050919050565b82818337600083830152505050565b60006124e56124e084612492565b612477565b90508281526020810184848401111561250157612500612412565b5b61250c8482856124c3565b509392505050565b600082601f83011261252957612528611f64565b5b81356125398482602086016124d2565b91505092915050565b60008060006060848603121561255b5761255a611f5a565b5b6000612569868287016120aa565b935050602061257a8682870161212d565b925050604084013567ffffffffffffffff81111561259b5761259a611f5f565b5b6125a786828701612514565b9150509250925092565b600080604083850312156125c8576125c7611f5a565b5b60006125d6858286016120aa565b92505060206125e785828601611fec565b9150509250929050565b7f4e487b7100000000000000000000000000000000000000000000000000000000600052603260045260246000fd5b7f496e76616c696420617274697374206164647265737300000000000000000000600082015250565b6000612656601683612232565b915061266182612620565b602082019050919050565b6000602082019050818103600083015261268581612649565b9050919050565b7f4e487b7100000000000000000000000000000000000000000000000000000000600052601160045260246000fd5b60006126c682611f1c565b91507fffffffffffffffffffffffffffffffffffffffffffffffffffffffffffffffff82036126f8576126f761268c565b5b600182019050919050565b7f496e76616c696420757365722061646472657373000000000000000000000000600082015250565b6000612739601483612232565b915061274482612703565b602082019050919050565b600060208201905081810360008301526127688161272c565b9050919050565b7f4665652065786365656473206d6178696d756d20616c6c6f7765640000000000600082015250565b60006127a5601b83612232565b91506127b08261276f565b602082019050919050565b600060208201905081810360008301526127d481612798565b9050919050565b7f496e76616c696420616464726573730000000000000000000000000000000000600082015250565b6000612811600f83612232565b915061281c826127db565b602082019050919050565b6000602082019050818103600083015261284081612804565b9050919050565b7f53616d6520616464726573732070726f76696465640000000000000000000000600082015250565b600061287d601583612232565b915061288882612847565b602082019050919050565b600060208201905081810360008301526128ac81612870565b9050919050565b7f47656e6572616c206d696e206d7573742062652067726561746572207468616e60008201527f2030000000000000000000000000000000000000000000000000000000000000602082015250565b600061290f602283612232565b915061291a826128b3565b604082019050919050565b6000602082019050818103600083015261293e81612902565b9050919050565b7f47656e6572616c206d6178206d7573742062652067726561746572207468616e60008201527f206d696e00000000000000000000000000000000000000000000000000000000602082015250565b60006129a1602483612232565b91506129ac82612945565b604082019050919050565b600060208201905081810360008301526129d081612994565b9050919050565b7f5665726966696564206d6178206d75737420626520677265617465722074686160008201527f6e2067656e6572616c206d617800000000000000000000000000000000000000602082015250565b6000612a33602d83612232565b9150612a3e826129d7565b604082019050919050565b60006020820190508181036000830152612a6281612a26565b9050919050565b6000606082019050612a7e6000830186611f26565b612a8b6020830185611f26565b612a986040830184611f26565b949350505050565b7f496e76616c696420766572696669657220616464726573730000000000000000600082015250565b6000612ad6601883612232565b9150612ae182612aa0565b602082019050919050565b60006020820190508181036000830152612b0581612ac9565b9050919050565b7f5369676e61747572652065787069726564000000000000000000000000000000600082015250565b6000612b42601183612232565b9150612b4d82612b0c565b602082019050919050565b60006020820190508181036000830152612b7181612b35565b9050919050565b600060c082019050612b8d60008301896122c1565b612b9a602083018861216f565b612ba76040830187611f26565b612bb46060830186611f26565b612bc16080830185611f26565b612bce60a0830184611f26565b979650505050505050565b7f496e76616c6964207369676e6174757265000000000000000000000000000000600082015250565b6000612c0f601183612232565b9150612c1a82612bd9565b602082019050919050565b60006020820190508181036000830152612c3e81612c02565b9050919050565b7f5061796d656e7420616d6f756e742062656c6f77206d696e696d756d00000000600082015250565b6000612c7b601c83612232565b9150612c8682612c45565b602082019050919050565b60006020820190508181036000830152612caa81612c6e565b9050919050565b7f4172746973742063616e6e6f742062652043726166746961782061646472657360008201527f7300000000000000000000000000000000000000000000000000000000000000602082015250565b6000612d0d602183612232565b9150612d1882612cb1565b604082019050919050565b60006020820190508181036000830152612d3c81612d00565b9050919050565b7f5061796d656e742065786365656473207665726966696564206c696d69740000600082015250565b6000612d79601e83612232565b9150612d8482612d43565b602082019050919050565b60006020820190508181036000830152612da881612d6c565b9050919050565b7f5061796d656e7420657863656564732067656e6572616c206c696d6974000000600082015250565b6000612de5601d83612232565b9150612df082612daf565b602082019050919050565b60006020820190508181036000830152612e1481612dd8565b9050919050565b6000612e2682611f1c565b9150612e3183611f1c565b9250828202612e3f81611f1c565b91508282048414831517612e5657612e5561268c565b5b5092915050565b7f4e487b7100000000000000000000000000000000000000000000000000000000600052601260045260246000fd5b6000612e9782611f1c565b9150612ea283611f1c565b925082612eb257612eb1612e5d565b5b828204905092915050565b6000612ec882611f1c565b9150612ed383611f1c565b9250828203905081811115612eeb57612eea61268c565b5b92915050565b600081905092915050565b50565b6000612f0c600083612ef1565b9150612f1782612efc565b600082019050919050565b6000612f2d82612eff565b9150819050919050565b7f4661696c656420746f2073656e64207061796d656e7420746f20617274697374600082015250565b6000612f6d602083612232565b9150612f7882612f37565b602082019050919050565b60006020820190508181036000830152612f9c81612f60565b9050919050565b7f4661696c656420746f2073656e64207061796d656e7420746f2043726166746960008201527f6178000000000000000000000000000000000000000000000000000000000000602082015250565b6000612fff602283612232565b915061300a82612fa3565b604082019050919050565b6000602082019050818103600083015261302e81612ff2565b9050919050565b600060608201905061304a6000830186611f26565b6130576020830185611f26565b61306460408301846120ec565b949350505050565b7f53746174757320616c7265616479207365740000000000000000000000000000600082015250565b60006130a2601283612232565b91506130ad8261306c565b602082019050919050565b600060208201905081810360008301526130d181613095565b9050919050565b7f4e487b7100000000000000000000000000000000000000000000000000000000600052602260045260246000fd5b6000600282049050600182168061311f57607f821691505b602082108103613132576131316130d8565b5b50919050565b7f4e487b7100000000000000000000000000000000000000000000000000000000600052602160045260246000fd5b600060208201905061317c60008301846122c1565b92915050565b600060a08201905061319760008301886122c1565b6131a460208301876122c1565b6131b160408301866122c1565b6131be6060830185611f26565b6131cb608083018461216f565b9695505050505050565b600060ff82169050919050565b6131eb816131d5565b82525050565b600060808201905061320660008301876122c1565b61321360208301866131e2565b61322060408301856122c1565b61322d60608301846122c1565b9594505050505056fea2646970667358221220598273b7f8141b386740e4e48a6313abadbb3ee07d9a76ccfe23e48ae319fbc064736f6c63430008140033",
  "linkReferences": {},
  "deployedLinkReferences": {}
}